{
	"contracts/HMOR.sol": {
		"HMOB": {
			"abi": [
				{
					"inputs": [],
					"stateMutability": "nonpayable",
					"type": "constructor"
				},
				{
					"anonymous": false,
					"inputs": [
						{
							"indexed": true,
							"internalType": "address",
							"name": "account",
							"type": "address"
						},
						{
							"indexed": true,
							"internalType": "address",
							"name": "operator",
							"type": "address"
						},
						{
							"indexed": false,
							"internalType": "bool",
							"name": "approved",
							"type": "bool"
						}
					],
					"name": "ApprovalForAll",
					"type": "event"
				},
				{
					"anonymous": false,
					"inputs": [
						{
							"indexed": true,
							"internalType": "address",
							"name": "previousOwner",
							"type": "address"
						},
						{
							"indexed": true,
							"internalType": "address",
							"name": "newOwner",
							"type": "address"
						}
					],
					"name": "OwnershipTransferred",
					"type": "event"
				},
				{
					"anonymous": false,
					"inputs": [
						{
							"indexed": true,
							"internalType": "address",
							"name": "operator",
							"type": "address"
						},
						{
							"indexed": true,
							"internalType": "address",
							"name": "from",
							"type": "address"
						},
						{
							"indexed": true,
							"internalType": "address",
							"name": "to",
							"type": "address"
						},
						{
							"indexed": false,
							"internalType": "uint256[]",
							"name": "ids",
							"type": "uint256[]"
						},
						{
							"indexed": false,
							"internalType": "uint256[]",
							"name": "values",
							"type": "uint256[]"
						}
					],
					"name": "TransferBatch",
					"type": "event"
				},
				{
					"anonymous": false,
					"inputs": [
						{
							"indexed": true,
							"internalType": "address",
							"name": "operator",
							"type": "address"
						},
						{
							"indexed": true,
							"internalType": "address",
							"name": "from",
							"type": "address"
						},
						{
							"indexed": true,
							"internalType": "address",
							"name": "to",
							"type": "address"
						},
						{
							"indexed": false,
							"internalType": "uint256",
							"name": "id",
							"type": "uint256"
						},
						{
							"indexed": false,
							"internalType": "uint256",
							"name": "value",
							"type": "uint256"
						}
					],
					"name": "TransferSingle",
					"type": "event"
				},
				{
					"anonymous": false,
					"inputs": [
						{
							"indexed": false,
							"internalType": "string",
							"name": "value",
							"type": "string"
						},
						{
							"indexed": true,
							"internalType": "uint256",
							"name": "id",
							"type": "uint256"
						}
					],
					"name": "URI",
					"type": "event"
				},
				{
					"inputs": [],
					"name": "GOLD",
					"outputs": [
						{
							"internalType": "uint256",
							"name": "",
							"type": "uint256"
						}
					],
					"stateMutability": "view",
					"type": "function"
				},
				{
					"inputs": [],
					"name": "SHIELD",
					"outputs": [
						{
							"internalType": "uint256",
							"name": "",
							"type": "uint256"
						}
					],
					"stateMutability": "view",
					"type": "function"
				},
				{
					"inputs": [],
					"name": "SILVER",
					"outputs": [
						{
							"internalType": "uint256",
							"name": "",
							"type": "uint256"
						}
					],
					"stateMutability": "view",
					"type": "function"
				},
				{
					"inputs": [],
					"name": "SWORD",
					"outputs": [
						{
							"internalType": "uint256",
							"name": "",
							"type": "uint256"
						}
					],
					"stateMutability": "view",
					"type": "function"
				},
				{
					"inputs": [],
					"name": "THORS_HAMMER",
					"outputs": [
						{
							"internalType": "uint256",
							"name": "",
							"type": "uint256"
						}
					],
					"stateMutability": "view",
					"type": "function"
				},
				{
					"inputs": [
						{
							"internalType": "address",
							"name": "account",
							"type": "address"
						},
						{
							"internalType": "uint256",
							"name": "id",
							"type": "uint256"
						}
					],
					"name": "balanceOf",
					"outputs": [
						{
							"internalType": "uint256",
							"name": "",
							"type": "uint256"
						}
					],
					"stateMutability": "view",
					"type": "function"
				},
				{
					"inputs": [
						{
							"internalType": "address[]",
							"name": "accounts",
							"type": "address[]"
						},
						{
							"internalType": "uint256[]",
							"name": "ids",
							"type": "uint256[]"
						}
					],
					"name": "balanceOfBatch",
					"outputs": [
						{
							"internalType": "uint256[]",
							"name": "",
							"type": "uint256[]"
						}
					],
					"stateMutability": "view",
					"type": "function"
				},
				{
					"inputs": [
						{
							"internalType": "address",
							"name": "account",
							"type": "address"
						},
						{
							"internalType": "address",
							"name": "operator",
							"type": "address"
						}
					],
					"name": "isApprovedForAll",
					"outputs": [
						{
							"internalType": "bool",
							"name": "",
							"type": "bool"
						}
					],
					"stateMutability": "view",
					"type": "function"
				},
				{
					"inputs": [],
					"name": "owner",
					"outputs": [
						{
							"internalType": "address",
							"name": "",
							"type": "address"
						}
					],
					"stateMutability": "view",
					"type": "function"
				},
				{
					"inputs": [],
					"name": "renounceOwnership",
					"outputs": [],
					"stateMutability": "nonpayable",
					"type": "function"
				},
				{
					"inputs": [
						{
							"internalType": "address",
							"name": "from",
							"type": "address"
						},
						{
							"internalType": "address",
							"name": "to",
							"type": "address"
						},
						{
							"internalType": "uint256[]",
							"name": "ids",
							"type": "uint256[]"
						},
						{
							"internalType": "uint256[]",
							"name": "amounts",
							"type": "uint256[]"
						},
						{
							"internalType": "bytes",
							"name": "data",
							"type": "bytes"
						}
					],
					"name": "safeBatchTransferFrom",
					"outputs": [],
					"stateMutability": "nonpayable",
					"type": "function"
				},
				{
					"inputs": [
						{
							"internalType": "address",
							"name": "from",
							"type": "address"
						},
						{
							"internalType": "address",
							"name": "to",
							"type": "address"
						},
						{
							"internalType": "uint256",
							"name": "id",
							"type": "uint256"
						},
						{
							"internalType": "uint256",
							"name": "amount",
							"type": "uint256"
						},
						{
							"internalType": "bytes",
							"name": "data",
							"type": "bytes"
						}
					],
					"name": "safeTransferFrom",
					"outputs": [],
					"stateMutability": "nonpayable",
					"type": "function"
				},
				{
					"inputs": [
						{
							"internalType": "address",
							"name": "operator",
							"type": "address"
						},
						{
							"internalType": "bool",
							"name": "approved",
							"type": "bool"
						}
					],
					"name": "setApprovalForAll",
					"outputs": [],
					"stateMutability": "nonpayable",
					"type": "function"
				},
				{
					"inputs": [
						{
							"internalType": "bytes4",
							"name": "interfaceId",
							"type": "bytes4"
						}
					],
					"name": "supportsInterface",
					"outputs": [
						{
							"internalType": "bool",
							"name": "",
							"type": "bool"
						}
					],
					"stateMutability": "view",
					"type": "function"
				},
				{
					"inputs": [
						{
							"internalType": "address",
							"name": "newOwner",
							"type": "address"
						}
					],
					"name": "transferOwnership",
					"outputs": [],
					"stateMutability": "nonpayable",
					"type": "function"
				},
				{
					"inputs": [
						{
							"internalType": "uint256",
							"name": "",
							"type": "uint256"
						}
					],
					"name": "uri",
					"outputs": [
						{
							"internalType": "string",
							"name": "",
							"type": "string"
						}
					],
					"stateMutability": "view",
					"type": "function"
				}
			],
			"devdoc": {
				"kind": "dev",
				"methods": {
					"balanceOf(address,uint256)": {
						"details": "See {IERC1155-balanceOf}. Requirements: - `account` cannot be the zero address."
					},
					"balanceOfBatch(address[],uint256[])": {
						"details": "See {IERC1155-balanceOfBatch}. Requirements: - `accounts` and `ids` must have the same length."
					},
					"isApprovedForAll(address,address)": {
						"details": "See {IERC1155-isApprovedForAll}."
					},
					"owner()": {
						"details": "Returns the address of the current owner."
					},
					"renounceOwnership()": {
						"details": "Leaves the contract without owner. It will not be possible to call `onlyOwner` functions anymore. Can only be called by the current owner. NOTE: Renouncing ownership will leave the contract without an owner, thereby removing any functionality that is only available to the owner."
					},
					"safeBatchTransferFrom(address,address,uint256[],uint256[],bytes)": {
						"details": "See {IERC1155-safeBatchTransferFrom}."
					},
					"safeTransferFrom(address,address,uint256,uint256,bytes)": {
						"details": "See {IERC1155-safeTransferFrom}."
					},
					"setApprovalForAll(address,bool)": {
						"details": "See {IERC1155-setApprovalForAll}."
					},
					"supportsInterface(bytes4)": {
						"details": "See {IERC165-supportsInterface}. Time complexity O(1), guaranteed to always use less than 30 000 gas."
					},
					"transferOwnership(address)": {
						"details": "Transfers ownership of the contract to a new account (`newOwner`). Can only be called by the current owner."
					},
					"uri(uint256)": {
						"details": "See {IERC1155MetadataURI-uri}. This implementation returns the same URI for *all* token types. It relies on the token type ID substitution mechanism https://eips.ethereum.org/EIPS/eip-1155#metadata[defined in the EIP]. Clients calling this function must replace the `\\{id\\}` substring with the actual token type ID."
					}
				},
				"version": 1
			},
			"evm": {
				"assembly": "    /* \"contracts/HMOR.sol\":36833:37689  contract HMOB is ERC1155,Ownable(){... */\n  mstore(0x40, 0x80)\n    /* \"contracts/HMOR.sol\":37096:37531  constructor() public ERC1155(\"https://www.goldstandardgrp.com/metadata/berlin/HMOR.json\") {... */\n  callvalue\n  dup1\n  iszero\n  tag_1\n  jumpi\n  0x00\n  dup1\n  revert\ntag_1:\n  pop\n    /* \"contracts/HMOR.sol\":24548:24893  constructor (string memory uri) {... */\n  mload(0x40)\n  dup1\n  0x60\n  add\n  0x40\n  mstore\n  dup1\n  0x39\n  dup2\n  mstore\n  0x20\n  add\n  data_36a815a2fccc46026a87c45ba49a90ea81049abcf29ebfa06fcbf53e6135297f\n  0x39\n  swap2\n  codecopy\n    /* \"contracts/HMOR.sol\":5148:5188  _registerInterface(_INTERFACE_ID_ERC165) */\n  tag_7\n    /* \"contracts/HMOR.sol\":4824:4834  0x01ffc9a7 */\n  0x01ffc9a7\n    /* \"contracts/HMOR.sol\":5167:5187  _INTERFACE_ID_ERC165 */\n  0xe0\n  shl\n    /* \"contracts/HMOR.sol\":5148:5166  _registerInterface */\n  shl(0x20, tag_8)\n    /* \"contracts/HMOR.sol\":5148:5188  _registerInterface(_INTERFACE_ID_ERC165) */\n  0x20\n  shr\n  jump\t// in\ntag_7:\n    /* \"contracts/HMOR.sol\":24590:24602  _setURI(uri) */\n  tag_10\n    /* \"contracts/HMOR.sol\":24598:24601  uri */\n  dup2\n    /* \"contracts/HMOR.sol\":24590:24597  _setURI */\n  shl(0x20, tag_11)\n    /* \"contracts/HMOR.sol\":24590:24602  _setURI(uri) */\n  0x20\n  shr\n  jump\t// in\ntag_10:\n    /* \"contracts/HMOR.sol\":24691:24732  _registerInterface(_INTERFACE_ID_ERC1155) */\n  tag_12\n    /* \"contracts/HMOR.sol\":24336:24346  0xd9b67a26 */\n  0xd9b67a26\n    /* \"contracts/HMOR.sol\":24710:24731  _INTERFACE_ID_ERC1155 */\n  0xe0\n  shl\n    /* \"contracts/HMOR.sol\":24691:24709  _registerInterface */\n  shl(0x20, tag_8)\n    /* \"contracts/HMOR.sol\":24691:24732  _registerInterface(_INTERFACE_ID_ERC1155) */\n  0x20\n  shr\n  jump\t// in\ntag_12:\n    /* \"contracts/HMOR.sol\":24832:24886  _registerInterface(_INTERFACE_ID_ERC1155_METADATA_URI) */\n  tag_13\n    /* \"contracts/HMOR.sol\":24488:24498  0x0e89341c */\n  0x0e89341c\n    /* \"contracts/HMOR.sol\":24851:24885  _INTERFACE_ID_ERC1155_METADATA_URI */\n  0xe0\n  shl\n    /* \"contracts/HMOR.sol\":24832:24850  _registerInterface */\n  shl(0x20, tag_8)\n    /* \"contracts/HMOR.sol\":24832:24886  _registerInterface(_INTERFACE_ID_ERC1155_METADATA_URI) */\n  0x20\n  shr\n  jump\t// in\ntag_13:\n    /* \"contracts/HMOR.sol\":24548:24893  constructor (string memory uri) {... */\n  pop\n    /* \"contracts/HMOR.sol\":21513:21530  address msgSender */\n  0x00\n    /* \"contracts/HMOR.sol\":21533:21545  _msgSender() */\n  tag_15\n    /* \"contracts/HMOR.sol\":21533:21543  _msgSender */\n  shl(0x20, tag_16)\n    /* \"contracts/HMOR.sol\":21533:21545  _msgSender() */\n  0x20\n  shr\n  jump\t// in\ntag_15:\n    /* \"contracts/HMOR.sol\":21513:21545  address msgSender = _msgSender() */\n  swap1\n  pop\n    /* \"contracts/HMOR.sol\":21564:21573  msgSender */\n  dup1\n    /* \"contracts/HMOR.sol\":21555:21561  _owner */\n  0x04\n  0x00\n    /* \"contracts/HMOR.sol\":21555:21573  _owner = msgSender */\n  0x0100\n  exp\n  dup2\n  sload\n  dup2\n  0xffffffffffffffffffffffffffffffffffffffff\n  mul\n  not\n  and\n  swap1\n  dup4\n  0xffffffffffffffffffffffffffffffffffffffff\n  and\n  mul\n  or\n  swap1\n  sstore\n  pop\n    /* \"contracts/HMOR.sol\":21621:21630  msgSender */\n  dup1\n    /* \"contracts/HMOR.sol\":21588:21631  OwnershipTransferred(address(0), msgSender) */\n  0xffffffffffffffffffffffffffffffffffffffff\n  and\n    /* \"contracts/HMOR.sol\":21617:21618  0 */\n  0x00\n    /* \"contracts/HMOR.sol\":21588:21631  OwnershipTransferred(address(0), msgSender) */\n  0xffffffffffffffffffffffffffffffffffffffff\n  and\n  0x8be0079c531659141344cd1fd0a4f28419497f9722a3daafe3b4186f6b6457e0\n  mload(0x40)\n  mload(0x40)\n  dup1\n  swap2\n  sub\n  swap1\n  log3\n    /* \"contracts/HMOR.sol\":21487:21638  constructor ()  {... */\n  pop\n    /* \"contracts/HMOR.sol\":37443:37474  _mint(msg.sender, SHIELD,2, \"\") */\n  tag_18\n    /* \"contracts/HMOR.sol\":37449:37459  msg.sender */\n  caller\n    /* \"contracts/HMOR.sol\":37089:37090  4 */\n  0x04\n    /* \"contracts/HMOR.sol\":37468:37469  2 */\n  0x02\n    /* \"contracts/HMOR.sol\":37443:37474  _mint(msg.sender, SHIELD,2, \"\") */\n  mload(0x40)\n  dup1\n  0x20\n  add\n  0x40\n  mstore\n  dup1\n  0x00\n  dup2\n  mstore\n  pop\n    /* \"contracts/HMOR.sol\":37443:37448  _mint */\n  shl(0x20, tag_19)\n    /* \"contracts/HMOR.sol\":37443:37474  _mint(msg.sender, SHIELD,2, \"\") */\n  0x20\n  shr\n  jump\t// in\ntag_18:\n    /* \"contracts/HMOR.sol\":37486:37524  _mint(msg.sender, THORS_HAMMER, 1, \"\") */\n  tag_20\n    /* \"contracts/HMOR.sol\":37492:37502  msg.sender */\n  caller\n    /* \"contracts/HMOR.sol\":37010:37011  2 */\n  0x02\n    /* \"contracts/HMOR.sol\":37518:37519  1 */\n  0x01\n    /* \"contracts/HMOR.sol\":37486:37524  _mint(msg.sender, THORS_HAMMER, 1, \"\") */\n  mload(0x40)\n  dup1\n  0x20\n  add\n  0x40\n  mstore\n  dup1\n  0x00\n  dup2\n  mstore\n  pop\n    /* \"contracts/HMOR.sol\":37486:37491  _mint */\n  shl(0x20, tag_19)\n    /* \"contracts/HMOR.sol\":37486:37524  _mint(msg.sender, THORS_HAMMER, 1, \"\") */\n  0x20\n  shr\n  jump\t// in\ntag_20:\n    /* \"contracts/HMOR.sol\":36833:37689  contract HMOB is ERC1155,Ownable(){... */\n  jump(tag_21)\n    /* \"contracts/HMOR.sol\":5879:6077  function _registerInterface(bytes4 interfaceId) internal virtual {... */\ntag_8:\n    /* \"contracts/HMOR.sol\":5977:5987  0xffffffff */\n  0xffffffff\n    /* \"contracts/HMOR.sol\":5962:5987  interfaceId != 0xffffffff */\n  0xe0\n  shl\n    /* \"contracts/HMOR.sol\":5962:5973  interfaceId */\n  dup2\n    /* \"contracts/HMOR.sol\":5962:5987  interfaceId != 0xffffffff */\n  not(0xffffffffffffffffffffffffffffffffffffffffffffffffffffffff)\n  and\n  eq\n  iszero\n    /* \"contracts/HMOR.sol\":5954:6020  require(interfaceId != 0xffffffff, \"ERC165: invalid interface id\") */\n  tag_23\n  jumpi\n  mload(0x40)\n  0x08c379a000000000000000000000000000000000000000000000000000000000\n  dup2\n  mstore\n  0x04\n  add\n  dup1\n  dup1\n  0x20\n  add\n  dup3\n  dup2\n  sub\n  dup3\n  mstore\n  0x1c\n  dup2\n  mstore\n  0x20\n  add\n  dup1\n  0x4552433136353a20696e76616c696420696e7465726661636520696400000000\n  dup2\n  mstore\n  pop\n  0x20\n  add\n  swap2\n  pop\n  pop\n  mload(0x40)\n  dup1\n  swap2\n  sub\n  swap1\n  revert\ntag_23:\n    /* \"contracts/HMOR.sol\":6066:6070  true */\n  0x01\n    /* \"contracts/HMOR.sol\":6030:6050  _supportedInterfaces */\n  0x00\n    /* \"contracts/HMOR.sol\":6030:6063  _supportedInterfaces[interfaceId] */\n  dup1\n    /* \"contracts/HMOR.sol\":6051:6062  interfaceId */\n  dup4\n    /* \"contracts/HMOR.sol\":6030:6063  _supportedInterfaces[interfaceId] */\n  not(0xffffffffffffffffffffffffffffffffffffffffffffffffffffffff)\n  and\n  not(0xffffffffffffffffffffffffffffffffffffffffffffffffffffffff)\n  and\n  dup2\n  mstore\n  0x20\n  add\n  swap1\n  dup2\n  mstore\n  0x20\n  add\n  0x00\n  keccak256\n  0x00\n    /* \"contracts/HMOR.sol\":6030:6070  _supportedInterfaces[interfaceId] = true */\n  0x0100\n  exp\n  dup2\n  sload\n  dup2\n  0xff\n  mul\n  not\n  and\n  swap1\n  dup4\n  iszero\n  iszero\n  mul\n  or\n  swap1\n  sstore\n  pop\n    /* \"contracts/HMOR.sol\":5879:6077  function _registerInterface(bytes4 interfaceId) internal virtual {... */\n  pop\n  jump\t// out\n    /* \"contracts/HMOR.sol\":30165:30251  function _setURI(string memory newuri) internal virtual {... */\ntag_11:\n    /* \"contracts/HMOR.sol\":30238:30244  newuri */\n  dup1\n    /* \"contracts/HMOR.sol\":30231:30235  _uri */\n  0x03\n    /* \"contracts/HMOR.sol\":30231:30244  _uri = newuri */\n  swap1\n  dup1\n  mload\n  swap1\n  0x20\n  add\n  swap1\n  tag_25\n  swap3\n  swap2\n  swap1\n  tag_26\n  jump\t// in\ntag_25:\n  pop\n    /* \"contracts/HMOR.sol\":30165:30251  function _setURI(string memory newuri) internal virtual {... */\n  pop\n  jump\t// out\n    /* \"contracts/HMOR.sol\":9727:9831  function _msgSender() internal view virtual returns (address payable) {... */\ntag_16:\n    /* \"contracts/HMOR.sol\":9780:9795  address payable */\n  0x00\n    /* \"contracts/HMOR.sol\":9814:9824  msg.sender */\n  caller\n    /* \"contracts/HMOR.sol\":9807:9824  return msg.sender */\n  swap1\n  pop\n    /* \"contracts/HMOR.sol\":9727:9831  function _msgSender() internal view virtual returns (address payable) {... */\n  swap1\n  jump\t// out\n    /* \"contracts/HMOR.sol\":30634:31206  function _mint(address account, uint256 id, uint256 amount, bytes memory data) internal virtual {... */\ntag_19:\n    /* \"contracts/HMOR.sol\":30767:30768  0 */\n  0x00\n    /* \"contracts/HMOR.sol\":30748:30769  account != address(0) */\n  0xffffffffffffffffffffffffffffffffffffffff\n  and\n    /* \"contracts/HMOR.sol\":30748:30755  account */\n  dup5\n    /* \"contracts/HMOR.sol\":30748:30769  account != address(0) */\n  0xffffffffffffffffffffffffffffffffffffffff\n  and\n  eq\n  iszero\n    /* \"contracts/HMOR.sol\":30740:30807  require(account != address(0), \"ERC1155: mint to the zero address\") */\n  tag_29\n  jumpi\n  mload(0x40)\n  0x08c379a000000000000000000000000000000000000000000000000000000000\n  dup2\n  mstore\n  0x04\n  add\n  dup1\n  dup1\n  0x20\n  add\n  dup3\n  dup2\n  sub\n  dup3\n  mstore\n  0x21\n  dup2\n  mstore\n  0x20\n  add\n  dup1\n  data_ebf031a1b7ee1d0b3a7752b450a3268e8b6c334561b48c1c0ba0f5bac05749f2\n  0x21\n  swap2\n  codecopy\n  0x40\n  add\n  swap2\n  pop\n  pop\n  mload(0x40)\n  dup1\n  swap2\n  sub\n  swap1\n  revert\ntag_29:\n    /* \"contracts/HMOR.sol\":30818:30834  address operator */\n  0x00\n    /* \"contracts/HMOR.sol\":30837:30849  _msgSender() */\n  tag_30\n    /* \"contracts/HMOR.sol\":30837:30847  _msgSender */\n  shl(0x20, tag_16)\n    /* \"contracts/HMOR.sol\":30837:30849  _msgSender() */\n  0x20\n  shr\n  jump\t// in\ntag_30:\n    /* \"contracts/HMOR.sol\":30818:30849  address operator = _msgSender() */\n  swap1\n  pop\n    /* \"contracts/HMOR.sol\":30860:30967  _beforeTokenTransfer(operator, address(0), account, _asSingletonArray(id), _asSingletonArray(amount), data) */\n  tag_31\n    /* \"contracts/HMOR.sol\":30881:30889  operator */\n  dup2\n    /* \"contracts/HMOR.sol\":30899:30900  0 */\n  0x00\n    /* \"contracts/HMOR.sol\":30903:30910  account */\n  dup8\n    /* \"contracts/HMOR.sol\":30912:30933  _asSingletonArray(id) */\n  tag_32\n    /* \"contracts/HMOR.sol\":30930:30932  id */\n  dup9\n    /* \"contracts/HMOR.sol\":30912:30929  _asSingletonArray */\n  shl(0x20, tag_33)\n    /* \"contracts/HMOR.sol\":30912:30933  _asSingletonArray(id) */\n  0x20\n  shr\n  jump\t// in\ntag_32:\n    /* \"contracts/HMOR.sol\":30935:30960  _asSingletonArray(amount) */\n  tag_34\n    /* \"contracts/HMOR.sol\":30953:30959  amount */\n  dup9\n    /* \"contracts/HMOR.sol\":30935:30952  _asSingletonArray */\n  shl(0x20, tag_33)\n    /* \"contracts/HMOR.sol\":30935:30960  _asSingletonArray(amount) */\n  0x20\n  shr\n  jump\t// in\ntag_34:\n    /* \"contracts/HMOR.sol\":30962:30966  data */\n  dup8\n    /* \"contracts/HMOR.sol\":30860:30880  _beforeTokenTransfer */\n  shl(0x20, tag_35)\n    /* \"contracts/HMOR.sol\":30860:30967  _beforeTokenTransfer(operator, address(0), account, _asSingletonArray(id), _asSingletonArray(amount), data) */\n  0x20\n  shr\n  jump\t// in\ntag_31:\n    /* \"contracts/HMOR.sol\":31003:31037  _balances[id][account].add(amount) */\n  tag_36\n    /* \"contracts/HMOR.sol\":31030:31036  amount */\n  dup4\n    /* \"contracts/HMOR.sol\":31003:31012  _balances */\n  0x01\n    /* \"contracts/HMOR.sol\":31003:31016  _balances[id] */\n  0x00\n    /* \"contracts/HMOR.sol\":31013:31015  id */\n  dup8\n    /* \"contracts/HMOR.sol\":31003:31016  _balances[id] */\n  dup2\n  mstore\n  0x20\n  add\n  swap1\n  dup2\n  mstore\n  0x20\n  add\n  0x00\n  keccak256\n    /* \"contracts/HMOR.sol\":31003:31025  _balances[id][account] */\n  0x00\n    /* \"contracts/HMOR.sol\":31017:31024  account */\n  dup9\n    /* \"contracts/HMOR.sol\":31003:31025  _balances[id][account] */\n  0xffffffffffffffffffffffffffffffffffffffff\n  and\n  0xffffffffffffffffffffffffffffffffffffffff\n  and\n  dup2\n  mstore\n  0x20\n  add\n  swap1\n  dup2\n  mstore\n  0x20\n  add\n  0x00\n  keccak256\n  sload\n    /* \"contracts/HMOR.sol\":31003:31029  _balances[id][account].add */\n  or(tag_0_88, shl(0x20, tag_37))\n  swap1\n    /* \"contracts/HMOR.sol\":31003:31037  _balances[id][account].add(amount) */\n  swap2\n  swap1\n  0x20\n  shr\n  jump\t// in\ntag_36:\n    /* \"contracts/HMOR.sol\":30978:30987  _balances */\n  0x01\n    /* \"contracts/HMOR.sol\":30978:30991  _balances[id] */\n  0x00\n    /* \"contracts/HMOR.sol\":30988:30990  id */\n  dup7\n    /* \"contracts/HMOR.sol\":30978:30991  _balances[id] */\n  dup2\n  mstore\n  0x20\n  add\n  swap1\n  dup2\n  mstore\n  0x20\n  add\n  0x00\n  keccak256\n    /* \"contracts/HMOR.sol\":30978:31000  _balances[id][account] */\n  0x00\n    /* \"contracts/HMOR.sol\":30992:30999  account */\n  dup8\n    /* \"contracts/HMOR.sol\":30978:31000  _balances[id][account] */\n  0xffffffffffffffffffffffffffffffffffffffff\n  and\n  0xffffffffffffffffffffffffffffffffffffffff\n  and\n  dup2\n  mstore\n  0x20\n  add\n  swap1\n  dup2\n  mstore\n  0x20\n  add\n  0x00\n  keccak256\n    /* \"contracts/HMOR.sol\":30978:31037  _balances[id][account] = _balances[id][account].add(amount) */\n  dup2\n  swap1\n  sstore\n  pop\n    /* \"contracts/HMOR.sol\":31089:31096  account */\n  dup5\n    /* \"contracts/HMOR.sol\":31052:31109  TransferSingle(operator, address(0), account, id, amount) */\n  0xffffffffffffffffffffffffffffffffffffffff\n  and\n    /* \"contracts/HMOR.sol\":31085:31086  0 */\n  0x00\n    /* \"contracts/HMOR.sol\":31052:31109  TransferSingle(operator, address(0), account, id, amount) */\n  0xffffffffffffffffffffffffffffffffffffffff\n  and\n    /* \"contracts/HMOR.sol\":31067:31075  operator */\n  dup3\n    /* \"contracts/HMOR.sol\":31052:31109  TransferSingle(operator, address(0), account, id, amount) */\n  0xffffffffffffffffffffffffffffffffffffffff\n  and\n  0xc3d58168c5ae7397731d063d5bbf3d657854427343f4c083240f7aacaa2d0f62\n    /* \"contracts/HMOR.sol\":31098:31100  id */\n  dup8\n    /* \"contracts/HMOR.sol\":31102:31108  amount */\n  dup8\n    /* \"contracts/HMOR.sol\":31052:31109  TransferSingle(operator, address(0), account, id, amount) */\n  mload(0x40)\n  dup1\n  dup4\n  dup2\n  mstore\n  0x20\n  add\n  dup3\n  dup2\n  mstore\n  0x20\n  add\n  swap3\n  pop\n  pop\n  pop\n  mload(0x40)\n  dup1\n  swap2\n  sub\n  swap1\n  log4\n    /* \"contracts/HMOR.sol\":31120:31199  _doSafeTransferAcceptanceCheck(operator, address(0), account, id, amount, data) */\n  tag_38\n    /* \"contracts/HMOR.sol\":31151:31159  operator */\n  dup2\n    /* \"contracts/HMOR.sol\":31169:31170  0 */\n  0x00\n    /* \"contracts/HMOR.sol\":31173:31180  account */\n  dup8\n    /* \"contracts/HMOR.sol\":31182:31184  id */\n  dup8\n    /* \"contracts/HMOR.sol\":31186:31192  amount */\n  dup8\n    /* \"contracts/HMOR.sol\":31194:31198  data */\n  dup8\n    /* \"contracts/HMOR.sol\":31120:31150  _doSafeTransferAcceptanceCheck */\n  shl(0x20, tag_39)\n    /* \"contracts/HMOR.sol\":31120:31199  _doSafeTransferAcceptanceCheck(operator, address(0), account, id, amount, data) */\n  0x20\n  shr\n  jump\t// in\ntag_38:\n    /* \"contracts/HMOR.sol\":30634:31206  function _mint(address account, uint256 id, uint256 amount, bytes memory data) internal virtual {... */\n  pop\n  pop\n  pop\n  pop\n  pop\n  jump\t// out\n    /* \"contracts/HMOR.sol\":36635:36828  function _asSingletonArray(uint256 element) private pure returns (uint256[] memory) {... */\ntag_33:\n    /* \"contracts/HMOR.sol\":36701:36717  uint256[] memory */\n  0x60\n    /* \"contracts/HMOR.sol\":36729:36751  uint256[] memory array */\n  0x00\n    /* \"contracts/HMOR.sol\":36768:36769  1 */\n  0x01\n    /* \"contracts/HMOR.sol\":36754:36770  new uint256[](1) */\n  0xffffffffffffffff\n  dup2\n  gt\n  dup1\n  iszero\n  tag_41\n  jumpi\n  0x00\n  dup1\n  revert\ntag_41:\n  pop\n  mload(0x40)\n  swap1\n  dup1\n  dup3\n  mstore\n  dup1\n  0x20\n  mul\n  0x20\n  add\n  dup3\n  add\n  0x40\n  mstore\n  dup1\n  iszero\n  tag_42\n  jumpi\n  dup2\n  0x20\n  add\n  0x20\n  dup3\n  mul\n  dup1\n  calldatasize\n  dup4\n  calldatacopy\n  dup1\n  dup3\n  add\n  swap2\n  pop\n  pop\n  swap1\n  pop\ntag_42:\n  pop\n    /* \"contracts/HMOR.sol\":36729:36770  uint256[] memory array = new uint256[](1) */\n  swap1\n  pop\n    /* \"contracts/HMOR.sol\":36791:36798  element */\n  dup3\n    /* \"contracts/HMOR.sol\":36780:36785  array */\n  dup2\n    /* \"contracts/HMOR.sol\":36786:36787  0 */\n  0x00\n    /* \"contracts/HMOR.sol\":36780:36788  array[0] */\n  dup2\n  mload\n  dup2\n  lt\n  tag_43\n  jumpi\n  invalid\ntag_43:\n  0x20\n  mul\n  0x20\n  add\n  add\n    /* \"contracts/HMOR.sol\":36780:36798  array[0] = element */\n  dup2\n  dup2\n  mstore\n  pop\n  pop\n    /* \"contracts/HMOR.sol\":36816:36821  array */\n  dup1\n    /* \"contracts/HMOR.sol\":36809:36821  return array */\n  swap2\n  pop\n  pop\n    /* \"contracts/HMOR.sol\":36635:36828  function _asSingletonArray(uint256 element) private pure returns (uint256[] memory) {... */\n  swap2\n  swap1\n  pop\n  jump\t// out\n    /* \"contracts/HMOR.sol\":34871:35098  function _beforeTokenTransfer(... */\ntag_35:\n  pop\n  pop\n  pop\n  pop\n  pop\n  pop\n  jump\t// out\n    /* \"contracts/HMOR.sol\":10888:11064  function add(uint256 a, uint256 b) internal pure returns (uint256) {... */\ntag_37:\n    /* \"contracts/HMOR.sol\":10946:10953  uint256 */\n  0x00\n    /* \"contracts/HMOR.sol\":10965:10974  uint256 c */\n  dup1\n    /* \"contracts/HMOR.sol\":10981:10982  b */\n  dup3\n    /* \"contracts/HMOR.sol\":10977:10978  a */\n  dup5\n    /* \"contracts/HMOR.sol\":10977:10982  a + b */\n  add\n    /* \"contracts/HMOR.sol\":10965:10982  uint256 c = a + b */\n  swap1\n  pop\n    /* \"contracts/HMOR.sol\":11005:11006  a */\n  dup4\n    /* \"contracts/HMOR.sol\":11000:11001  c */\n  dup2\n    /* \"contracts/HMOR.sol\":11000:11006  c >= a */\n  lt\n  iszero\n    /* \"contracts/HMOR.sol\":10992:11038  require(c >= a, \"SafeMath: addition overflow\") */\n  tag_46\n  jumpi\n  mload(0x40)\n  0x08c379a000000000000000000000000000000000000000000000000000000000\n  dup2\n  mstore\n  0x04\n  add\n  dup1\n  dup1\n  0x20\n  add\n  dup3\n  dup2\n  sub\n  dup3\n  mstore\n  0x1b\n  dup2\n  mstore\n  0x20\n  add\n  dup1\n  0x536166654d6174683a206164646974696f6e206f766572666c6f770000000000\n  dup2\n  mstore\n  pop\n  0x20\n  add\n  swap2\n  pop\n  pop\n  mload(0x40)\n  dup1\n  swap2\n  sub\n  swap1\n  revert\ntag_46:\n    /* \"contracts/HMOR.sol\":11056:11057  c */\n  dup1\n    /* \"contracts/HMOR.sol\":11049:11057  return c */\n  swap2\n  pop\n  pop\n    /* \"contracts/HMOR.sol\":10888:11064  function add(uint256 a, uint256 b) internal pure returns (uint256) {... */\n  swap3\n  swap2\n  pop\n  pop\n  jump\t// out\n    /* \"contracts/HMOR.sol\":35104:35845  function _doSafeTransferAcceptanceCheck(... */\ntag_39:\n    /* \"contracts/HMOR.sol\":35323:35338  to.isContract() */\n  tag_48\n    /* \"contracts/HMOR.sol\":35323:35325  to */\n  dup5\n    /* \"contracts/HMOR.sol\":35323:35336  to.isContract */\n  0xffffffffffffffffffffffffffffffffffffffff\n  and\n  or(tag_0_89, shl(0x20, tag_49))\n    /* \"contracts/HMOR.sol\":35323:35338  to.isContract() */\n  0x20\n  shr\n  jump\t// in\ntag_48:\n    /* \"contracts/HMOR.sol\":35319:35839  if (to.isContract()) {... */\n  iszero\n  tag_50\n  jumpi\n    /* \"contracts/HMOR.sol\":35375:35377  to */\n  dup4\n    /* \"contracts/HMOR.sol\":35358:35396  IERC1155Receiver(to).onERC1155Received */\n  0xffffffffffffffffffffffffffffffffffffffff\n  and\n  0xf23a6e61\n    /* \"contracts/HMOR.sol\":35397:35405  operator */\n  dup8\n    /* \"contracts/HMOR.sol\":35407:35411  from */\n  dup8\n    /* \"contracts/HMOR.sol\":35413:35415  id */\n  dup7\n    /* \"contracts/HMOR.sol\":35417:35423  amount */\n  dup7\n    /* \"contracts/HMOR.sol\":35425:35429  data */\n  dup7\n    /* \"contracts/HMOR.sol\":35358:35430  IERC1155Receiver(to).onERC1155Received(operator, from, id, amount, data) */\n  mload(0x40)\n  dup7\n  0xffffffff\n  and\n  0xe0\n  shl\n  dup2\n  mstore\n  0x04\n  add\n  dup1\n  dup7\n  0xffffffffffffffffffffffffffffffffffffffff\n  and\n  dup2\n  mstore\n  0x20\n  add\n  dup6\n  0xffffffffffffffffffffffffffffffffffffffff\n  and\n  dup2\n  mstore\n  0x20\n  add\n  dup5\n  dup2\n  mstore\n  0x20\n  add\n  dup4\n  dup2\n  mstore\n  0x20\n  add\n  dup1\n  0x20\n  add\n  dup3\n  dup2\n  sub\n  dup3\n  mstore\n  dup4\n  dup2\n  dup2\n  mload\n  dup2\n  mstore\n  0x20\n  add\n  swap2\n  pop\n  dup1\n  mload\n  swap1\n  0x20\n  add\n  swap1\n  dup1\n  dup4\n  dup4\n  0x00\ntag_51:\n  dup4\n  dup2\n  lt\n  iszero\n  tag_53\n  jumpi\n  dup1\n  dup3\n  add\n  mload\n  dup2\n  dup5\n  add\n  mstore\n  0x20\n  dup2\n  add\n  swap1\n  pop\n  jump(tag_51)\ntag_53:\n  pop\n  pop\n  pop\n  pop\n  swap1\n  pop\n  swap1\n  dup2\n  add\n  swap1\n  0x1f\n  and\n  dup1\n  iszero\n  tag_54\n  jumpi\n  dup1\n  dup3\n  sub\n  dup1\n  mload\n  0x01\n  dup4\n  0x20\n  sub\n  0x0100\n  exp\n  sub\n  not\n  and\n  dup2\n  mstore\n  0x20\n  add\n  swap2\n  pop\ntag_54:\n  pop\n  swap7\n  pop\n  pop\n  pop\n  pop\n  pop\n  pop\n  pop\n  0x20\n  mload(0x40)\n  dup1\n  dup4\n  sub\n  dup2\n  0x00\n  dup8\n  dup1\n  extcodesize\n  iszero\n  dup1\n  iszero\n  tag_55\n  jumpi\n  0x00\n  dup1\n  revert\ntag_55:\n  pop\n  gas\n  call\n  swap3\n  pop\n  pop\n  pop\n  dup1\n  iszero\n  tag_56\n  jumpi\n  pop\n  mload(0x40)\n  returndatasize\n  0x20\n  dup2\n  lt\n  iszero\n  tag_57\n  jumpi\n  0x00\n  dup1\n  revert\ntag_57:\n  dup2\n  add\n  swap1\n  dup1\n  dup1\n  mload\n  swap1\n  0x20\n  add\n  swap1\n  swap3\n  swap2\n  swap1\n  pop\n  pop\n  pop\n  0x01\ntag_56:\n    /* \"contracts/HMOR.sol\":35354:35829  try IERC1155Receiver(to).onERC1155Received(operator, from, id, amount, data) returns (bytes4 response) {... */\n  tag_58\n  jumpi\n  tag_61\n  tag_62\n  jump\t// in\ntag_61:\n  dup1\n  tag_63\n  jumpi\n  pop\n  jump(tag_60)\ntag_63:\n    /* \"contracts/HMOR.sol\":35705:35711  reason */\n  dup1\n    /* \"contracts/HMOR.sol\":35698:35712  revert(reason) */\n  mload(0x40)\n  0x08c379a000000000000000000000000000000000000000000000000000000000\n  dup2\n  mstore\n  0x04\n  add\n  dup1\n  dup1\n  0x20\n  add\n  dup3\n  dup2\n  sub\n  dup3\n  mstore\n  dup4\n  dup2\n  dup2\n  mload\n  dup2\n  mstore\n  0x20\n  add\n  swap2\n  pop\n  dup1\n  mload\n  swap1\n  0x20\n  add\n  swap1\n  dup1\n  dup4\n  dup4\n  0x00\ntag_64:\n  dup4\n  dup2\n  lt\n  iszero\n  tag_66\n  jumpi\n  dup1\n  dup3\n  add\n  mload\n  dup2\n  dup5\n  add\n  mstore\n  0x20\n  dup2\n  add\n  swap1\n  pop\n  jump(tag_64)\ntag_66:\n  pop\n  pop\n  pop\n  pop\n  swap1\n  pop\n  swap1\n  dup2\n  add\n  swap1\n  0x1f\n  and\n  dup1\n  iszero\n  tag_67\n  jumpi\n  dup1\n  dup3\n  sub\n  dup1\n  mload\n  0x01\n  dup4\n  0x20\n  sub\n  0x0100\n  exp\n  sub\n  not\n  and\n  dup2\n  mstore\n  0x20\n  add\n  swap2\n  pop\ntag_67:\n  pop\n  swap3\n  pop\n  pop\n  pop\n  mload(0x40)\n  dup1\n  swap2\n  sub\n  swap1\n  revert\n    /* \"contracts/HMOR.sol\":35354:35829  try IERC1155Receiver(to).onERC1155Received(operator, from, id, amount, data) returns (bytes4 response) {... */\ntag_60:\n    /* \"contracts/HMOR.sol\":35752:35814  revert(\"ERC1155: transfer to non ERC1155Receiver implementer\") */\n  mload(0x40)\n  0x08c379a000000000000000000000000000000000000000000000000000000000\n  dup2\n  mstore\n  0x04\n  add\n  dup1\n  dup1\n  0x20\n  add\n  dup3\n  dup2\n  sub\n  dup3\n  mstore\n  0x34\n  dup2\n  mstore\n  0x20\n  add\n  dup1\n  data_00aa752fb1526000e5241602affc3d70ef506da48a27ea57140102b439e655ed\n  0x34\n  swap2\n  codecopy\n  0x40\n  add\n  swap2\n  pop\n  pop\n  mload(0x40)\n  dup1\n  swap2\n  sub\n  swap1\n  revert\n    /* \"contracts/HMOR.sol\":35354:35829  try IERC1155Receiver(to).onERC1155Received(operator, from, id, amount, data) returns (bytes4 response) {... */\ntag_58:\n    /* \"contracts/HMOR.sol\":35491:35538  IERC1155Receiver(to).onERC1155Received.selector */\n  shl(0xe0, 0xf23a6e61)\n    /* \"contracts/HMOR.sol\":35479:35538  response != IERC1155Receiver(to).onERC1155Received.selector */\n  not(0xffffffffffffffffffffffffffffffffffffffffffffffffffffffff)\n  and\n    /* \"contracts/HMOR.sol\":35479:35487  response */\n  dup2\n    /* \"contracts/HMOR.sol\":35479:35538  response != IERC1155Receiver(to).onERC1155Received.selector */\n  not(0xffffffffffffffffffffffffffffffffffffffffffffffffffffffff)\n  and\n  eq\n    /* \"contracts/HMOR.sol\":35475:35631  if (response != IERC1155Receiver(to).onERC1155Received.selector) {... */\n  tag_69\n  jumpi\n    /* \"contracts/HMOR.sol\":35562:35612  revert(\"ERC1155: ERC1155Receiver rejected tokens\") */\n  mload(0x40)\n  0x08c379a000000000000000000000000000000000000000000000000000000000\n  dup2\n  mstore\n  0x04\n  add\n  dup1\n  dup1\n  0x20\n  add\n  dup3\n  dup2\n  sub\n  dup3\n  mstore\n  0x28\n  dup2\n  mstore\n  0x20\n  add\n  dup1\n  data_0587cccad73a80a7f013db13c596f4febc1968dc77e1d3589d5e7a509a3d6503\n  0x28\n  swap2\n  codecopy\n  0x40\n  add\n  swap2\n  pop\n  pop\n  mload(0x40)\n  dup1\n  swap2\n  sub\n  swap1\n  revert\n    /* \"contracts/HMOR.sol\":35475:35631  if (response != IERC1155Receiver(to).onERC1155Received.selector) {... */\ntag_69:\n    /* \"contracts/HMOR.sol\":35431:35645  returns (bytes4 response) {... */\n  pop\n    /* \"contracts/HMOR.sol\":35319:35839  if (to.isContract()) {... */\ntag_50:\n    /* \"contracts/HMOR.sol\":35104:35845  function _doSafeTransferAcceptanceCheck(... */\n  pop\n  pop\n  pop\n  pop\n  pop\n  pop\n  jump\t// out\n    /* \"contracts/HMOR.sol\":15877:16487  function isContract(address account) internal view returns (bool) {... */\ntag_49:\n    /* \"contracts/HMOR.sol\":15937:15941  bool */\n  0x00\n    /* \"contracts/HMOR.sol\":16195:16211  bytes32 codehash */\n  dup1\n    /* \"contracts/HMOR.sol\":16221:16240  bytes32 accountHash */\n  0x00\n    /* \"contracts/HMOR.sol\":16243:16309  0xc5d2460186f7233c927e7db2dcc703c0e500b653ca82273b7bfad8045d85a470 */\n  0xc5d2460186f7233c927e7db2dcc703c0e500b653ca82273b7bfad8045d85a470\n    /* \"contracts/HMOR.sol\":16221:16309  bytes32 accountHash = 0xc5d2460186f7233c927e7db2dcc703c0e500b653ca82273b7bfad8045d85a470 */\n  0x00\n  shl\n  swap1\n  pop\n    /* \"contracts/HMOR.sol\":16410:16417  account */\n  dup4\n    /* \"contracts/HMOR.sol\":16398:16418  extcodehash(account) */\n  extcodehash\n    /* \"contracts/HMOR.sol\":16386:16418  codehash := extcodehash(account) */\n  swap2\n  pop\n    /* \"contracts/HMOR.sol\":16449:16460  accountHash */\n  dup1\n    /* \"contracts/HMOR.sol\":16437:16445  codehash */\n  dup3\n    /* \"contracts/HMOR.sol\":16437:16460  codehash != accountHash */\n  eq\n  iszero\n    /* \"contracts/HMOR.sol\":16437:16479  codehash != accountHash && codehash != 0x0 */\n  dup1\n  iszero\n  tag_71\n  jumpi\n  pop\n    /* \"contracts/HMOR.sol\":16476:16479  0x0 */\n  0x00\n    /* \"contracts/HMOR.sol\":16464:16479  codehash != 0x0 */\n  dup1\n  shl\n    /* \"contracts/HMOR.sol\":16464:16472  codehash */\n  dup3\n    /* \"contracts/HMOR.sol\":16464:16479  codehash != 0x0 */\n  eq\n  iszero\n    /* \"contracts/HMOR.sol\":16437:16479  codehash != accountHash && codehash != 0x0 */\ntag_71:\n    /* \"contracts/HMOR.sol\":16429:16480  return (codehash != accountHash && codehash != 0x0) */\n  swap3\n  pop\n  pop\n  pop\n    /* \"contracts/HMOR.sol\":15877:16487  function isContract(address account) internal view returns (bool) {... */\n  swap2\n  swap1\n  pop\n  jump\t// out\n    /* \"contracts/HMOR.sol\":36833:37689  contract HMOB is ERC1155,Ownable(){... */\ntag_26:\n  dup3\n  dup1\n  sload\n  0x01\n  dup2\n  0x01\n  and\n  iszero\n  0x0100\n  mul\n  sub\n  and\n  0x02\n  swap1\n  div\n  swap1\n  0x00\n  mstore\n  keccak256(0x00, 0x20)\n  swap1\n  0x1f\n  add\n  0x20\n  swap1\n  div\n  dup2\n  add\n  swap3\n  dup3\n  tag_73\n  jumpi\n  0x00\n  dup6\n  sstore\n  jump(tag_72)\ntag_73:\n  dup3\n  0x1f\n  lt\n  tag_74\n  jumpi\n  dup1\n  mload\n  not(0xff)\n  and\n  dup4\n  dup1\n  add\n  or\n  dup6\n  sstore\n  jump(tag_72)\ntag_74:\n  dup3\n  dup1\n  add\n  0x01\n  add\n  dup6\n  sstore\n  dup3\n  iszero\n  tag_72\n  jumpi\n  swap2\n  dup3\n  add\ntag_75:\n  dup3\n  dup2\n  gt\n  iszero\n  tag_76\n  jumpi\n  dup3\n  mload\n  dup3\n  sstore\n  swap2\n  0x20\n  add\n  swap2\n  swap1\n  0x01\n  add\n  swap1\n  jump(tag_75)\ntag_76:\ntag_72:\n  pop\n  swap1\n  pop\n  tag_77\n  swap2\n  swap1\n  tag_78\n  jump\t// in\ntag_77:\n  pop\n  swap1\n  jump\t// out\ntag_78:\ntag_79:\n  dup1\n  dup3\n  gt\n  iszero\n  tag_80\n  jumpi\n  0x00\n  dup2\n  0x00\n  swap1\n  sstore\n  pop\n  0x01\n  add\n  jump(tag_79)\ntag_80:\n  pop\n  swap1\n  jump\t// out\n    /* \"#utility.yul\":7:109   */\ntag_82:\n  0x00\n    /* \"#utility.yul\":99:101   */\n  0x1f\n    /* \"#utility.yul\":95:102   */\n  not\n    /* \"#utility.yul\":90:92   */\n  0x1f\n    /* \"#utility.yul\":83:88   */\n  dup4\n    /* \"#utility.yul\":79:93   */\n  add\n    /* \"#utility.yul\":75:103   */\n  and\n    /* \"#utility.yul\":65:103   */\n  swap1\n  pop\n    /* \"#utility.yul\":55:109   */\n  swap2\n  swap1\n  pop\n  jump\t// out\n    /* \"#utility.yul\":115:221   */\ntag_84:\n  0x00\n    /* \"#utility.yul\":208:213   */\n  dup2\n    /* \"#utility.yul\":203:206   */\n  0xe0\n    /* \"#utility.yul\":199:214   */\n  shr\n    /* \"#utility.yul\":178:214   */\n  swap1\n  pop\n    /* \"#utility.yul\":168:221   */\n  swap2\n  swap1\n  pop\n  jump\t// out\n    /* \"#utility.yul\":227:1060   */\ntag_62:\n  0x00\n    /* \"#utility.yul\":304:308   */\n  0x44\n    /* \"#utility.yul\":286:302   */\n  returndatasize\n    /* \"#utility.yul\":283:309   */\n  lt\n    /* \"#utility.yul\":280:282   */\n  iszero\n  tag_87\n  jumpi\n    /* \"#utility.yul\":312:317   */\n  jump(tag_86)\n    /* \"#utility.yul\":280:282   */\ntag_87:\n    /* \"#utility.yul\":350:351   */\n  0x04\n    /* \"#utility.yul\":347:348   */\n  0x00\n    /* \"#utility.yul\":344:345   */\n  dup1\n    /* \"#utility.yul\":329:352   */\n  returndatacopy\n    /* \"#utility.yul\":372:406   */\n  tag_88\n    /* \"#utility.yul\":403:404   */\n  0x00\n    /* \"#utility.yul\":397:405   */\n  mload\n    /* \"#utility.yul\":372:406   */\n  tag_84\n  jump\t// in\ntag_88:\n    /* \"#utility.yul\":433:443   */\n  0x08c379a0\n    /* \"#utility.yul\":428:431   */\n  dup2\n    /* \"#utility.yul\":425:444   */\n  eq\n    /* \"#utility.yul\":415:417   */\n  tag_89\n  jumpi\n    /* \"#utility.yul\":448:453   */\n  pop\n  jump(tag_86)\n    /* \"#utility.yul\":415:417   */\ntag_89:\n    /* \"#utility.yul\":483:485   */\n  0x40\n    /* \"#utility.yul\":477:486   */\n  mload\n    /* \"#utility.yul\":541:542   */\n  0x04\n    /* \"#utility.yul\":523:539   */\n  returndatasize\n    /* \"#utility.yul\":519:543   */\n  sub\n    /* \"#utility.yul\":516:517   */\n  0x04\n    /* \"#utility.yul\":510:514   */\n  dup3\n    /* \"#utility.yul\":495:544   */\n  returndatacopy\n    /* \"#utility.yul\":574:578   */\n  dup1\n    /* \"#utility.yul\":568:579   */\n  mload\n    /* \"#utility.yul\":673:689   */\n  returndatasize\n    /* \"#utility.yul\":666:670   */\n  0x24\n    /* \"#utility.yul\":658:664   */\n  dup3\n    /* \"#utility.yul\":654:671   */\n  add\n    /* \"#utility.yul\":651:690   */\n  gt\n    /* \"#utility.yul\":618:636   */\n  0xffffffffffffffff\n    /* \"#utility.yul\":610:616   */\n  dup3\n    /* \"#utility.yul\":607:637   */\n  gt\n    /* \"#utility.yul\":591:704   */\n  or\n    /* \"#utility.yul\":588:590   */\n  iszero\n  tag_90\n  jumpi\n    /* \"#utility.yul\":719:724   */\n  pop\n  pop\n  pop\n  jump(tag_86)\n    /* \"#utility.yul\":588:590   */\ntag_90:\n    /* \"#utility.yul\":765:771   */\n  dup1\n    /* \"#utility.yul\":759:763   */\n  dup3\n    /* \"#utility.yul\":755:772   */\n  add\n    /* \"#utility.yul\":801:804   */\n  dup1\n    /* \"#utility.yul\":795:805   */\n  mload\n    /* \"#utility.yul\":828:846   */\n  0xffffffffffffffff\n    /* \"#utility.yul\":820:826   */\n  dup2\n    /* \"#utility.yul\":817:847   */\n  gt\n    /* \"#utility.yul\":814:816   */\n  iszero\n  tag_91\n  jumpi\n    /* \"#utility.yul\":850:855   */\n  pop\n  pop\n  pop\n  pop\n  pop\n  jump(tag_86)\n    /* \"#utility.yul\":814:816   */\ntag_91:\n    /* \"#utility.yul\":898:904   */\n  dup1\n    /* \"#utility.yul\":891:895   */\n  0x20\n    /* \"#utility.yul\":886:889   */\n  dup4\n    /* \"#utility.yul\":882:896   */\n  add\n    /* \"#utility.yul\":878:905   */\n  add\n    /* \"#utility.yul\":935:951   */\n  returndatasize\n    /* \"#utility.yul\":929:933   */\n  dup6\n    /* \"#utility.yul\":925:952   */\n  add\n    /* \"#utility.yul\":920:923   */\n  dup2\n    /* \"#utility.yul\":917:953   */\n  gt\n    /* \"#utility.yul\":914:916   */\n  iszero\n  tag_92\n  jumpi\n    /* \"#utility.yul\":956:961   */\n  pop\n  pop\n  pop\n  pop\n  pop\n  pop\n  jump(tag_86)\n    /* \"#utility.yul\":914:916   */\ntag_92:\n    /* \"#utility.yul\":1004:1033   */\n  tag_93\n    /* \"#utility.yul\":1026:1032   */\n  dup3\n    /* \"#utility.yul\":1004:1033   */\n  tag_82\n  jump\t// in\ntag_93:\n    /* \"#utility.yul\":997:1001   */\n  0x20\n    /* \"#utility.yul\":992:995   */\n  dup5\n    /* \"#utility.yul\":988:1002   */\n  add\n    /* \"#utility.yul\":984:1034   */\n  add\n    /* \"#utility.yul\":980:982   */\n  0x40\n    /* \"#utility.yul\":973:1035   */\n  mstore\n    /* \"#utility.yul\":1051:1054   */\n  dup3\n    /* \"#utility.yul\":1044:1054   */\n  swap7\n  pop\n    /* \"#utility.yul\":270:1060   */\n  pop\n  pop\n  pop\n  pop\n  pop\n  pop\ntag_86:\n  swap1\n  jump\t// out\n    /* \"contracts/HMOR.sol\":36833:37689  contract HMOB is ERC1155,Ownable(){... */\ntag_21:\n  dataSize(sub_0)\n  dup1\n  dataOffset(sub_0)\n  0x00\n  codecopy\n  0x00\n  return\nstop\ndata_00aa752fb1526000e5241602affc3d70ef506da48a27ea57140102b439e655ed 455243313135353a207472616e7366657220746f206e6f6e2045524331313535526563656976657220696d706c656d656e746572\ndata_0587cccad73a80a7f013db13c596f4febc1968dc77e1d3589d5e7a509a3d6503 455243313135353a204552433131353552656365697665722072656a656374656420746f6b656e73\ndata_36a815a2fccc46026a87c45ba49a90ea81049abcf29ebfa06fcbf53e6135297f 68747470733a2f2f7777772e676f6c647374616e646172646772702e636f6d2f6d657461646174612f6265726c696e2f484d4f522e6a736f6e\ndata_ebf031a1b7ee1d0b3a7752b450a3268e8b6c334561b48c1c0ba0f5bac05749f2 455243313135353a206d696e7420746f20746865207a65726f2061646472657373\n\nsub_0: assembly {\n        /* \"contracts/HMOR.sol\":36833:37689  contract HMOB is ERC1155,Ownable(){... */\n      mstore(0x40, 0x80)\n      callvalue\n      dup1\n      iszero\n      tag_1\n      jumpi\n      0x00\n      dup1\n      revert\n    tag_1:\n      pop\n      jumpi(tag_2, lt(calldatasize, 0x04))\n      shr(0xe0, calldataload(0x00))\n      dup1\n      0x715018a6\n      gt\n      tag_19\n      jumpi\n      dup1\n      0xe3e55f08\n      gt\n      tag_20\n      jumpi\n      dup1\n      0xe3e55f08\n      eq\n      tag_15\n      jumpi\n      dup1\n      0xe985e9c5\n      eq\n      tag_16\n      jumpi\n      dup1\n      0xf242432a\n      eq\n      tag_17\n      jumpi\n      dup1\n      0xf2fde38b\n      eq\n      tag_18\n      jumpi\n      jump(tag_2)\n    tag_20:\n      dup1\n      0x715018a6\n      eq\n      tag_11\n      jumpi\n      dup1\n      0x8da5cb5b\n      eq\n      tag_12\n      jumpi\n      dup1\n      0xa22cb465\n      eq\n      tag_13\n      jumpi\n      dup1\n      0xd562e204\n      eq\n      tag_14\n      jumpi\n      jump(tag_2)\n    tag_19:\n      dup1\n      0x2eb2c2d6\n      gt\n      tag_21\n      jumpi\n      dup1\n      0x2eb2c2d6\n      eq\n      tag_7\n      jumpi\n      dup1\n      0x3e4bee38\n      eq\n      tag_8\n      jumpi\n      dup1\n      0x4e1273f4\n      eq\n      tag_9\n      jumpi\n      dup1\n      0x5b2725ed\n      eq\n      tag_10\n      jumpi\n      jump(tag_2)\n    tag_21:\n      dup1\n      0xfdd58e\n      eq\n      tag_3\n      jumpi\n      dup1\n      0x01ffc9a7\n      eq\n      tag_4\n      jumpi\n      dup1\n      0x0e89341c\n      eq\n      tag_5\n      jumpi\n      dup1\n      0x13dc989f\n      eq\n      tag_6\n      jumpi\n    tag_2:\n      0x00\n      dup1\n      revert\n        /* \"contracts/HMOR.sol\":25531:25751  function balanceOf(address account, uint256 id) public view override returns (uint256) {... */\n    tag_3:\n      tag_22\n      0x04\n      dup1\n      calldatasize\n      sub\n      0x40\n      dup2\n      lt\n      iszero\n      tag_23\n      jumpi\n      0x00\n      dup1\n      revert\n    tag_23:\n      dup2\n      add\n      swap1\n      dup1\n      dup1\n      calldataload\n      0xffffffffffffffffffffffffffffffffffffffff\n      and\n      swap1\n      0x20\n      add\n      swap1\n      swap3\n      swap2\n      swap1\n      dup1\n      calldataload\n      swap1\n      0x20\n      add\n      swap1\n      swap3\n      swap2\n      swap1\n      pop\n      pop\n      pop\n      tag_24\n      jump\t// in\n    tag_22:\n      mload(0x40)\n      dup1\n      dup3\n      dup2\n      mstore\n      0x20\n      add\n      swap2\n      pop\n      pop\n      mload(0x40)\n      dup1\n      swap2\n      sub\n      swap1\n      return\n        /* \"contracts/HMOR.sol\":5345:5485  function supportsInterface(bytes4 interfaceId) public view override returns (bool) {... */\n    tag_4:\n      tag_25\n      0x04\n      dup1\n      calldatasize\n      sub\n      0x20\n      dup2\n      lt\n      iszero\n      tag_26\n      jumpi\n      0x00\n      dup1\n      revert\n    tag_26:\n      dup2\n      add\n      swap1\n      dup1\n      dup1\n      calldataload\n      not(0xffffffffffffffffffffffffffffffffffffffffffffffffffffffff)\n      and\n      swap1\n      0x20\n      add\n      swap1\n      swap3\n      swap2\n      swap1\n      pop\n      pop\n      pop\n      tag_27\n      jump\t// in\n    tag_25:\n      mload(0x40)\n      dup1\n      dup3\n      iszero\n      iszero\n      dup2\n      mstore\n      0x20\n      add\n      swap2\n      pop\n      pop\n      mload(0x40)\n      dup1\n      swap2\n      sub\n      swap1\n      return\n        /* \"contracts/HMOR.sol\":25292:25389  function uri(uint256) external view override returns (string memory) {... */\n    tag_5:\n      tag_28\n      0x04\n      dup1\n      calldatasize\n      sub\n      0x20\n      dup2\n      lt\n      iszero\n      tag_29\n      jumpi\n      0x00\n      dup1\n      revert\n    tag_29:\n      dup2\n      add\n      swap1\n      dup1\n      dup1\n      calldataload\n      swap1\n      0x20\n      add\n      swap1\n      swap3\n      swap2\n      swap1\n      pop\n      pop\n      pop\n      tag_30\n      jump\t// in\n    tag_28:\n      mload(0x40)\n      dup1\n      dup1\n      0x20\n      add\n      dup3\n      dup2\n      sub\n      dup3\n      mstore\n      dup4\n      dup2\n      dup2\n      mload\n      dup2\n      mstore\n      0x20\n      add\n      swap2\n      pop\n      dup1\n      mload\n      swap1\n      0x20\n      add\n      swap1\n      dup1\n      dup4\n      dup4\n      0x00\n    tag_31:\n      dup4\n      dup2\n      lt\n      iszero\n      tag_33\n      jumpi\n      dup1\n      dup3\n      add\n      mload\n      dup2\n      dup5\n      add\n      mstore\n      0x20\n      dup2\n      add\n      swap1\n      pop\n      jump(tag_31)\n    tag_33:\n      pop\n      pop\n      pop\n      pop\n      swap1\n      pop\n      swap1\n      dup2\n      add\n      swap1\n      0x1f\n      and\n      dup1\n      iszero\n      tag_34\n      jumpi\n      dup1\n      dup3\n      sub\n      dup1\n      mload\n      0x01\n      dup4\n      0x20\n      sub\n      0x0100\n      exp\n      sub\n      not\n      and\n      dup2\n      mstore\n      0x20\n      add\n      swap2\n      pop\n    tag_34:\n      pop\n      swap3\n      pop\n      pop\n      pop\n      mload(0x40)\n      dup1\n      swap2\n      sub\n      swap1\n      return\n        /* \"contracts/HMOR.sol\":37017:37050  uint256 public constant SWORD = 3 */\n    tag_6:\n      tag_35\n      tag_36\n      jump\t// in\n    tag_35:\n      mload(0x40)\n      dup1\n      dup3\n      dup2\n      mstore\n      0x20\n      add\n      swap2\n      pop\n      pop\n      mload(0x40)\n      dup1\n      swap2\n      sub\n      swap1\n      return\n        /* \"contracts/HMOR.sol\":28158:29342  function safeBatchTransferFrom(... */\n    tag_7:\n      tag_37\n      0x04\n      dup1\n      calldatasize\n      sub\n      0xa0\n      dup2\n      lt\n      iszero\n      tag_38\n      jumpi\n      0x00\n      dup1\n      revert\n    tag_38:\n      dup2\n      add\n      swap1\n      dup1\n      dup1\n      calldataload\n      0xffffffffffffffffffffffffffffffffffffffff\n      and\n      swap1\n      0x20\n      add\n      swap1\n      swap3\n      swap2\n      swap1\n      dup1\n      calldataload\n      0xffffffffffffffffffffffffffffffffffffffff\n      and\n      swap1\n      0x20\n      add\n      swap1\n      swap3\n      swap2\n      swap1\n      dup1\n      calldataload\n      swap1\n      0x20\n      add\n      swap1\n      0x0100000000\n      dup2\n      gt\n      iszero\n      tag_39\n      jumpi\n      0x00\n      dup1\n      revert\n    tag_39:\n      dup3\n      add\n      dup4\n      0x20\n      dup3\n      add\n      gt\n      iszero\n      tag_40\n      jumpi\n      0x00\n      dup1\n      revert\n    tag_40:\n      dup1\n      calldataload\n      swap1\n      0x20\n      add\n      swap2\n      dup5\n      0x20\n      dup4\n      mul\n      dup5\n      add\n      gt\n      0x0100000000\n      dup4\n      gt\n      or\n      iszero\n      tag_41\n      jumpi\n      0x00\n      dup1\n      revert\n    tag_41:\n      swap2\n      swap1\n      dup1\n      dup1\n      0x20\n      mul\n      0x20\n      add\n      mload(0x40)\n      swap1\n      dup2\n      add\n      0x40\n      mstore\n      dup1\n      swap4\n      swap3\n      swap2\n      swap1\n      dup2\n      dup2\n      mstore\n      0x20\n      add\n      dup4\n      dup4\n      0x20\n      mul\n      dup1\n      dup3\n      dup5\n      calldatacopy\n      0x00\n      dup2\n      dup5\n      add\n      mstore\n      not(0x1f)\n      0x1f\n      dup3\n      add\n      and\n      swap1\n      pop\n      dup1\n      dup4\n      add\n      swap3\n      pop\n      pop\n      pop\n      pop\n      pop\n      pop\n      pop\n      swap2\n      swap3\n      swap2\n      swap3\n      swap1\n      dup1\n      calldataload\n      swap1\n      0x20\n      add\n      swap1\n      0x0100000000\n      dup2\n      gt\n      iszero\n      tag_42\n      jumpi\n      0x00\n      dup1\n      revert\n    tag_42:\n      dup3\n      add\n      dup4\n      0x20\n      dup3\n      add\n      gt\n      iszero\n      tag_43\n      jumpi\n      0x00\n      dup1\n      revert\n    tag_43:\n      dup1\n      calldataload\n      swap1\n      0x20\n      add\n      swap2\n      dup5\n      0x20\n      dup4\n      mul\n      dup5\n      add\n      gt\n      0x0100000000\n      dup4\n      gt\n      or\n      iszero\n      tag_44\n      jumpi\n      0x00\n      dup1\n      revert\n    tag_44:\n      swap2\n      swap1\n      dup1\n      dup1\n      0x20\n      mul\n      0x20\n      add\n      mload(0x40)\n      swap1\n      dup2\n      add\n      0x40\n      mstore\n      dup1\n      swap4\n      swap3\n      swap2\n      swap1\n      dup2\n      dup2\n      mstore\n      0x20\n      add\n      dup4\n      dup4\n      0x20\n      mul\n      dup1\n      dup3\n      dup5\n      calldatacopy\n      0x00\n      dup2\n      dup5\n      add\n      mstore\n      not(0x1f)\n      0x1f\n      dup3\n      add\n      and\n      swap1\n      pop\n      dup1\n      dup4\n      add\n      swap3\n      pop\n      pop\n      pop\n      pop\n      pop\n      pop\n      pop\n      swap2\n      swap3\n      swap2\n      swap3\n      swap1\n      dup1\n      calldataload\n      swap1\n      0x20\n      add\n      swap1\n      0x0100000000\n      dup2\n      gt\n      iszero\n      tag_45\n      jumpi\n      0x00\n      dup1\n      revert\n    tag_45:\n      dup3\n      add\n      dup4\n      0x20\n      dup3\n      add\n      gt\n      iszero\n      tag_46\n      jumpi\n      0x00\n      dup1\n      revert\n    tag_46:\n      dup1\n      calldataload\n      swap1\n      0x20\n      add\n      swap2\n      dup5\n      0x01\n      dup4\n      mul\n      dup5\n      add\n      gt\n      0x0100000000\n      dup4\n      gt\n      or\n      iszero\n      tag_47\n      jumpi\n      0x00\n      dup1\n      revert\n    tag_47:\n      swap2\n      swap1\n      dup1\n      dup1\n      0x1f\n      add\n      0x20\n      dup1\n      swap2\n      div\n      mul\n      0x20\n      add\n      mload(0x40)\n      swap1\n      dup2\n      add\n      0x40\n      mstore\n      dup1\n      swap4\n      swap3\n      swap2\n      swap1\n      dup2\n      dup2\n      mstore\n      0x20\n      add\n      dup4\n      dup4\n      dup1\n      dup3\n      dup5\n      calldatacopy\n      0x00\n      dup2\n      dup5\n      add\n      mstore\n      not(0x1f)\n      0x1f\n      dup3\n      add\n      and\n      swap1\n      pop\n      dup1\n      dup4\n      add\n      swap3\n      pop\n      pop\n      pop\n      pop\n      pop\n      pop\n      pop\n      swap2\n      swap3\n      swap2\n      swap3\n      swap1\n      pop\n      pop\n      pop\n      tag_48\n      jump\t// in\n    tag_37:\n      stop\n        /* \"contracts/HMOR.sol\":36893:36925  uint256 public constant GOLD = 0 */\n    tag_8:\n      tag_49\n      tag_50\n      jump\t// in\n    tag_49:\n      mload(0x40)\n      dup1\n      dup3\n      dup2\n      mstore\n      0x20\n      add\n      swap2\n      pop\n      pop\n      mload(0x40)\n      dup1\n      swap2\n      sub\n      swap1\n      return\n        /* \"contracts/HMOR.sol\":25908:26523  function balanceOfBatch(... */\n    tag_9:\n      tag_51\n      0x04\n      dup1\n      calldatasize\n      sub\n      0x40\n      dup2\n      lt\n      iszero\n      tag_52\n      jumpi\n      0x00\n      dup1\n      revert\n    tag_52:\n      dup2\n      add\n      swap1\n      dup1\n      dup1\n      calldataload\n      swap1\n      0x20\n      add\n      swap1\n      0x0100000000\n      dup2\n      gt\n      iszero\n      tag_53\n      jumpi\n      0x00\n      dup1\n      revert\n    tag_53:\n      dup3\n      add\n      dup4\n      0x20\n      dup3\n      add\n      gt\n      iszero\n      tag_54\n      jumpi\n      0x00\n      dup1\n      revert\n    tag_54:\n      dup1\n      calldataload\n      swap1\n      0x20\n      add\n      swap2\n      dup5\n      0x20\n      dup4\n      mul\n      dup5\n      add\n      gt\n      0x0100000000\n      dup4\n      gt\n      or\n      iszero\n      tag_55\n      jumpi\n      0x00\n      dup1\n      revert\n    tag_55:\n      swap2\n      swap1\n      dup1\n      dup1\n      0x20\n      mul\n      0x20\n      add\n      mload(0x40)\n      swap1\n      dup2\n      add\n      0x40\n      mstore\n      dup1\n      swap4\n      swap3\n      swap2\n      swap1\n      dup2\n      dup2\n      mstore\n      0x20\n      add\n      dup4\n      dup4\n      0x20\n      mul\n      dup1\n      dup3\n      dup5\n      calldatacopy\n      0x00\n      dup2\n      dup5\n      add\n      mstore\n      not(0x1f)\n      0x1f\n      dup3\n      add\n      and\n      swap1\n      pop\n      dup1\n      dup4\n      add\n      swap3\n      pop\n      pop\n      pop\n      pop\n      pop\n      pop\n      pop\n      swap2\n      swap3\n      swap2\n      swap3\n      swap1\n      dup1\n      calldataload\n      swap1\n      0x20\n      add\n      swap1\n      0x0100000000\n      dup2\n      gt\n      iszero\n      tag_56\n      jumpi\n      0x00\n      dup1\n      revert\n    tag_56:\n      dup3\n      add\n      dup4\n      0x20\n      dup3\n      add\n      gt\n      iszero\n      tag_57\n      jumpi\n      0x00\n      dup1\n      revert\n    tag_57:\n      dup1\n      calldataload\n      swap1\n      0x20\n      add\n      swap2\n      dup5\n      0x20\n      dup4\n      mul\n      dup5\n      add\n      gt\n      0x0100000000\n      dup4\n      gt\n      or\n      iszero\n      tag_58\n      jumpi\n      0x00\n      dup1\n      revert\n    tag_58:\n      swap2\n      swap1\n      dup1\n      dup1\n      0x20\n      mul\n      0x20\n      add\n      mload(0x40)\n      swap1\n      dup2\n      add\n      0x40\n      mstore\n      dup1\n      swap4\n      swap3\n      swap2\n      swap1\n      dup2\n      dup2\n      mstore\n      0x20\n      add\n      dup4\n      dup4\n      0x20\n      mul\n      dup1\n      dup3\n      dup5\n      calldatacopy\n      0x00\n      dup2\n      dup5\n      add\n      mstore\n      not(0x1f)\n      0x1f\n      dup3\n      add\n      and\n      swap1\n      pop\n      dup1\n      dup4\n      add\n      swap3\n      pop\n      pop\n      pop\n      pop\n      pop\n      pop\n      pop\n      swap2\n      swap3\n      swap2\n      swap3\n      swap1\n      pop\n      pop\n      pop\n      tag_59\n      jump\t// in\n    tag_51:\n      mload(0x40)\n      dup1\n      dup1\n      0x20\n      add\n      dup3\n      dup2\n      sub\n      dup3\n      mstore\n      dup4\n      dup2\n      dup2\n      mload\n      dup2\n      mstore\n      0x20\n      add\n      swap2\n      pop\n      dup1\n      mload\n      swap1\n      0x20\n      add\n      swap1\n      0x20\n      mul\n      dup1\n      dup4\n      dup4\n      0x00\n    tag_60:\n      dup4\n      dup2\n      lt\n      iszero\n      tag_62\n      jumpi\n      dup1\n      dup3\n      add\n      mload\n      dup2\n      dup5\n      add\n      mstore\n      0x20\n      dup2\n      add\n      swap1\n      pop\n      jump(tag_60)\n    tag_62:\n      pop\n      pop\n      pop\n      pop\n      swap1\n      pop\n      add\n      swap3\n      pop\n      pop\n      pop\n      mload(0x40)\n      dup1\n      swap2\n      sub\n      swap1\n      return\n        /* \"contracts/HMOR.sol\":37056:37090  uint256 public constant SHIELD = 4 */\n    tag_10:\n      tag_63\n      tag_64\n      jump\t// in\n    tag_63:\n      mload(0x40)\n      dup1\n      dup3\n      dup2\n      mstore\n      0x20\n      add\n      swap2\n      pop\n      pop\n      mload(0x40)\n      dup1\n      swap2\n      sub\n      swap1\n      return\n        /* \"contracts/HMOR.sol\":22337:22482  function renounceOwnership() public virtual onlyOwner {... */\n    tag_11:\n      tag_65\n      tag_66\n      jump\t// in\n    tag_65:\n      stop\n        /* \"contracts/HMOR.sol\":21714:21791  function owner() public view returns (address) {... */\n    tag_12:\n      tag_67\n      tag_68\n      jump\t// in\n    tag_67:\n      mload(0x40)\n      dup1\n      dup3\n      0xffffffffffffffffffffffffffffffffffffffff\n      and\n      dup2\n      mstore\n      0x20\n      add\n      swap2\n      pop\n      pop\n      mload(0x40)\n      dup1\n      swap2\n      sub\n      swap1\n      return\n        /* \"contracts/HMOR.sol\":26591:26897  function setApprovalForAll(address operator, bool approved) public virtual override {... */\n    tag_13:\n      tag_69\n      0x04\n      dup1\n      calldatasize\n      sub\n      0x40\n      dup2\n      lt\n      iszero\n      tag_70\n      jumpi\n      0x00\n      dup1\n      revert\n    tag_70:\n      dup2\n      add\n      swap1\n      dup1\n      dup1\n      calldataload\n      0xffffffffffffffffffffffffffffffffffffffff\n      and\n      swap1\n      0x20\n      add\n      swap1\n      swap3\n      swap2\n      swap1\n      dup1\n      calldataload\n      iszero\n      iszero\n      swap1\n      0x20\n      add\n      swap1\n      swap3\n      swap2\n      swap1\n      pop\n      pop\n      pop\n      tag_71\n      jump\t// in\n    tag_69:\n      stop\n        /* \"contracts/HMOR.sol\":36971:37011  uint256 public constant THORS_HAMMER = 2 */\n    tag_14:\n      tag_72\n      tag_73\n      jump\t// in\n    tag_72:\n      mload(0x40)\n      dup1\n      dup3\n      dup2\n      mstore\n      0x20\n      add\n      swap2\n      pop\n      pop\n      mload(0x40)\n      dup1\n      swap2\n      sub\n      swap1\n      return\n        /* \"contracts/HMOR.sol\":36931:36965  uint256 public constant SILVER = 1 */\n    tag_15:\n      tag_74\n      tag_75\n      jump\t// in\n    tag_74:\n      mload(0x40)\n      dup1\n      dup3\n      dup2\n      mstore\n      0x20\n      add\n      swap2\n      pop\n      pop\n      mload(0x40)\n      dup1\n      swap2\n      sub\n      swap1\n      return\n        /* \"contracts/HMOR.sol\":26964:27122  function isApprovedForAll(address account, address operator) public view override returns (bool) {... */\n    tag_16:\n      tag_76\n      0x04\n      dup1\n      calldatasize\n      sub\n      0x40\n      dup2\n      lt\n      iszero\n      tag_77\n      jumpi\n      0x00\n      dup1\n      revert\n    tag_77:\n      dup2\n      add\n      swap1\n      dup1\n      dup1\n      calldataload\n      0xffffffffffffffffffffffffffffffffffffffff\n      and\n      swap1\n      0x20\n      add\n      swap1\n      swap3\n      swap2\n      swap1\n      dup1\n      calldataload\n      0xffffffffffffffffffffffffffffffffffffffff\n      and\n      swap1\n      0x20\n      add\n      swap1\n      swap3\n      swap2\n      swap1\n      pop\n      pop\n      pop\n      tag_78\n      jump\t// in\n    tag_76:\n      mload(0x40)\n      dup1\n      dup3\n      iszero\n      iszero\n      dup2\n      mstore\n      0x20\n      add\n      swap2\n      pop\n      pop\n      mload(0x40)\n      dup1\n      swap2\n      sub\n      swap1\n      return\n        /* \"contracts/HMOR.sol\":27189:28086  function safeTransferFrom(... */\n    tag_17:\n      tag_79\n      0x04\n      dup1\n      calldatasize\n      sub\n      0xa0\n      dup2\n      lt\n      iszero\n      tag_80\n      jumpi\n      0x00\n      dup1\n      revert\n    tag_80:\n      dup2\n      add\n      swap1\n      dup1\n      dup1\n      calldataload\n      0xffffffffffffffffffffffffffffffffffffffff\n      and\n      swap1\n      0x20\n      add\n      swap1\n      swap3\n      swap2\n      swap1\n      dup1\n      calldataload\n      0xffffffffffffffffffffffffffffffffffffffff\n      and\n      swap1\n      0x20\n      add\n      swap1\n      swap3\n      swap2\n      swap1\n      dup1\n      calldataload\n      swap1\n      0x20\n      add\n      swap1\n      swap3\n      swap2\n      swap1\n      dup1\n      calldataload\n      swap1\n      0x20\n      add\n      swap1\n      swap3\n      swap2\n      swap1\n      dup1\n      calldataload\n      swap1\n      0x20\n      add\n      swap1\n      0x0100000000\n      dup2\n      gt\n      iszero\n      tag_81\n      jumpi\n      0x00\n      dup1\n      revert\n    tag_81:\n      dup3\n      add\n      dup4\n      0x20\n      dup3\n      add\n      gt\n      iszero\n      tag_82\n      jumpi\n      0x00\n      dup1\n      revert\n    tag_82:\n      dup1\n      calldataload\n      swap1\n      0x20\n      add\n      swap2\n      dup5\n      0x01\n      dup4\n      mul\n      dup5\n      add\n      gt\n      0x0100000000\n      dup4\n      gt\n      or\n      iszero\n      tag_83\n      jumpi\n      0x00\n      dup1\n      revert\n    tag_83:\n      swap2\n      swap1\n      dup1\n      dup1\n      0x1f\n      add\n      0x20\n      dup1\n      swap2\n      div\n      mul\n      0x20\n      add\n      mload(0x40)\n      swap1\n      dup2\n      add\n      0x40\n      mstore\n      dup1\n      swap4\n      swap3\n      swap2\n      swap1\n      dup2\n      dup2\n      mstore\n      0x20\n      add\n      dup4\n      dup4\n      dup1\n      dup3\n      dup5\n      calldatacopy\n      0x00\n      dup2\n      dup5\n      add\n      mstore\n      not(0x1f)\n      0x1f\n      dup3\n      add\n      and\n      swap1\n      pop\n      dup1\n      dup4\n      add\n      swap3\n      pop\n      pop\n      pop\n      pop\n      pop\n      pop\n      pop\n      swap2\n      swap3\n      swap2\n      swap3\n      swap1\n      pop\n      pop\n      pop\n      tag_84\n      jump\t// in\n    tag_79:\n      stop\n        /* \"contracts/HMOR.sol\":22631:22871  function transferOwnership(address newOwner) public virtual onlyOwner {... */\n    tag_18:\n      tag_85\n      0x04\n      dup1\n      calldatasize\n      sub\n      0x20\n      dup2\n      lt\n      iszero\n      tag_86\n      jumpi\n      0x00\n      dup1\n      revert\n    tag_86:\n      dup2\n      add\n      swap1\n      dup1\n      dup1\n      calldataload\n      0xffffffffffffffffffffffffffffffffffffffff\n      and\n      swap1\n      0x20\n      add\n      swap1\n      swap3\n      swap2\n      swap1\n      pop\n      pop\n      pop\n      tag_87\n      jump\t// in\n    tag_85:\n      stop\n        /* \"contracts/HMOR.sol\":25531:25751  function balanceOf(address account, uint256 id) public view override returns (uint256) {... */\n    tag_24:\n        /* \"contracts/HMOR.sol\":25609:25616  uint256 */\n      0x00\n        /* \"contracts/HMOR.sol\":25655:25656  0 */\n      dup1\n        /* \"contracts/HMOR.sol\":25636:25657  account != address(0) */\n      0xffffffffffffffffffffffffffffffffffffffff\n      and\n        /* \"contracts/HMOR.sol\":25636:25643  account */\n      dup4\n        /* \"contracts/HMOR.sol\":25636:25657  account != address(0) */\n      0xffffffffffffffffffffffffffffffffffffffff\n      and\n      eq\n      iszero\n        /* \"contracts/HMOR.sol\":25628:25705  require(account != address(0), \"ERC1155: balance query for the zero address\") */\n      tag_91\n      jumpi\n      mload(0x40)\n      0x08c379a000000000000000000000000000000000000000000000000000000000\n      dup2\n      mstore\n      0x04\n      add\n      dup1\n      dup1\n      0x20\n      add\n      dup3\n      dup2\n      sub\n      dup3\n      mstore\n      0x2b\n      dup2\n      mstore\n      0x20\n      add\n      dup1\n      data_1f4de6a436172e7f7b1540476031cb037fc18ede9cc346a56da1697cbd352aa9\n      0x2b\n      swap2\n      codecopy\n      0x40\n      add\n      swap2\n      pop\n      pop\n      mload(0x40)\n      dup1\n      swap2\n      sub\n      swap1\n      revert\n    tag_91:\n        /* \"contracts/HMOR.sol\":25722:25731  _balances */\n      0x01\n        /* \"contracts/HMOR.sol\":25722:25735  _balances[id] */\n      0x00\n        /* \"contracts/HMOR.sol\":25732:25734  id */\n      dup4\n        /* \"contracts/HMOR.sol\":25722:25735  _balances[id] */\n      dup2\n      mstore\n      0x20\n      add\n      swap1\n      dup2\n      mstore\n      0x20\n      add\n      0x00\n      keccak256\n        /* \"contracts/HMOR.sol\":25722:25744  _balances[id][account] */\n      0x00\n        /* \"contracts/HMOR.sol\":25736:25743  account */\n      dup5\n        /* \"contracts/HMOR.sol\":25722:25744  _balances[id][account] */\n      0xffffffffffffffffffffffffffffffffffffffff\n      and\n      0xffffffffffffffffffffffffffffffffffffffff\n      and\n      dup2\n      mstore\n      0x20\n      add\n      swap1\n      dup2\n      mstore\n      0x20\n      add\n      0x00\n      keccak256\n      sload\n        /* \"contracts/HMOR.sol\":25715:25744  return _balances[id][account] */\n      swap1\n      pop\n        /* \"contracts/HMOR.sol\":25531:25751  function balanceOf(address account, uint256 id) public view override returns (uint256) {... */\n      swap3\n      swap2\n      pop\n      pop\n      jump\t// out\n        /* \"contracts/HMOR.sol\":5345:5485  function supportsInterface(bytes4 interfaceId) public view override returns (bool) {... */\n    tag_27:\n        /* \"contracts/HMOR.sol\":5422:5426  bool */\n      0x00\n        /* \"contracts/HMOR.sol\":5445:5465  _supportedInterfaces */\n      dup1\n        /* \"contracts/HMOR.sol\":5445:5478  _supportedInterfaces[interfaceId] */\n      0x00\n        /* \"contracts/HMOR.sol\":5466:5477  interfaceId */\n      dup4\n        /* \"contracts/HMOR.sol\":5445:5478  _supportedInterfaces[interfaceId] */\n      not(0xffffffffffffffffffffffffffffffffffffffffffffffffffffffff)\n      and\n      not(0xffffffffffffffffffffffffffffffffffffffffffffffffffffffff)\n      and\n      dup2\n      mstore\n      0x20\n      add\n      swap1\n      dup2\n      mstore\n      0x20\n      add\n      0x00\n      keccak256\n      0x00\n      swap1\n      sload\n      swap1\n      0x0100\n      exp\n      swap1\n      div\n      0xff\n      and\n        /* \"contracts/HMOR.sol\":5438:5478  return _supportedInterfaces[interfaceId] */\n      swap1\n      pop\n        /* \"contracts/HMOR.sol\":5345:5485  function supportsInterface(bytes4 interfaceId) public view override returns (bool) {... */\n      swap2\n      swap1\n      pop\n      jump\t// out\n        /* \"contracts/HMOR.sol\":25292:25389  function uri(uint256) external view override returns (string memory) {... */\n    tag_30:\n        /* \"contracts/HMOR.sol\":25346:25359  string memory */\n      0x60\n        /* \"contracts/HMOR.sol\":25378:25382  _uri */\n      0x03\n        /* \"contracts/HMOR.sol\":25371:25382  return _uri */\n      dup1\n      sload\n      0x01\n      dup2\n      0x01\n      and\n      iszero\n      0x0100\n      mul\n      sub\n      and\n      0x02\n      swap1\n      div\n      dup1\n      0x1f\n      add\n      0x20\n      dup1\n      swap2\n      div\n      mul\n      0x20\n      add\n      mload(0x40)\n      swap1\n      dup2\n      add\n      0x40\n      mstore\n      dup1\n      swap3\n      swap2\n      swap1\n      dup2\n      dup2\n      mstore\n      0x20\n      add\n      dup3\n      dup1\n      sload\n      0x01\n      dup2\n      0x01\n      and\n      iszero\n      0x0100\n      mul\n      sub\n      and\n      0x02\n      swap1\n      div\n      dup1\n      iszero\n      tag_94\n      jumpi\n      dup1\n      0x1f\n      lt\n      tag_95\n      jumpi\n      0x0100\n      dup1\n      dup4\n      sload\n      div\n      mul\n      dup4\n      mstore\n      swap2\n      0x20\n      add\n      swap2\n      jump(tag_94)\n    tag_95:\n      dup3\n      add\n      swap2\n      swap1\n      0x00\n      mstore\n      keccak256(0x00, 0x20)\n      swap1\n    tag_96:\n      dup2\n      sload\n      dup2\n      mstore\n      swap1\n      0x01\n      add\n      swap1\n      0x20\n      add\n      dup1\n      dup4\n      gt\n      tag_96\n      jumpi\n      dup3\n      swap1\n      sub\n      0x1f\n      and\n      dup3\n      add\n      swap2\n    tag_94:\n      pop\n      pop\n      pop\n      pop\n      pop\n      swap1\n      pop\n        /* \"contracts/HMOR.sol\":25292:25389  function uri(uint256) external view override returns (string memory) {... */\n      swap2\n      swap1\n      pop\n      jump\t// out\n        /* \"contracts/HMOR.sol\":37017:37050  uint256 public constant SWORD = 3 */\n    tag_36:\n        /* \"contracts/HMOR.sol\":37049:37050  3 */\n      0x03\n        /* \"contracts/HMOR.sol\":37017:37050  uint256 public constant SWORD = 3 */\n      dup2\n      jump\t// out\n        /* \"contracts/HMOR.sol\":28158:29342  function safeBatchTransferFrom(... */\n    tag_48:\n        /* \"contracts/HMOR.sol\":28412:28419  amounts */\n      dup2\n        /* \"contracts/HMOR.sol\":28412:28426  amounts.length */\n      mload\n        /* \"contracts/HMOR.sol\":28398:28401  ids */\n      dup4\n        /* \"contracts/HMOR.sol\":28398:28408  ids.length */\n      mload\n        /* \"contracts/HMOR.sol\":28398:28426  ids.length == amounts.length */\n      eq\n        /* \"contracts/HMOR.sol\":28390:28471  require(ids.length == amounts.length, \"ERC1155: ids and amounts length mismatch\") */\n      tag_98\n      jumpi\n      mload(0x40)\n      0x08c379a000000000000000000000000000000000000000000000000000000000\n      dup2\n      mstore\n      0x04\n      add\n      dup1\n      dup1\n      0x20\n      add\n      dup3\n      dup2\n      sub\n      dup3\n      mstore\n      0x28\n      dup2\n      mstore\n      0x20\n      add\n      dup1\n      data_e909e0c9a8f96b4f9af03b716811ece20beb070be416893ed1d50619b5930807\n      0x28\n      swap2\n      codecopy\n      0x40\n      add\n      swap2\n      pop\n      pop\n      mload(0x40)\n      dup1\n      swap2\n      sub\n      swap1\n      revert\n    tag_98:\n        /* \"contracts/HMOR.sol\":28503:28504  0 */\n      0x00\n        /* \"contracts/HMOR.sol\":28489:28505  to != address(0) */\n      0xffffffffffffffffffffffffffffffffffffffff\n      and\n        /* \"contracts/HMOR.sol\":28489:28491  to */\n      dup5\n        /* \"contracts/HMOR.sol\":28489:28505  to != address(0) */\n      0xffffffffffffffffffffffffffffffffffffffff\n      and\n      eq\n      iszero\n        /* \"contracts/HMOR.sol\":28481:28547  require(to != address(0), \"ERC1155: transfer to the zero address\") */\n      tag_99\n      jumpi\n      mload(0x40)\n      0x08c379a000000000000000000000000000000000000000000000000000000000\n      dup2\n      mstore\n      0x04\n      add\n      dup1\n      dup1\n      0x20\n      add\n      dup3\n      dup2\n      sub\n      dup3\n      mstore\n      0x25\n      dup2\n      mstore\n      0x20\n      add\n      dup1\n      data_6faf1c67f278b07c6771dcf4c315a89c21c0eaed11d9ab3d51774da1cfef545d\n      0x25\n      swap2\n      codecopy\n      0x40\n      add\n      swap2\n      pop\n      pop\n      mload(0x40)\n      dup1\n      swap2\n      sub\n      swap1\n      revert\n    tag_99:\n        /* \"contracts/HMOR.sol\":28586:28598  _msgSender() */\n      tag_100\n        /* \"contracts/HMOR.sol\":28586:28596  _msgSender */\n      tag_101\n        /* \"contracts/HMOR.sol\":28586:28598  _msgSender() */\n      jump\t// in\n    tag_100:\n        /* \"contracts/HMOR.sol\":28578:28598  from == _msgSender() */\n      0xffffffffffffffffffffffffffffffffffffffff\n      and\n        /* \"contracts/HMOR.sol\":28578:28582  from */\n      dup6\n        /* \"contracts/HMOR.sol\":28578:28598  from == _msgSender() */\n      0xffffffffffffffffffffffffffffffffffffffff\n      and\n      eq\n        /* \"contracts/HMOR.sol\":28578:28638  from == _msgSender() || isApprovedForAll(from, _msgSender()) */\n      dup1\n      tag_102\n      jumpi\n      pop\n        /* \"contracts/HMOR.sol\":28602:28638  isApprovedForAll(from, _msgSender()) */\n      tag_103\n        /* \"contracts/HMOR.sol\":28619:28623  from */\n      dup6\n        /* \"contracts/HMOR.sol\":28625:28637  _msgSender() */\n      tag_104\n        /* \"contracts/HMOR.sol\":28625:28635  _msgSender */\n      tag_101\n        /* \"contracts/HMOR.sol\":28625:28637  _msgSender() */\n      jump\t// in\n    tag_104:\n        /* \"contracts/HMOR.sol\":28602:28618  isApprovedForAll */\n      tag_78\n        /* \"contracts/HMOR.sol\":28602:28638  isApprovedForAll(from, _msgSender()) */\n      jump\t// in\n    tag_103:\n        /* \"contracts/HMOR.sol\":28578:28638  from == _msgSender() || isApprovedForAll(from, _msgSender()) */\n    tag_102:\n        /* \"contracts/HMOR.sol\":28557:28714  require(... */\n      tag_105\n      jumpi\n      mload(0x40)\n      0x08c379a000000000000000000000000000000000000000000000000000000000\n      dup2\n      mstore\n      0x04\n      add\n      dup1\n      dup1\n      0x20\n      add\n      dup3\n      dup2\n      sub\n      dup3\n      mstore\n      0x32\n      dup2\n      mstore\n      0x20\n      add\n      dup1\n      data_70a41c66829f5508884cda9ef3d2f72551b34f23e4035be97941681123d2d686\n      0x32\n      swap2\n      codecopy\n      0x40\n      add\n      swap2\n      pop\n      pop\n      mload(0x40)\n      dup1\n      swap2\n      sub\n      swap1\n      revert\n    tag_105:\n        /* \"contracts/HMOR.sol\":28725:28741  address operator */\n      0x00\n        /* \"contracts/HMOR.sol\":28744:28756  _msgSender() */\n      tag_106\n        /* \"contracts/HMOR.sol\":28744:28754  _msgSender */\n      tag_101\n        /* \"contracts/HMOR.sol\":28744:28756  _msgSender() */\n      jump\t// in\n    tag_106:\n        /* \"contracts/HMOR.sol\":28725:28756  address operator = _msgSender() */\n      swap1\n      pop\n        /* \"contracts/HMOR.sol\":28767:28827  _beforeTokenTransfer(operator, from, to, ids, amounts, data) */\n      tag_107\n        /* \"contracts/HMOR.sol\":28788:28796  operator */\n      dup2\n        /* \"contracts/HMOR.sol\":28798:28802  from */\n      dup8\n        /* \"contracts/HMOR.sol\":28804:28806  to */\n      dup8\n        /* \"contracts/HMOR.sol\":28808:28811  ids */\n      dup8\n        /* \"contracts/HMOR.sol\":28813:28820  amounts */\n      dup8\n        /* \"contracts/HMOR.sol\":28822:28826  data */\n      dup8\n        /* \"contracts/HMOR.sol\":28767:28787  _beforeTokenTransfer */\n      tag_108\n        /* \"contracts/HMOR.sol\":28767:28827  _beforeTokenTransfer(operator, from, to, ids, amounts, data) */\n      jump\t// in\n    tag_107:\n        /* \"contracts/HMOR.sol\":28843:28852  uint256 i */\n      0x00\n        /* \"contracts/HMOR.sol\":28838:29187  for (uint256 i = 0; i < ids.length; ++i) {... */\n    tag_109:\n        /* \"contracts/HMOR.sol\":28862:28865  ids */\n      dup5\n        /* \"contracts/HMOR.sol\":28862:28872  ids.length */\n      mload\n        /* \"contracts/HMOR.sol\":28858:28859  i */\n      dup2\n        /* \"contracts/HMOR.sol\":28858:28872  i < ids.length */\n      lt\n        /* \"contracts/HMOR.sol\":28838:29187  for (uint256 i = 0; i < ids.length; ++i) {... */\n      iszero\n      tag_110\n      jumpi\n        /* \"contracts/HMOR.sol\":28893:28903  uint256 id */\n      0x00\n        /* \"contracts/HMOR.sol\":28906:28909  ids */\n      dup6\n        /* \"contracts/HMOR.sol\":28910:28911  i */\n      dup3\n        /* \"contracts/HMOR.sol\":28906:28912  ids[i] */\n      dup2\n      mload\n      dup2\n      lt\n      tag_112\n      jumpi\n      invalid\n    tag_112:\n      0x20\n      mul\n      0x20\n      add\n      add\n      mload\n        /* \"contracts/HMOR.sol\":28893:28912  uint256 id = ids[i] */\n      swap1\n      pop\n        /* \"contracts/HMOR.sol\":28926:28940  uint256 amount */\n      0x00\n        /* \"contracts/HMOR.sol\":28943:28950  amounts */\n      dup6\n        /* \"contracts/HMOR.sol\":28951:28952  i */\n      dup4\n        /* \"contracts/HMOR.sol\":28943:28953  amounts[i] */\n      dup2\n      mload\n      dup2\n      lt\n      tag_113\n      jumpi\n      invalid\n    tag_113:\n      0x20\n      mul\n      0x20\n      add\n      add\n      mload\n        /* \"contracts/HMOR.sol\":28926:28953  uint256 amount = amounts[i] */\n      swap1\n      pop\n        /* \"contracts/HMOR.sol\":28990:29113  _balances[id][from].sub(... */\n      tag_114\n        /* \"contracts/HMOR.sol\":29031:29037  amount */\n      dup2\n        /* \"contracts/HMOR.sol\":28990:29113  _balances[id][from].sub(... */\n      mload(0x40)\n      dup1\n      0x60\n      add\n      0x40\n      mstore\n      dup1\n      0x2a\n      dup2\n      mstore\n      0x20\n      add\n      data_8ac7e9556b567c1c94bb4daaa3c3a65be5ac686579615210cb910fb8cb8d65bf\n      0x2a\n      swap2\n      codecopy\n        /* \"contracts/HMOR.sol\":28990:28999  _balances */\n      0x01\n        /* \"contracts/HMOR.sol\":28990:29003  _balances[id] */\n      0x00\n        /* \"contracts/HMOR.sol\":29000:29002  id */\n      dup7\n        /* \"contracts/HMOR.sol\":28990:29003  _balances[id] */\n      dup2\n      mstore\n      0x20\n      add\n      swap1\n      dup2\n      mstore\n      0x20\n      add\n      0x00\n      keccak256\n        /* \"contracts/HMOR.sol\":28990:29009  _balances[id][from] */\n      0x00\n        /* \"contracts/HMOR.sol\":29004:29008  from */\n      dup14\n        /* \"contracts/HMOR.sol\":28990:29009  _balances[id][from] */\n      0xffffffffffffffffffffffffffffffffffffffff\n      and\n      0xffffffffffffffffffffffffffffffffffffffff\n      and\n      dup2\n      mstore\n      0x20\n      add\n      swap1\n      dup2\n      mstore\n      0x20\n      add\n      0x00\n      keccak256\n      sload\n        /* \"contracts/HMOR.sol\":28990:29013  _balances[id][from].sub */\n      tag_115\n      swap1\n        /* \"contracts/HMOR.sol\":28990:29113  _balances[id][from].sub(... */\n      swap3\n      swap2\n      swap1\n      0xffffffff\n      and\n      jump\t// in\n    tag_114:\n        /* \"contracts/HMOR.sol\":28968:28977  _balances */\n      0x01\n        /* \"contracts/HMOR.sol\":28968:28981  _balances[id] */\n      0x00\n        /* \"contracts/HMOR.sol\":28978:28980  id */\n      dup5\n        /* \"contracts/HMOR.sol\":28968:28981  _balances[id] */\n      dup2\n      mstore\n      0x20\n      add\n      swap1\n      dup2\n      mstore\n      0x20\n      add\n      0x00\n      keccak256\n        /* \"contracts/HMOR.sol\":28968:28987  _balances[id][from] */\n      0x00\n        /* \"contracts/HMOR.sol\":28982:28986  from */\n      dup12\n        /* \"contracts/HMOR.sol\":28968:28987  _balances[id][from] */\n      0xffffffffffffffffffffffffffffffffffffffff\n      and\n      0xffffffffffffffffffffffffffffffffffffffff\n      and\n      dup2\n      mstore\n      0x20\n      add\n      swap1\n      dup2\n      mstore\n      0x20\n      add\n      0x00\n      keccak256\n        /* \"contracts/HMOR.sol\":28968:29113  _balances[id][from] = _balances[id][from].sub(... */\n      dup2\n      swap1\n      sstore\n      pop\n        /* \"contracts/HMOR.sol\":29147:29176  _balances[id][to].add(amount) */\n      tag_116\n        /* \"contracts/HMOR.sol\":29169:29175  amount */\n      dup2\n        /* \"contracts/HMOR.sol\":29147:29156  _balances */\n      0x01\n        /* \"contracts/HMOR.sol\":29147:29160  _balances[id] */\n      0x00\n        /* \"contracts/HMOR.sol\":29157:29159  id */\n      dup6\n        /* \"contracts/HMOR.sol\":29147:29160  _balances[id] */\n      dup2\n      mstore\n      0x20\n      add\n      swap1\n      dup2\n      mstore\n      0x20\n      add\n      0x00\n      keccak256\n        /* \"contracts/HMOR.sol\":29147:29164  _balances[id][to] */\n      0x00\n        /* \"contracts/HMOR.sol\":29161:29163  to */\n      dup12\n        /* \"contracts/HMOR.sol\":29147:29164  _balances[id][to] */\n      0xffffffffffffffffffffffffffffffffffffffff\n      and\n      0xffffffffffffffffffffffffffffffffffffffff\n      and\n      dup2\n      mstore\n      0x20\n      add\n      swap1\n      dup2\n      mstore\n      0x20\n      add\n      0x00\n      keccak256\n      sload\n        /* \"contracts/HMOR.sol\":29147:29168  _balances[id][to].add */\n      tag_88\n      swap1\n        /* \"contracts/HMOR.sol\":29147:29176  _balances[id][to].add(amount) */\n      swap2\n      swap1\n      0xffffffff\n      and\n      jump\t// in\n    tag_116:\n        /* \"contracts/HMOR.sol\":29127:29136  _balances */\n      0x01\n        /* \"contracts/HMOR.sol\":29127:29140  _balances[id] */\n      0x00\n        /* \"contracts/HMOR.sol\":29137:29139  id */\n      dup5\n        /* \"contracts/HMOR.sol\":29127:29140  _balances[id] */\n      dup2\n      mstore\n      0x20\n      add\n      swap1\n      dup2\n      mstore\n      0x20\n      add\n      0x00\n      keccak256\n        /* \"contracts/HMOR.sol\":29127:29144  _balances[id][to] */\n      0x00\n        /* \"contracts/HMOR.sol\":29141:29143  to */\n      dup11\n        /* \"contracts/HMOR.sol\":29127:29144  _balances[id][to] */\n      0xffffffffffffffffffffffffffffffffffffffff\n      and\n      0xffffffffffffffffffffffffffffffffffffffff\n      and\n      dup2\n      mstore\n      0x20\n      add\n      swap1\n      dup2\n      mstore\n      0x20\n      add\n      0x00\n      keccak256\n        /* \"contracts/HMOR.sol\":29127:29176  _balances[id][to] = _balances[id][to].add(amount) */\n      dup2\n      swap1\n      sstore\n      pop\n        /* \"contracts/HMOR.sol\":28838:29187  for (uint256 i = 0; i < ids.length; ++i) {... */\n      pop\n      pop\n        /* \"contracts/HMOR.sol\":28874:28877  ++i */\n      dup1\n      0x01\n      add\n      swap1\n      pop\n        /* \"contracts/HMOR.sol\":28838:29187  for (uint256 i = 0; i < ids.length; ++i) {... */\n      jump(tag_109)\n    tag_110:\n      pop\n        /* \"contracts/HMOR.sol\":29232:29234  to */\n      dup5\n        /* \"contracts/HMOR.sol\":29202:29249  TransferBatch(operator, from, to, ids, amounts) */\n      0xffffffffffffffffffffffffffffffffffffffff\n      and\n        /* \"contracts/HMOR.sol\":29226:29230  from */\n      dup7\n        /* \"contracts/HMOR.sol\":29202:29249  TransferBatch(operator, from, to, ids, amounts) */\n      0xffffffffffffffffffffffffffffffffffffffff\n      and\n        /* \"contracts/HMOR.sol\":29216:29224  operator */\n      dup3\n        /* \"contracts/HMOR.sol\":29202:29249  TransferBatch(operator, from, to, ids, amounts) */\n      0xffffffffffffffffffffffffffffffffffffffff\n      and\n      0x4a39dc06d4c0dbc64b70af90fd698a233a518aa5d07e595d983b8c0526c8f7fb\n        /* \"contracts/HMOR.sol\":29236:29239  ids */\n      dup8\n        /* \"contracts/HMOR.sol\":29241:29248  amounts */\n      dup8\n        /* \"contracts/HMOR.sol\":29202:29249  TransferBatch(operator, from, to, ids, amounts) */\n      mload(0x40)\n      dup1\n      dup1\n      0x20\n      add\n      dup1\n      0x20\n      add\n      dup4\n      dup2\n      sub\n      dup4\n      mstore\n      dup6\n      dup2\n      dup2\n      mload\n      dup2\n      mstore\n      0x20\n      add\n      swap2\n      pop\n      dup1\n      mload\n      swap1\n      0x20\n      add\n      swap1\n      0x20\n      mul\n      dup1\n      dup4\n      dup4\n      0x00\n    tag_117:\n      dup4\n      dup2\n      lt\n      iszero\n      tag_119\n      jumpi\n      dup1\n      dup3\n      add\n      mload\n      dup2\n      dup5\n      add\n      mstore\n      0x20\n      dup2\n      add\n      swap1\n      pop\n      jump(tag_117)\n    tag_119:\n      pop\n      pop\n      pop\n      pop\n      swap1\n      pop\n      add\n      dup4\n      dup2\n      sub\n      dup3\n      mstore\n      dup5\n      dup2\n      dup2\n      mload\n      dup2\n      mstore\n      0x20\n      add\n      swap2\n      pop\n      dup1\n      mload\n      swap1\n      0x20\n      add\n      swap1\n      0x20\n      mul\n      dup1\n      dup4\n      dup4\n      0x00\n    tag_120:\n      dup4\n      dup2\n      lt\n      iszero\n      tag_122\n      jumpi\n      dup1\n      dup3\n      add\n      mload\n      dup2\n      dup5\n      add\n      mstore\n      0x20\n      dup2\n      add\n      swap1\n      pop\n      jump(tag_120)\n    tag_122:\n      pop\n      pop\n      pop\n      pop\n      swap1\n      pop\n      add\n      swap5\n      pop\n      pop\n      pop\n      pop\n      pop\n      mload(0x40)\n      dup1\n      swap2\n      sub\n      swap1\n      log4\n        /* \"contracts/HMOR.sol\":29260:29335  _doSafeBatchTransferAcceptanceCheck(operator, from, to, ids, amounts, data) */\n      tag_123\n        /* \"contracts/HMOR.sol\":29296:29304  operator */\n      dup2\n        /* \"contracts/HMOR.sol\":29306:29310  from */\n      dup8\n        /* \"contracts/HMOR.sol\":29312:29314  to */\n      dup8\n        /* \"contracts/HMOR.sol\":29316:29319  ids */\n      dup8\n        /* \"contracts/HMOR.sol\":29321:29328  amounts */\n      dup8\n        /* \"contracts/HMOR.sol\":29330:29334  data */\n      dup8\n        /* \"contracts/HMOR.sol\":29260:29295  _doSafeBatchTransferAcceptanceCheck */\n      tag_124\n        /* \"contracts/HMOR.sol\":29260:29335  _doSafeBatchTransferAcceptanceCheck(operator, from, to, ids, amounts, data) */\n      jump\t// in\n    tag_123:\n        /* \"contracts/HMOR.sol\":28158:29342  function safeBatchTransferFrom(... */\n      pop\n      pop\n      pop\n      pop\n      pop\n      pop\n      jump\t// out\n        /* \"contracts/HMOR.sol\":36893:36925  uint256 public constant GOLD = 0 */\n    tag_50:\n        /* \"contracts/HMOR.sol\":36924:36925  0 */\n      0x00\n        /* \"contracts/HMOR.sol\":36893:36925  uint256 public constant GOLD = 0 */\n      dup2\n      jump\t// out\n        /* \"contracts/HMOR.sol\":25908:26523  function balanceOfBatch(... */\n    tag_59:\n        /* \"contracts/HMOR.sol\":26065:26081  uint256[] memory */\n      0x60\n        /* \"contracts/HMOR.sol\":26124:26127  ids */\n      dup2\n        /* \"contracts/HMOR.sol\":26124:26134  ids.length */\n      mload\n        /* \"contracts/HMOR.sol\":26105:26113  accounts */\n      dup4\n        /* \"contracts/HMOR.sol\":26105:26120  accounts.length */\n      mload\n        /* \"contracts/HMOR.sol\":26105:26134  accounts.length == ids.length */\n      eq\n        /* \"contracts/HMOR.sol\":26097:26180  require(accounts.length == ids.length, \"ERC1155: accounts and ids length mismatch\") */\n      tag_126\n      jumpi\n      mload(0x40)\n      0x08c379a000000000000000000000000000000000000000000000000000000000\n      dup2\n      mstore\n      0x04\n      add\n      dup1\n      dup1\n      0x20\n      add\n      dup3\n      dup2\n      sub\n      dup3\n      mstore\n      0x29\n      dup2\n      mstore\n      0x20\n      add\n      dup1\n      data_e155f5d69798c6205436a388a4f3a5fd42f54147b40f4d63a2c8071ff8a9fee5\n      0x29\n      swap2\n      codecopy\n      0x40\n      add\n      swap2\n      pop\n      pop\n      mload(0x40)\n      dup1\n      swap2\n      sub\n      swap1\n      revert\n    tag_126:\n        /* \"contracts/HMOR.sol\":26191:26221  uint256[] memory batchBalances */\n      0x00\n        /* \"contracts/HMOR.sol\":26238:26246  accounts */\n      dup4\n        /* \"contracts/HMOR.sol\":26238:26253  accounts.length */\n      mload\n        /* \"contracts/HMOR.sol\":26224:26254  new uint256[](accounts.length) */\n      0xffffffffffffffff\n      dup2\n      gt\n      dup1\n      iszero\n      tag_127\n      jumpi\n      0x00\n      dup1\n      revert\n    tag_127:\n      pop\n      mload(0x40)\n      swap1\n      dup1\n      dup3\n      mstore\n      dup1\n      0x20\n      mul\n      0x20\n      add\n      dup3\n      add\n      0x40\n      mstore\n      dup1\n      iszero\n      tag_128\n      jumpi\n      dup2\n      0x20\n      add\n      0x20\n      dup3\n      mul\n      dup1\n      calldatasize\n      dup4\n      calldatacopy\n      dup1\n      dup3\n      add\n      swap2\n      pop\n      pop\n      swap1\n      pop\n    tag_128:\n      pop\n        /* \"contracts/HMOR.sol\":26191:26254  uint256[] memory batchBalances = new uint256[](accounts.length) */\n      swap1\n      pop\n        /* \"contracts/HMOR.sol\":26270:26279  uint256 i */\n      0x00\n        /* \"contracts/HMOR.sol\":26265:26486  for (uint256 i = 0; i < accounts.length; ++i) {... */\n    tag_129:\n        /* \"contracts/HMOR.sol\":26289:26297  accounts */\n      dup5\n        /* \"contracts/HMOR.sol\":26289:26304  accounts.length */\n      mload\n        /* \"contracts/HMOR.sol\":26285:26286  i */\n      dup2\n        /* \"contracts/HMOR.sol\":26285:26304  i < accounts.length */\n      lt\n        /* \"contracts/HMOR.sol\":26265:26486  for (uint256 i = 0; i < accounts.length; ++i) {... */\n      iszero\n      tag_130\n      jumpi\n        /* \"contracts/HMOR.sol\":26356:26357  0 */\n      0x00\n        /* \"contracts/HMOR.sol\":26333:26358  accounts[i] != address(0) */\n      0xffffffffffffffffffffffffffffffffffffffff\n      and\n        /* \"contracts/HMOR.sol\":26333:26341  accounts */\n      dup6\n        /* \"contracts/HMOR.sol\":26342:26343  i */\n      dup3\n        /* \"contracts/HMOR.sol\":26333:26344  accounts[i] */\n      dup2\n      mload\n      dup2\n      lt\n      tag_132\n      jumpi\n      invalid\n    tag_132:\n      0x20\n      mul\n      0x20\n      add\n      add\n      mload\n        /* \"contracts/HMOR.sol\":26333:26358  accounts[i] != address(0) */\n      0xffffffffffffffffffffffffffffffffffffffff\n      and\n      eq\n      iszero\n        /* \"contracts/HMOR.sol\":26325:26412  require(accounts[i] != address(0), \"ERC1155: batch balance query for the zero address\") */\n      tag_133\n      jumpi\n      mload(0x40)\n      0x08c379a000000000000000000000000000000000000000000000000000000000\n      dup2\n      mstore\n      0x04\n      add\n      dup1\n      dup1\n      0x20\n      add\n      dup3\n      dup2\n      sub\n      dup3\n      mstore\n      0x31\n      dup2\n      mstore\n      0x20\n      add\n      dup1\n      data_1fbbb69d10332726591dc7ee4a23a94661eda2bec5ce6bf93a68249147dc8d9c\n      0x31\n      swap2\n      codecopy\n      0x40\n      add\n      swap2\n      pop\n      pop\n      mload(0x40)\n      dup1\n      swap2\n      sub\n      swap1\n      revert\n    tag_133:\n        /* \"contracts/HMOR.sol\":26445:26454  _balances */\n      0x01\n        /* \"contracts/HMOR.sol\":26445:26462  _balances[ids[i]] */\n      0x00\n        /* \"contracts/HMOR.sol\":26455:26458  ids */\n      dup6\n        /* \"contracts/HMOR.sol\":26459:26460  i */\n      dup4\n        /* \"contracts/HMOR.sol\":26455:26461  ids[i] */\n      dup2\n      mload\n      dup2\n      lt\n      tag_134\n      jumpi\n      invalid\n    tag_134:\n      0x20\n      mul\n      0x20\n      add\n      add\n      mload\n        /* \"contracts/HMOR.sol\":26445:26462  _balances[ids[i]] */\n      dup2\n      mstore\n      0x20\n      add\n      swap1\n      dup2\n      mstore\n      0x20\n      add\n      0x00\n      keccak256\n        /* \"contracts/HMOR.sol\":26445:26475  _balances[ids[i]][accounts[i]] */\n      0x00\n        /* \"contracts/HMOR.sol\":26463:26471  accounts */\n      dup7\n        /* \"contracts/HMOR.sol\":26472:26473  i */\n      dup4\n        /* \"contracts/HMOR.sol\":26463:26474  accounts[i] */\n      dup2\n      mload\n      dup2\n      lt\n      tag_135\n      jumpi\n      invalid\n    tag_135:\n      0x20\n      mul\n      0x20\n      add\n      add\n      mload\n        /* \"contracts/HMOR.sol\":26445:26475  _balances[ids[i]][accounts[i]] */\n      0xffffffffffffffffffffffffffffffffffffffff\n      and\n      0xffffffffffffffffffffffffffffffffffffffff\n      and\n      dup2\n      mstore\n      0x20\n      add\n      swap1\n      dup2\n      mstore\n      0x20\n      add\n      0x00\n      keccak256\n      sload\n        /* \"contracts/HMOR.sol\":26426:26439  batchBalances */\n      dup3\n        /* \"contracts/HMOR.sol\":26440:26441  i */\n      dup3\n        /* \"contracts/HMOR.sol\":26426:26442  batchBalances[i] */\n      dup2\n      mload\n      dup2\n      lt\n      tag_136\n      jumpi\n      invalid\n    tag_136:\n      0x20\n      mul\n      0x20\n      add\n      add\n        /* \"contracts/HMOR.sol\":26426:26475  batchBalances[i] = _balances[ids[i]][accounts[i]] */\n      dup2\n      dup2\n      mstore\n      pop\n      pop\n        /* \"contracts/HMOR.sol\":26306:26309  ++i */\n      dup1\n      0x01\n      add\n      swap1\n      pop\n        /* \"contracts/HMOR.sol\":26265:26486  for (uint256 i = 0; i < accounts.length; ++i) {... */\n      jump(tag_129)\n    tag_130:\n      pop\n        /* \"contracts/HMOR.sol\":26503:26516  batchBalances */\n      dup1\n        /* \"contracts/HMOR.sol\":26496:26516  return batchBalances */\n      swap2\n      pop\n      pop\n        /* \"contracts/HMOR.sol\":25908:26523  function balanceOfBatch(... */\n      swap3\n      swap2\n      pop\n      pop\n      jump\t// out\n        /* \"contracts/HMOR.sol\":37056:37090  uint256 public constant SHIELD = 4 */\n    tag_64:\n        /* \"contracts/HMOR.sol\":37089:37090  4 */\n      0x04\n        /* \"contracts/HMOR.sol\":37056:37090  uint256 public constant SHIELD = 4 */\n      dup2\n      jump\t// out\n        /* \"contracts/HMOR.sol\":22337:22482  function renounceOwnership() public virtual onlyOwner {... */\n    tag_66:\n        /* \"contracts/HMOR.sol\":21928:21940  _msgSender() */\n      tag_138\n        /* \"contracts/HMOR.sol\":21928:21938  _msgSender */\n      tag_101\n        /* \"contracts/HMOR.sol\":21928:21940  _msgSender() */\n      jump\t// in\n    tag_138:\n        /* \"contracts/HMOR.sol\":21918:21940  _owner == _msgSender() */\n      0xffffffffffffffffffffffffffffffffffffffff\n      and\n        /* \"contracts/HMOR.sol\":21918:21924  _owner */\n      0x04\n      0x00\n      swap1\n      sload\n      swap1\n      0x0100\n      exp\n      swap1\n      div\n      0xffffffffffffffffffffffffffffffffffffffff\n      and\n        /* \"contracts/HMOR.sol\":21918:21940  _owner == _msgSender() */\n      0xffffffffffffffffffffffffffffffffffffffff\n      and\n      eq\n        /* \"contracts/HMOR.sol\":21910:21977  require(_owner == _msgSender(), \"Ownable: caller is not the owner\") */\n      tag_139\n      jumpi\n      mload(0x40)\n      0x08c379a000000000000000000000000000000000000000000000000000000000\n      dup2\n      mstore\n      0x04\n      add\n      dup1\n      dup1\n      0x20\n      add\n      dup3\n      dup2\n      sub\n      dup3\n      mstore\n      0x20\n      dup2\n      mstore\n      0x20\n      add\n      dup1\n      0x4f776e61626c653a2063616c6c6572206973206e6f7420746865206f776e6572\n      dup2\n      mstore\n      pop\n      0x20\n      add\n      swap2\n      pop\n      pop\n      mload(0x40)\n      dup1\n      swap2\n      sub\n      swap1\n      revert\n    tag_139:\n        /* \"contracts/HMOR.sol\":22443:22444  0 */\n      0x00\n        /* \"contracts/HMOR.sol\":22406:22446  OwnershipTransferred(_owner, address(0)) */\n      0xffffffffffffffffffffffffffffffffffffffff\n      and\n        /* \"contracts/HMOR.sol\":22427:22433  _owner */\n      0x04\n      0x00\n      swap1\n      sload\n      swap1\n      0x0100\n      exp\n      swap1\n      div\n      0xffffffffffffffffffffffffffffffffffffffff\n      and\n        /* \"contracts/HMOR.sol\":22406:22446  OwnershipTransferred(_owner, address(0)) */\n      0xffffffffffffffffffffffffffffffffffffffff\n      and\n      0x8be0079c531659141344cd1fd0a4f28419497f9722a3daafe3b4186f6b6457e0\n      mload(0x40)\n      mload(0x40)\n      dup1\n      swap2\n      sub\n      swap1\n      log3\n        /* \"contracts/HMOR.sol\":22473:22474  0 */\n      0x00\n        /* \"contracts/HMOR.sol\":22456:22462  _owner */\n      0x04\n      0x00\n        /* \"contracts/HMOR.sol\":22456:22475  _owner = address(0) */\n      0x0100\n      exp\n      dup2\n      sload\n      dup2\n      0xffffffffffffffffffffffffffffffffffffffff\n      mul\n      not\n      and\n      swap1\n      dup4\n      0xffffffffffffffffffffffffffffffffffffffff\n      and\n      mul\n      or\n      swap1\n      sstore\n      pop\n        /* \"contracts/HMOR.sol\":22337:22482  function renounceOwnership() public virtual onlyOwner {... */\n      jump\t// out\n        /* \"contracts/HMOR.sol\":21714:21791  function owner() public view returns (address) {... */\n    tag_68:\n        /* \"contracts/HMOR.sol\":21752:21759  address */\n      0x00\n        /* \"contracts/HMOR.sol\":21778:21784  _owner */\n      0x04\n      0x00\n      swap1\n      sload\n      swap1\n      0x0100\n      exp\n      swap1\n      div\n      0xffffffffffffffffffffffffffffffffffffffff\n      and\n        /* \"contracts/HMOR.sol\":21771:21784  return _owner */\n      swap1\n      pop\n        /* \"contracts/HMOR.sol\":21714:21791  function owner() public view returns (address) {... */\n      swap1\n      jump\t// out\n        /* \"contracts/HMOR.sol\":26591:26897  function setApprovalForAll(address operator, bool approved) public virtual override {... */\n    tag_71:\n        /* \"contracts/HMOR.sol\":26709:26717  operator */\n      dup2\n        /* \"contracts/HMOR.sol\":26693:26717  _msgSender() != operator */\n      0xffffffffffffffffffffffffffffffffffffffff\n      and\n        /* \"contracts/HMOR.sol\":26693:26705  _msgSender() */\n      tag_143\n        /* \"contracts/HMOR.sol\":26693:26703  _msgSender */\n      tag_101\n        /* \"contracts/HMOR.sol\":26693:26705  _msgSender() */\n      jump\t// in\n    tag_143:\n        /* \"contracts/HMOR.sol\":26693:26717  _msgSender() != operator */\n      0xffffffffffffffffffffffffffffffffffffffff\n      and\n      eq\n      iszero\n        /* \"contracts/HMOR.sol\":26685:26763  require(_msgSender() != operator, \"ERC1155: setting approval status for self\") */\n      tag_144\n      jumpi\n      mload(0x40)\n      0x08c379a000000000000000000000000000000000000000000000000000000000\n      dup2\n      mstore\n      0x04\n      add\n      dup1\n      dup1\n      0x20\n      add\n      dup3\n      dup2\n      sub\n      dup3\n      mstore\n      0x29\n      dup2\n      mstore\n      0x20\n      add\n      dup1\n      data_df9806c6dc743de602e49918a67b580590d69ab768bdb59f977c0a884a91a7c2\n      0x29\n      swap2\n      codecopy\n      0x40\n      add\n      swap2\n      pop\n      pop\n      mload(0x40)\n      dup1\n      swap2\n      sub\n      swap1\n      revert\n    tag_144:\n        /* \"contracts/HMOR.sol\":26819:26827  approved */\n      dup1\n        /* \"contracts/HMOR.sol\":26774:26792  _operatorApprovals */\n      0x02\n        /* \"contracts/HMOR.sol\":26774:26806  _operatorApprovals[_msgSender()] */\n      0x00\n        /* \"contracts/HMOR.sol\":26793:26805  _msgSender() */\n      tag_145\n        /* \"contracts/HMOR.sol\":26793:26803  _msgSender */\n      tag_101\n        /* \"contracts/HMOR.sol\":26793:26805  _msgSender() */\n      jump\t// in\n    tag_145:\n        /* \"contracts/HMOR.sol\":26774:26806  _operatorApprovals[_msgSender()] */\n      0xffffffffffffffffffffffffffffffffffffffff\n      and\n      0xffffffffffffffffffffffffffffffffffffffff\n      and\n      dup2\n      mstore\n      0x20\n      add\n      swap1\n      dup2\n      mstore\n      0x20\n      add\n      0x00\n      keccak256\n        /* \"contracts/HMOR.sol\":26774:26816  _operatorApprovals[_msgSender()][operator] */\n      0x00\n        /* \"contracts/HMOR.sol\":26807:26815  operator */\n      dup5\n        /* \"contracts/HMOR.sol\":26774:26816  _operatorApprovals[_msgSender()][operator] */\n      0xffffffffffffffffffffffffffffffffffffffff\n      and\n      0xffffffffffffffffffffffffffffffffffffffff\n      and\n      dup2\n      mstore\n      0x20\n      add\n      swap1\n      dup2\n      mstore\n      0x20\n      add\n      0x00\n      keccak256\n      0x00\n        /* \"contracts/HMOR.sol\":26774:26827  _operatorApprovals[_msgSender()][operator] = approved */\n      0x0100\n      exp\n      dup2\n      sload\n      dup2\n      0xff\n      mul\n      not\n      and\n      swap1\n      dup4\n      iszero\n      iszero\n      mul\n      or\n      swap1\n      sstore\n      pop\n        /* \"contracts/HMOR.sol\":26871:26879  operator */\n      dup2\n        /* \"contracts/HMOR.sol\":26842:26890  ApprovalForAll(_msgSender(), operator, approved) */\n      0xffffffffffffffffffffffffffffffffffffffff\n      and\n        /* \"contracts/HMOR.sol\":26857:26869  _msgSender() */\n      tag_146\n        /* \"contracts/HMOR.sol\":26857:26867  _msgSender */\n      tag_101\n        /* \"contracts/HMOR.sol\":26857:26869  _msgSender() */\n      jump\t// in\n    tag_146:\n        /* \"contracts/HMOR.sol\":26842:26890  ApprovalForAll(_msgSender(), operator, approved) */\n      0xffffffffffffffffffffffffffffffffffffffff\n      and\n      0x17307eab39ab6107e8899845ad3d59bd9653f200f220920489ca2b5937696c31\n        /* \"contracts/HMOR.sol\":26881:26889  approved */\n      dup4\n        /* \"contracts/HMOR.sol\":26842:26890  ApprovalForAll(_msgSender(), operator, approved) */\n      mload(0x40)\n      dup1\n      dup3\n      iszero\n      iszero\n      dup2\n      mstore\n      0x20\n      add\n      swap2\n      pop\n      pop\n      mload(0x40)\n      dup1\n      swap2\n      sub\n      swap1\n      log3\n        /* \"contracts/HMOR.sol\":26591:26897  function setApprovalForAll(address operator, bool approved) public virtual override {... */\n      pop\n      pop\n      jump\t// out\n        /* \"contracts/HMOR.sol\":36971:37011  uint256 public constant THORS_HAMMER = 2 */\n    tag_73:\n        /* \"contracts/HMOR.sol\":37010:37011  2 */\n      0x02\n        /* \"contracts/HMOR.sol\":36971:37011  uint256 public constant THORS_HAMMER = 2 */\n      dup2\n      jump\t// out\n        /* \"contracts/HMOR.sol\":36931:36965  uint256 public constant SILVER = 1 */\n    tag_75:\n        /* \"contracts/HMOR.sol\":36964:36965  1 */\n      0x01\n        /* \"contracts/HMOR.sol\":36931:36965  uint256 public constant SILVER = 1 */\n      dup2\n      jump\t// out\n        /* \"contracts/HMOR.sol\":26964:27122  function isApprovedForAll(address account, address operator) public view override returns (bool) {... */\n    tag_78:\n        /* \"contracts/HMOR.sol\":27055:27059  bool */\n      0x00\n        /* \"contracts/HMOR.sol\":27078:27096  _operatorApprovals */\n      0x02\n        /* \"contracts/HMOR.sol\":27078:27105  _operatorApprovals[account] */\n      0x00\n        /* \"contracts/HMOR.sol\":27097:27104  account */\n      dup5\n        /* \"contracts/HMOR.sol\":27078:27105  _operatorApprovals[account] */\n      0xffffffffffffffffffffffffffffffffffffffff\n      and\n      0xffffffffffffffffffffffffffffffffffffffff\n      and\n      dup2\n      mstore\n      0x20\n      add\n      swap1\n      dup2\n      mstore\n      0x20\n      add\n      0x00\n      keccak256\n        /* \"contracts/HMOR.sol\":27078:27115  _operatorApprovals[account][operator] */\n      0x00\n        /* \"contracts/HMOR.sol\":27106:27114  operator */\n      dup4\n        /* \"contracts/HMOR.sol\":27078:27115  _operatorApprovals[account][operator] */\n      0xffffffffffffffffffffffffffffffffffffffff\n      and\n      0xffffffffffffffffffffffffffffffffffffffff\n      and\n      dup2\n      mstore\n      0x20\n      add\n      swap1\n      dup2\n      mstore\n      0x20\n      add\n      0x00\n      keccak256\n      0x00\n      swap1\n      sload\n      swap1\n      0x0100\n      exp\n      swap1\n      div\n      0xff\n      and\n        /* \"contracts/HMOR.sol\":27071:27115  return _operatorApprovals[account][operator] */\n      swap1\n      pop\n        /* \"contracts/HMOR.sol\":26964:27122  function isApprovedForAll(address account, address operator) public view override returns (bool) {... */\n      swap3\n      swap2\n      pop\n      pop\n      jump\t// out\n        /* \"contracts/HMOR.sol\":27189:28086  function safeTransferFrom(... */\n    tag_84:\n        /* \"contracts/HMOR.sol\":27418:27419  0 */\n      0x00\n        /* \"contracts/HMOR.sol\":27404:27420  to != address(0) */\n      0xffffffffffffffffffffffffffffffffffffffff\n      and\n        /* \"contracts/HMOR.sol\":27404:27406  to */\n      dup5\n        /* \"contracts/HMOR.sol\":27404:27420  to != address(0) */\n      0xffffffffffffffffffffffffffffffffffffffff\n      and\n      eq\n      iszero\n        /* \"contracts/HMOR.sol\":27396:27462  require(to != address(0), \"ERC1155: transfer to the zero address\") */\n      tag_149\n      jumpi\n      mload(0x40)\n      0x08c379a000000000000000000000000000000000000000000000000000000000\n      dup2\n      mstore\n      0x04\n      add\n      dup1\n      dup1\n      0x20\n      add\n      dup3\n      dup2\n      sub\n      dup3\n      mstore\n      0x25\n      dup2\n      mstore\n      0x20\n      add\n      dup1\n      data_6faf1c67f278b07c6771dcf4c315a89c21c0eaed11d9ab3d51774da1cfef545d\n      0x25\n      swap2\n      codecopy\n      0x40\n      add\n      swap2\n      pop\n      pop\n      mload(0x40)\n      dup1\n      swap2\n      sub\n      swap1\n      revert\n    tag_149:\n        /* \"contracts/HMOR.sol\":27501:27513  _msgSender() */\n      tag_150\n        /* \"contracts/HMOR.sol\":27501:27511  _msgSender */\n      tag_101\n        /* \"contracts/HMOR.sol\":27501:27513  _msgSender() */\n      jump\t// in\n    tag_150:\n        /* \"contracts/HMOR.sol\":27493:27513  from == _msgSender() */\n      0xffffffffffffffffffffffffffffffffffffffff\n      and\n        /* \"contracts/HMOR.sol\":27493:27497  from */\n      dup6\n        /* \"contracts/HMOR.sol\":27493:27513  from == _msgSender() */\n      0xffffffffffffffffffffffffffffffffffffffff\n      and\n      eq\n        /* \"contracts/HMOR.sol\":27493:27553  from == _msgSender() || isApprovedForAll(from, _msgSender()) */\n      dup1\n      tag_151\n      jumpi\n      pop\n        /* \"contracts/HMOR.sol\":27517:27553  isApprovedForAll(from, _msgSender()) */\n      tag_152\n        /* \"contracts/HMOR.sol\":27534:27538  from */\n      dup6\n        /* \"contracts/HMOR.sol\":27540:27552  _msgSender() */\n      tag_153\n        /* \"contracts/HMOR.sol\":27540:27550  _msgSender */\n      tag_101\n        /* \"contracts/HMOR.sol\":27540:27552  _msgSender() */\n      jump\t// in\n    tag_153:\n        /* \"contracts/HMOR.sol\":27517:27533  isApprovedForAll */\n      tag_78\n        /* \"contracts/HMOR.sol\":27517:27553  isApprovedForAll(from, _msgSender()) */\n      jump\t// in\n    tag_152:\n        /* \"contracts/HMOR.sol\":27493:27553  from == _msgSender() || isApprovedForAll(from, _msgSender()) */\n    tag_151:\n        /* \"contracts/HMOR.sol\":27472:27620  require(... */\n      tag_154\n      jumpi\n      mload(0x40)\n      0x08c379a000000000000000000000000000000000000000000000000000000000\n      dup2\n      mstore\n      0x04\n      add\n      dup1\n      dup1\n      0x20\n      add\n      dup3\n      dup2\n      sub\n      dup3\n      mstore\n      0x29\n      dup2\n      mstore\n      0x20\n      add\n      dup1\n      data_394ac917f53b95ee25db2a5da5874c5b1f0af95a4fdf34992ff8b19c458f239a\n      0x29\n      swap2\n      codecopy\n      0x40\n      add\n      swap2\n      pop\n      pop\n      mload(0x40)\n      dup1\n      swap2\n      sub\n      swap1\n      revert\n    tag_154:\n        /* \"contracts/HMOR.sol\":27631:27647  address operator */\n      0x00\n        /* \"contracts/HMOR.sol\":27650:27662  _msgSender() */\n      tag_155\n        /* \"contracts/HMOR.sol\":27650:27660  _msgSender */\n      tag_101\n        /* \"contracts/HMOR.sol\":27650:27662  _msgSender() */\n      jump\t// in\n    tag_155:\n        /* \"contracts/HMOR.sol\":27631:27662  address operator = _msgSender() */\n      swap1\n      pop\n        /* \"contracts/HMOR.sol\":27673:27769  _beforeTokenTransfer(operator, from, to, _asSingletonArray(id), _asSingletonArray(amount), data) */\n      tag_156\n        /* \"contracts/HMOR.sol\":27694:27702  operator */\n      dup2\n        /* \"contracts/HMOR.sol\":27704:27708  from */\n      dup8\n        /* \"contracts/HMOR.sol\":27710:27712  to */\n      dup8\n        /* \"contracts/HMOR.sol\":27714:27735  _asSingletonArray(id) */\n      tag_157\n        /* \"contracts/HMOR.sol\":27732:27734  id */\n      dup9\n        /* \"contracts/HMOR.sol\":27714:27731  _asSingletonArray */\n      tag_158\n        /* \"contracts/HMOR.sol\":27714:27735  _asSingletonArray(id) */\n      jump\t// in\n    tag_157:\n        /* \"contracts/HMOR.sol\":27737:27762  _asSingletonArray(amount) */\n      tag_159\n        /* \"contracts/HMOR.sol\":27755:27761  amount */\n      dup9\n        /* \"contracts/HMOR.sol\":27737:27754  _asSingletonArray */\n      tag_158\n        /* \"contracts/HMOR.sol\":27737:27762  _asSingletonArray(amount) */\n      jump\t// in\n    tag_159:\n        /* \"contracts/HMOR.sol\":27764:27768  data */\n      dup8\n        /* \"contracts/HMOR.sol\":27673:27693  _beforeTokenTransfer */\n      tag_108\n        /* \"contracts/HMOR.sol\":27673:27769  _beforeTokenTransfer(operator, from, to, _asSingletonArray(id), _asSingletonArray(amount), data) */\n      jump\t// in\n    tag_156:\n        /* \"contracts/HMOR.sol\":27802:27879  _balances[id][from].sub(amount, \"ERC1155: insufficient balance for transfer\") */\n      tag_160\n        /* \"contracts/HMOR.sol\":27826:27832  amount */\n      dup4\n        /* \"contracts/HMOR.sol\":27802:27879  _balances[id][from].sub(amount, \"ERC1155: insufficient balance for transfer\") */\n      mload(0x40)\n      dup1\n      0x60\n      add\n      0x40\n      mstore\n      dup1\n      0x2a\n      dup2\n      mstore\n      0x20\n      add\n      data_8ac7e9556b567c1c94bb4daaa3c3a65be5ac686579615210cb910fb8cb8d65bf\n      0x2a\n      swap2\n      codecopy\n        /* \"contracts/HMOR.sol\":27802:27811  _balances */\n      0x01\n        /* \"contracts/HMOR.sol\":27802:27815  _balances[id] */\n      0x00\n        /* \"contracts/HMOR.sol\":27812:27814  id */\n      dup9\n        /* \"contracts/HMOR.sol\":27802:27815  _balances[id] */\n      dup2\n      mstore\n      0x20\n      add\n      swap1\n      dup2\n      mstore\n      0x20\n      add\n      0x00\n      keccak256\n        /* \"contracts/HMOR.sol\":27802:27821  _balances[id][from] */\n      0x00\n        /* \"contracts/HMOR.sol\":27816:27820  from */\n      dup11\n        /* \"contracts/HMOR.sol\":27802:27821  _balances[id][from] */\n      0xffffffffffffffffffffffffffffffffffffffff\n      and\n      0xffffffffffffffffffffffffffffffffffffffff\n      and\n      dup2\n      mstore\n      0x20\n      add\n      swap1\n      dup2\n      mstore\n      0x20\n      add\n      0x00\n      keccak256\n      sload\n        /* \"contracts/HMOR.sol\":27802:27825  _balances[id][from].sub */\n      tag_115\n      swap1\n        /* \"contracts/HMOR.sol\":27802:27879  _balances[id][from].sub(amount, \"ERC1155: insufficient balance for transfer\") */\n      swap3\n      swap2\n      swap1\n      0xffffffff\n      and\n      jump\t// in\n    tag_160:\n        /* \"contracts/HMOR.sol\":27780:27789  _balances */\n      0x01\n        /* \"contracts/HMOR.sol\":27780:27793  _balances[id] */\n      0x00\n        /* \"contracts/HMOR.sol\":27790:27792  id */\n      dup7\n        /* \"contracts/HMOR.sol\":27780:27793  _balances[id] */\n      dup2\n      mstore\n      0x20\n      add\n      swap1\n      dup2\n      mstore\n      0x20\n      add\n      0x00\n      keccak256\n        /* \"contracts/HMOR.sol\":27780:27799  _balances[id][from] */\n      0x00\n        /* \"contracts/HMOR.sol\":27794:27798  from */\n      dup9\n        /* \"contracts/HMOR.sol\":27780:27799  _balances[id][from] */\n      0xffffffffffffffffffffffffffffffffffffffff\n      and\n      0xffffffffffffffffffffffffffffffffffffffff\n      and\n      dup2\n      mstore\n      0x20\n      add\n      swap1\n      dup2\n      mstore\n      0x20\n      add\n      0x00\n      keccak256\n        /* \"contracts/HMOR.sol\":27780:27879  _balances[id][from] = _balances[id][from].sub(amount, \"ERC1155: insufficient balance for transfer\") */\n      dup2\n      swap1\n      sstore\n      pop\n        /* \"contracts/HMOR.sol\":27909:27938  _balances[id][to].add(amount) */\n      tag_161\n        /* \"contracts/HMOR.sol\":27931:27937  amount */\n      dup4\n        /* \"contracts/HMOR.sol\":27909:27918  _balances */\n      0x01\n        /* \"contracts/HMOR.sol\":27909:27922  _balances[id] */\n      0x00\n        /* \"contracts/HMOR.sol\":27919:27921  id */\n      dup8\n        /* \"contracts/HMOR.sol\":27909:27922  _balances[id] */\n      dup2\n      mstore\n      0x20\n      add\n      swap1\n      dup2\n      mstore\n      0x20\n      add\n      0x00\n      keccak256\n        /* \"contracts/HMOR.sol\":27909:27926  _balances[id][to] */\n      0x00\n        /* \"contracts/HMOR.sol\":27923:27925  to */\n      dup9\n        /* \"contracts/HMOR.sol\":27909:27926  _balances[id][to] */\n      0xffffffffffffffffffffffffffffffffffffffff\n      and\n      0xffffffffffffffffffffffffffffffffffffffff\n      and\n      dup2\n      mstore\n      0x20\n      add\n      swap1\n      dup2\n      mstore\n      0x20\n      add\n      0x00\n      keccak256\n      sload\n        /* \"contracts/HMOR.sol\":27909:27930  _balances[id][to].add */\n      tag_88\n      swap1\n        /* \"contracts/HMOR.sol\":27909:27938  _balances[id][to].add(amount) */\n      swap2\n      swap1\n      0xffffffff\n      and\n      jump\t// in\n    tag_161:\n        /* \"contracts/HMOR.sol\":27889:27898  _balances */\n      0x01\n        /* \"contracts/HMOR.sol\":27889:27902  _balances[id] */\n      0x00\n        /* \"contracts/HMOR.sol\":27899:27901  id */\n      dup7\n        /* \"contracts/HMOR.sol\":27889:27902  _balances[id] */\n      dup2\n      mstore\n      0x20\n      add\n      swap1\n      dup2\n      mstore\n      0x20\n      add\n      0x00\n      keccak256\n        /* \"contracts/HMOR.sol\":27889:27906  _balances[id][to] */\n      0x00\n        /* \"contracts/HMOR.sol\":27903:27905  to */\n      dup8\n        /* \"contracts/HMOR.sol\":27889:27906  _balances[id][to] */\n      0xffffffffffffffffffffffffffffffffffffffff\n      and\n      0xffffffffffffffffffffffffffffffffffffffff\n      and\n      dup2\n      mstore\n      0x20\n      add\n      swap1\n      dup2\n      mstore\n      0x20\n      add\n      0x00\n      keccak256\n        /* \"contracts/HMOR.sol\":27889:27938  _balances[id][to] = _balances[id][to].add(amount) */\n      dup2\n      swap1\n      sstore\n      pop\n        /* \"contracts/HMOR.sol\":27985:27987  to */\n      dup5\n        /* \"contracts/HMOR.sol\":27954:28000  TransferSingle(operator, from, to, id, amount) */\n      0xffffffffffffffffffffffffffffffffffffffff\n      and\n        /* \"contracts/HMOR.sol\":27979:27983  from */\n      dup7\n        /* \"contracts/HMOR.sol\":27954:28000  TransferSingle(operator, from, to, id, amount) */\n      0xffffffffffffffffffffffffffffffffffffffff\n      and\n        /* \"contracts/HMOR.sol\":27969:27977  operator */\n      dup3\n        /* \"contracts/HMOR.sol\":27954:28000  TransferSingle(operator, from, to, id, amount) */\n      0xffffffffffffffffffffffffffffffffffffffff\n      and\n      0xc3d58168c5ae7397731d063d5bbf3d657854427343f4c083240f7aacaa2d0f62\n        /* \"contracts/HMOR.sol\":27989:27991  id */\n      dup8\n        /* \"contracts/HMOR.sol\":27993:27999  amount */\n      dup8\n        /* \"contracts/HMOR.sol\":27954:28000  TransferSingle(operator, from, to, id, amount) */\n      mload(0x40)\n      dup1\n      dup4\n      dup2\n      mstore\n      0x20\n      add\n      dup3\n      dup2\n      mstore\n      0x20\n      add\n      swap3\n      pop\n      pop\n      pop\n      mload(0x40)\n      dup1\n      swap2\n      sub\n      swap1\n      log4\n        /* \"contracts/HMOR.sol\":28011:28079  _doSafeTransferAcceptanceCheck(operator, from, to, id, amount, data) */\n      tag_162\n        /* \"contracts/HMOR.sol\":28042:28050  operator */\n      dup2\n        /* \"contracts/HMOR.sol\":28052:28056  from */\n      dup8\n        /* \"contracts/HMOR.sol\":28058:28060  to */\n      dup8\n        /* \"contracts/HMOR.sol\":28062:28064  id */\n      dup8\n        /* \"contracts/HMOR.sol\":28066:28072  amount */\n      dup8\n        /* \"contracts/HMOR.sol\":28074:28078  data */\n      dup8\n        /* \"contracts/HMOR.sol\":28011:28041  _doSafeTransferAcceptanceCheck */\n      tag_163\n        /* \"contracts/HMOR.sol\":28011:28079  _doSafeTransferAcceptanceCheck(operator, from, to, id, amount, data) */\n      jump\t// in\n    tag_162:\n        /* \"contracts/HMOR.sol\":27189:28086  function safeTransferFrom(... */\n      pop\n      pop\n      pop\n      pop\n      pop\n      pop\n      jump\t// out\n        /* \"contracts/HMOR.sol\":22631:22871  function transferOwnership(address newOwner) public virtual onlyOwner {... */\n    tag_87:\n        /* \"contracts/HMOR.sol\":21928:21940  _msgSender() */\n      tag_165\n        /* \"contracts/HMOR.sol\":21928:21938  _msgSender */\n      tag_101\n        /* \"contracts/HMOR.sol\":21928:21940  _msgSender() */\n      jump\t// in\n    tag_165:\n        /* \"contracts/HMOR.sol\":21918:21940  _owner == _msgSender() */\n      0xffffffffffffffffffffffffffffffffffffffff\n      and\n        /* \"contracts/HMOR.sol\":21918:21924  _owner */\n      0x04\n      0x00\n      swap1\n      sload\n      swap1\n      0x0100\n      exp\n      swap1\n      div\n      0xffffffffffffffffffffffffffffffffffffffff\n      and\n        /* \"contracts/HMOR.sol\":21918:21940  _owner == _msgSender() */\n      0xffffffffffffffffffffffffffffffffffffffff\n      and\n      eq\n        /* \"contracts/HMOR.sol\":21910:21977  require(_owner == _msgSender(), \"Ownable: caller is not the owner\") */\n      tag_166\n      jumpi\n      mload(0x40)\n      0x08c379a000000000000000000000000000000000000000000000000000000000\n      dup2\n      mstore\n      0x04\n      add\n      dup1\n      dup1\n      0x20\n      add\n      dup3\n      dup2\n      sub\n      dup3\n      mstore\n      0x20\n      dup2\n      mstore\n      0x20\n      add\n      dup1\n      0x4f776e61626c653a2063616c6c6572206973206e6f7420746865206f776e6572\n      dup2\n      mstore\n      pop\n      0x20\n      add\n      swap2\n      pop\n      pop\n      mload(0x40)\n      dup1\n      swap2\n      sub\n      swap1\n      revert\n    tag_166:\n        /* \"contracts/HMOR.sol\":22739:22740  0 */\n      0x00\n        /* \"contracts/HMOR.sol\":22719:22741  newOwner != address(0) */\n      0xffffffffffffffffffffffffffffffffffffffff\n      and\n        /* \"contracts/HMOR.sol\":22719:22727  newOwner */\n      dup2\n        /* \"contracts/HMOR.sol\":22719:22741  newOwner != address(0) */\n      0xffffffffffffffffffffffffffffffffffffffff\n      and\n      eq\n      iszero\n        /* \"contracts/HMOR.sol\":22711:22784  require(newOwner != address(0), \"Ownable: new owner is the zero address\") */\n      tag_168\n      jumpi\n      mload(0x40)\n      0x08c379a000000000000000000000000000000000000000000000000000000000\n      dup2\n      mstore\n      0x04\n      add\n      dup1\n      dup1\n      0x20\n      add\n      dup3\n      dup2\n      sub\n      dup3\n      mstore\n      0x26\n      dup2\n      mstore\n      0x20\n      add\n      dup1\n      data_245f15ff17f551913a7a18385165551503906a406f905ac1c2437281a7cd0cfe\n      0x26\n      swap2\n      codecopy\n      0x40\n      add\n      swap2\n      pop\n      pop\n      mload(0x40)\n      dup1\n      swap2\n      sub\n      swap1\n      revert\n    tag_168:\n        /* \"contracts/HMOR.sol\":22828:22836  newOwner */\n      dup1\n        /* \"contracts/HMOR.sol\":22799:22837  OwnershipTransferred(_owner, newOwner) */\n      0xffffffffffffffffffffffffffffffffffffffff\n      and\n        /* \"contracts/HMOR.sol\":22820:22826  _owner */\n      0x04\n      0x00\n      swap1\n      sload\n      swap1\n      0x0100\n      exp\n      swap1\n      div\n      0xffffffffffffffffffffffffffffffffffffffff\n      and\n        /* \"contracts/HMOR.sol\":22799:22837  OwnershipTransferred(_owner, newOwner) */\n      0xffffffffffffffffffffffffffffffffffffffff\n      and\n      0x8be0079c531659141344cd1fd0a4f28419497f9722a3daafe3b4186f6b6457e0\n      mload(0x40)\n      mload(0x40)\n      dup1\n      swap2\n      sub\n      swap1\n      log3\n        /* \"contracts/HMOR.sol\":22856:22864  newOwner */\n      dup1\n        /* \"contracts/HMOR.sol\":22847:22853  _owner */\n      0x04\n      0x00\n        /* \"contracts/HMOR.sol\":22847:22864  _owner = newOwner */\n      0x0100\n      exp\n      dup2\n      sload\n      dup2\n      0xffffffffffffffffffffffffffffffffffffffff\n      mul\n      not\n      and\n      swap1\n      dup4\n      0xffffffffffffffffffffffffffffffffffffffff\n      and\n      mul\n      or\n      swap1\n      sstore\n      pop\n        /* \"contracts/HMOR.sol\":22631:22871  function transferOwnership(address newOwner) public virtual onlyOwner {... */\n      pop\n      jump\t// out\n        /* \"contracts/HMOR.sol\":10888:11064  function add(uint256 a, uint256 b) internal pure returns (uint256) {... */\n    tag_88:\n        /* \"contracts/HMOR.sol\":10946:10953  uint256 */\n      0x00\n        /* \"contracts/HMOR.sol\":10965:10974  uint256 c */\n      dup1\n        /* \"contracts/HMOR.sol\":10981:10982  b */\n      dup3\n        /* \"contracts/HMOR.sol\":10977:10978  a */\n      dup5\n        /* \"contracts/HMOR.sol\":10977:10982  a + b */\n      add\n        /* \"contracts/HMOR.sol\":10965:10982  uint256 c = a + b */\n      swap1\n      pop\n        /* \"contracts/HMOR.sol\":11005:11006  a */\n      dup4\n        /* \"contracts/HMOR.sol\":11000:11001  c */\n      dup2\n        /* \"contracts/HMOR.sol\":11000:11006  c >= a */\n      lt\n      iszero\n        /* \"contracts/HMOR.sol\":10992:11038  require(c >= a, \"SafeMath: addition overflow\") */\n      tag_170\n      jumpi\n      mload(0x40)\n      0x08c379a000000000000000000000000000000000000000000000000000000000\n      dup2\n      mstore\n      0x04\n      add\n      dup1\n      dup1\n      0x20\n      add\n      dup3\n      dup2\n      sub\n      dup3\n      mstore\n      0x1b\n      dup2\n      mstore\n      0x20\n      add\n      dup1\n      0x536166654d6174683a206164646974696f6e206f766572666c6f770000000000\n      dup2\n      mstore\n      pop\n      0x20\n      add\n      swap2\n      pop\n      pop\n      mload(0x40)\n      dup1\n      swap2\n      sub\n      swap1\n      revert\n    tag_170:\n        /* \"contracts/HMOR.sol\":11056:11057  c */\n      dup1\n        /* \"contracts/HMOR.sol\":11049:11057  return c */\n      swap2\n      pop\n      pop\n        /* \"contracts/HMOR.sol\":10888:11064  function add(uint256 a, uint256 b) internal pure returns (uint256) {... */\n      swap3\n      swap2\n      pop\n      pop\n      jump\t// out\n        /* \"contracts/HMOR.sol\":15877:16487  function isContract(address account) internal view returns (bool) {... */\n    tag_89:\n        /* \"contracts/HMOR.sol\":15937:15941  bool */\n      0x00\n        /* \"contracts/HMOR.sol\":16195:16211  bytes32 codehash */\n      dup1\n        /* \"contracts/HMOR.sol\":16221:16240  bytes32 accountHash */\n      0x00\n        /* \"contracts/HMOR.sol\":16243:16309  0xc5d2460186f7233c927e7db2dcc703c0e500b653ca82273b7bfad8045d85a470 */\n      0xc5d2460186f7233c927e7db2dcc703c0e500b653ca82273b7bfad8045d85a470\n        /* \"contracts/HMOR.sol\":16221:16309  bytes32 accountHash = 0xc5d2460186f7233c927e7db2dcc703c0e500b653ca82273b7bfad8045d85a470 */\n      0x00\n      shl\n      swap1\n      pop\n        /* \"contracts/HMOR.sol\":16410:16417  account */\n      dup4\n        /* \"contracts/HMOR.sol\":16398:16418  extcodehash(account) */\n      extcodehash\n        /* \"contracts/HMOR.sol\":16386:16418  codehash := extcodehash(account) */\n      swap2\n      pop\n        /* \"contracts/HMOR.sol\":16449:16460  accountHash */\n      dup1\n        /* \"contracts/HMOR.sol\":16437:16445  codehash */\n      dup3\n        /* \"contracts/HMOR.sol\":16437:16460  codehash != accountHash */\n      eq\n      iszero\n        /* \"contracts/HMOR.sol\":16437:16479  codehash != accountHash && codehash != 0x0 */\n      dup1\n      iszero\n      tag_172\n      jumpi\n      pop\n        /* \"contracts/HMOR.sol\":16476:16479  0x0 */\n      0x00\n        /* \"contracts/HMOR.sol\":16464:16479  codehash != 0x0 */\n      dup1\n      shl\n        /* \"contracts/HMOR.sol\":16464:16472  codehash */\n      dup3\n        /* \"contracts/HMOR.sol\":16464:16479  codehash != 0x0 */\n      eq\n      iszero\n        /* \"contracts/HMOR.sol\":16437:16479  codehash != accountHash && codehash != 0x0 */\n    tag_172:\n        /* \"contracts/HMOR.sol\":16429:16480  return (codehash != accountHash && codehash != 0x0) */\n      swap3\n      pop\n      pop\n      pop\n        /* \"contracts/HMOR.sol\":15877:16487  function isContract(address account) internal view returns (bool) {... */\n      swap2\n      swap1\n      pop\n      jump\t// out\n        /* \"contracts/HMOR.sol\":9727:9831  function _msgSender() internal view virtual returns (address payable) {... */\n    tag_101:\n        /* \"contracts/HMOR.sol\":9780:9795  address payable */\n      0x00\n        /* \"contracts/HMOR.sol\":9814:9824  msg.sender */\n      caller\n        /* \"contracts/HMOR.sol\":9807:9824  return msg.sender */\n      swap1\n      pop\n        /* \"contracts/HMOR.sol\":9727:9831  function _msgSender() internal view virtual returns (address payable) {... */\n      swap1\n      jump\t// out\n        /* \"contracts/HMOR.sol\":34871:35098  function _beforeTokenTransfer(... */\n    tag_108:\n      pop\n      pop\n      pop\n      pop\n      pop\n      pop\n      jump\t// out\n        /* \"contracts/HMOR.sol\":11760:11947  function sub(uint256 a, uint256 b, string memory errorMessage) internal pure returns (uint256) {... */\n    tag_115:\n        /* \"contracts/HMOR.sol\":11846:11853  uint256 */\n      0x00\n        /* \"contracts/HMOR.sol\":11878:11879  a */\n      dup4\n        /* \"contracts/HMOR.sol\":11873:11874  b */\n      dup4\n        /* \"contracts/HMOR.sol\":11873:11879  b <= a */\n      gt\n      iszero\n        /* \"contracts/HMOR.sol\":11881:11893  errorMessage */\n      dup3\n        /* \"contracts/HMOR.sol\":11865:11894  require(b <= a, errorMessage) */\n      swap1\n      tag_176\n      jumpi\n      mload(0x40)\n      0x08c379a000000000000000000000000000000000000000000000000000000000\n      dup2\n      mstore\n      0x04\n      add\n      dup1\n      dup1\n      0x20\n      add\n      dup3\n      dup2\n      sub\n      dup3\n      mstore\n      dup4\n      dup2\n      dup2\n      mload\n      dup2\n      mstore\n      0x20\n      add\n      swap2\n      pop\n      dup1\n      mload\n      swap1\n      0x20\n      add\n      swap1\n      dup1\n      dup4\n      dup4\n      0x00\n    tag_177:\n      dup4\n      dup2\n      lt\n      iszero\n      tag_179\n      jumpi\n      dup1\n      dup3\n      add\n      mload\n      dup2\n      dup5\n      add\n      mstore\n      0x20\n      dup2\n      add\n      swap1\n      pop\n      jump(tag_177)\n    tag_179:\n      pop\n      pop\n      pop\n      pop\n      swap1\n      pop\n      swap1\n      dup2\n      add\n      swap1\n      0x1f\n      and\n      dup1\n      iszero\n      tag_180\n      jumpi\n      dup1\n      dup3\n      sub\n      dup1\n      mload\n      0x01\n      dup4\n      0x20\n      sub\n      0x0100\n      exp\n      sub\n      not\n      and\n      dup2\n      mstore\n      0x20\n      add\n      swap2\n      pop\n    tag_180:\n      pop\n      swap3\n      pop\n      pop\n      pop\n      mload(0x40)\n      dup1\n      swap2\n      sub\n      swap1\n      revert\n    tag_176:\n      pop\n        /* \"contracts/HMOR.sol\":11904:11913  uint256 c */\n      0x00\n        /* \"contracts/HMOR.sol\":11920:11921  b */\n      dup4\n        /* \"contracts/HMOR.sol\":11916:11917  a */\n      dup6\n        /* \"contracts/HMOR.sol\":11916:11921  a - b */\n      sub\n        /* \"contracts/HMOR.sol\":11904:11921  uint256 c = a - b */\n      swap1\n      pop\n        /* \"contracts/HMOR.sol\":11939:11940  c */\n      dup1\n        /* \"contracts/HMOR.sol\":11932:11940  return c */\n      swap2\n      pop\n      pop\n        /* \"contracts/HMOR.sol\":11760:11947  function sub(uint256 a, uint256 b, string memory errorMessage) internal pure returns (uint256) {... */\n      swap4\n      swap3\n      pop\n      pop\n      pop\n      jump\t// out\n        /* \"contracts/HMOR.sol\":35851:36629  function _doSafeBatchTransferAcceptanceCheck(... */\n    tag_124:\n        /* \"contracts/HMOR.sol\":36095:36110  to.isContract() */\n      tag_182\n        /* \"contracts/HMOR.sol\":36095:36097  to */\n      dup5\n        /* \"contracts/HMOR.sol\":36095:36108  to.isContract */\n      0xffffffffffffffffffffffffffffffffffffffff\n      and\n      tag_89\n        /* \"contracts/HMOR.sol\":36095:36110  to.isContract() */\n      jump\t// in\n    tag_182:\n        /* \"contracts/HMOR.sol\":36091:36623  if (to.isContract()) {... */\n      iszero\n      tag_183\n      jumpi\n        /* \"contracts/HMOR.sol\":36147:36149  to */\n      dup4\n        /* \"contracts/HMOR.sol\":36130:36173  IERC1155Receiver(to).onERC1155BatchReceived */\n      0xffffffffffffffffffffffffffffffffffffffff\n      and\n      0xbc197c81\n        /* \"contracts/HMOR.sol\":36174:36182  operator */\n      dup8\n        /* \"contracts/HMOR.sol\":36184:36188  from */\n      dup8\n        /* \"contracts/HMOR.sol\":36190:36193  ids */\n      dup7\n        /* \"contracts/HMOR.sol\":36195:36202  amounts */\n      dup7\n        /* \"contracts/HMOR.sol\":36204:36208  data */\n      dup7\n        /* \"contracts/HMOR.sol\":36130:36209  IERC1155Receiver(to).onERC1155BatchReceived(operator, from, ids, amounts, data) */\n      mload(0x40)\n      dup7\n      0xffffffff\n      and\n      0xe0\n      shl\n      dup2\n      mstore\n      0x04\n      add\n      dup1\n      dup7\n      0xffffffffffffffffffffffffffffffffffffffff\n      and\n      dup2\n      mstore\n      0x20\n      add\n      dup6\n      0xffffffffffffffffffffffffffffffffffffffff\n      and\n      dup2\n      mstore\n      0x20\n      add\n      dup1\n      0x20\n      add\n      dup1\n      0x20\n      add\n      dup1\n      0x20\n      add\n      dup5\n      dup2\n      sub\n      dup5\n      mstore\n      dup8\n      dup2\n      dup2\n      mload\n      dup2\n      mstore\n      0x20\n      add\n      swap2\n      pop\n      dup1\n      mload\n      swap1\n      0x20\n      add\n      swap1\n      0x20\n      mul\n      dup1\n      dup4\n      dup4\n      0x00\n    tag_184:\n      dup4\n      dup2\n      lt\n      iszero\n      tag_186\n      jumpi\n      dup1\n      dup3\n      add\n      mload\n      dup2\n      dup5\n      add\n      mstore\n      0x20\n      dup2\n      add\n      swap1\n      pop\n      jump(tag_184)\n    tag_186:\n      pop\n      pop\n      pop\n      pop\n      swap1\n      pop\n      add\n      dup5\n      dup2\n      sub\n      dup4\n      mstore\n      dup7\n      dup2\n      dup2\n      mload\n      dup2\n      mstore\n      0x20\n      add\n      swap2\n      pop\n      dup1\n      mload\n      swap1\n      0x20\n      add\n      swap1\n      0x20\n      mul\n      dup1\n      dup4\n      dup4\n      0x00\n    tag_187:\n      dup4\n      dup2\n      lt\n      iszero\n      tag_189\n      jumpi\n      dup1\n      dup3\n      add\n      mload\n      dup2\n      dup5\n      add\n      mstore\n      0x20\n      dup2\n      add\n      swap1\n      pop\n      jump(tag_187)\n    tag_189:\n      pop\n      pop\n      pop\n      pop\n      swap1\n      pop\n      add\n      dup5\n      dup2\n      sub\n      dup3\n      mstore\n      dup6\n      dup2\n      dup2\n      mload\n      dup2\n      mstore\n      0x20\n      add\n      swap2\n      pop\n      dup1\n      mload\n      swap1\n      0x20\n      add\n      swap1\n      dup1\n      dup4\n      dup4\n      0x00\n    tag_190:\n      dup4\n      dup2\n      lt\n      iszero\n      tag_192\n      jumpi\n      dup1\n      dup3\n      add\n      mload\n      dup2\n      dup5\n      add\n      mstore\n      0x20\n      dup2\n      add\n      swap1\n      pop\n      jump(tag_190)\n    tag_192:\n      pop\n      pop\n      pop\n      pop\n      swap1\n      pop\n      swap1\n      dup2\n      add\n      swap1\n      0x1f\n      and\n      dup1\n      iszero\n      tag_193\n      jumpi\n      dup1\n      dup3\n      sub\n      dup1\n      mload\n      0x01\n      dup4\n      0x20\n      sub\n      0x0100\n      exp\n      sub\n      not\n      and\n      dup2\n      mstore\n      0x20\n      add\n      swap2\n      pop\n    tag_193:\n      pop\n      swap9\n      pop\n      pop\n      pop\n      pop\n      pop\n      pop\n      pop\n      pop\n      pop\n      0x20\n      mload(0x40)\n      dup1\n      dup4\n      sub\n      dup2\n      0x00\n      dup8\n      dup1\n      extcodesize\n      iszero\n      dup1\n      iszero\n      tag_194\n      jumpi\n      0x00\n      dup1\n      revert\n    tag_194:\n      pop\n      gas\n      call\n      swap3\n      pop\n      pop\n      pop\n      dup1\n      iszero\n      tag_195\n      jumpi\n      pop\n      mload(0x40)\n      returndatasize\n      0x20\n      dup2\n      lt\n      iszero\n      tag_196\n      jumpi\n      0x00\n      dup1\n      revert\n    tag_196:\n      dup2\n      add\n      swap1\n      dup1\n      dup1\n      mload\n      swap1\n      0x20\n      add\n      swap1\n      swap3\n      swap2\n      swap1\n      pop\n      pop\n      pop\n      0x01\n    tag_195:\n        /* \"contracts/HMOR.sol\":36126:36613  try IERC1155Receiver(to).onERC1155BatchReceived(operator, from, ids, amounts, data) returns (bytes4 response) {... */\n      tag_197\n      jumpi\n      tag_200\n      tag_201\n      jump\t// in\n    tag_200:\n      dup1\n      tag_202\n      jumpi\n      pop\n      jump(tag_199)\n    tag_202:\n        /* \"contracts/HMOR.sol\":36489:36495  reason */\n      dup1\n        /* \"contracts/HMOR.sol\":36482:36496  revert(reason) */\n      mload(0x40)\n      0x08c379a000000000000000000000000000000000000000000000000000000000\n      dup2\n      mstore\n      0x04\n      add\n      dup1\n      dup1\n      0x20\n      add\n      dup3\n      dup2\n      sub\n      dup3\n      mstore\n      dup4\n      dup2\n      dup2\n      mload\n      dup2\n      mstore\n      0x20\n      add\n      swap2\n      pop\n      dup1\n      mload\n      swap1\n      0x20\n      add\n      swap1\n      dup1\n      dup4\n      dup4\n      0x00\n    tag_203:\n      dup4\n      dup2\n      lt\n      iszero\n      tag_205\n      jumpi\n      dup1\n      dup3\n      add\n      mload\n      dup2\n      dup5\n      add\n      mstore\n      0x20\n      dup2\n      add\n      swap1\n      pop\n      jump(tag_203)\n    tag_205:\n      pop\n      pop\n      pop\n      pop\n      swap1\n      pop\n      swap1\n      dup2\n      add\n      swap1\n      0x1f\n      and\n      dup1\n      iszero\n      tag_206\n      jumpi\n      dup1\n      dup3\n      sub\n      dup1\n      mload\n      0x01\n      dup4\n      0x20\n      sub\n      0x0100\n      exp\n      sub\n      not\n      and\n      dup2\n      mstore\n      0x20\n      add\n      swap2\n      pop\n    tag_206:\n      pop\n      swap3\n      pop\n      pop\n      pop\n      mload(0x40)\n      dup1\n      swap2\n      sub\n      swap1\n      revert\n        /* \"contracts/HMOR.sol\":36126:36613  try IERC1155Receiver(to).onERC1155BatchReceived(operator, from, ids, amounts, data) returns (bytes4 response) {... */\n    tag_199:\n        /* \"contracts/HMOR.sol\":36536:36598  revert(\"ERC1155: transfer to non ERC1155Receiver implementer\") */\n      mload(0x40)\n      0x08c379a000000000000000000000000000000000000000000000000000000000\n      dup2\n      mstore\n      0x04\n      add\n      dup1\n      dup1\n      0x20\n      add\n      dup3\n      dup2\n      sub\n      dup3\n      mstore\n      0x34\n      dup2\n      mstore\n      0x20\n      add\n      dup1\n      data_00aa752fb1526000e5241602affc3d70ef506da48a27ea57140102b439e655ed\n      0x34\n      swap2\n      codecopy\n      0x40\n      add\n      swap2\n      pop\n      pop\n      mload(0x40)\n      dup1\n      swap2\n      sub\n      swap1\n      revert\n        /* \"contracts/HMOR.sol\":36126:36613  try IERC1155Receiver(to).onERC1155BatchReceived(operator, from, ids, amounts, data) returns (bytes4 response) {... */\n    tag_197:\n        /* \"contracts/HMOR.sol\":36270:36322  IERC1155Receiver(to).onERC1155BatchReceived.selector */\n      shl(0xe0, 0xbc197c81)\n        /* \"contracts/HMOR.sol\":36258:36322  response != IERC1155Receiver(to).onERC1155BatchReceived.selector */\n      not(0xffffffffffffffffffffffffffffffffffffffffffffffffffffffff)\n      and\n        /* \"contracts/HMOR.sol\":36258:36266  response */\n      dup2\n        /* \"contracts/HMOR.sol\":36258:36322  response != IERC1155Receiver(to).onERC1155BatchReceived.selector */\n      not(0xffffffffffffffffffffffffffffffffffffffffffffffffffffffff)\n      and\n      eq\n        /* \"contracts/HMOR.sol\":36254:36415  if (response != IERC1155Receiver(to).onERC1155BatchReceived.selector) {... */\n      tag_208\n      jumpi\n        /* \"contracts/HMOR.sol\":36346:36396  revert(\"ERC1155: ERC1155Receiver rejected tokens\") */\n      mload(0x40)\n      0x08c379a000000000000000000000000000000000000000000000000000000000\n      dup2\n      mstore\n      0x04\n      add\n      dup1\n      dup1\n      0x20\n      add\n      dup3\n      dup2\n      sub\n      dup3\n      mstore\n      0x28\n      dup2\n      mstore\n      0x20\n      add\n      dup1\n      data_0587cccad73a80a7f013db13c596f4febc1968dc77e1d3589d5e7a509a3d6503\n      0x28\n      swap2\n      codecopy\n      0x40\n      add\n      swap2\n      pop\n      pop\n      mload(0x40)\n      dup1\n      swap2\n      sub\n      swap1\n      revert\n        /* \"contracts/HMOR.sol\":36254:36415  if (response != IERC1155Receiver(to).onERC1155BatchReceived.selector) {... */\n    tag_208:\n        /* \"contracts/HMOR.sol\":36210:36429  returns (bytes4 response) {... */\n      pop\n        /* \"contracts/HMOR.sol\":36091:36623  if (to.isContract()) {... */\n    tag_183:\n        /* \"contracts/HMOR.sol\":35851:36629  function _doSafeBatchTransferAcceptanceCheck(... */\n      pop\n      pop\n      pop\n      pop\n      pop\n      pop\n      jump\t// out\n        /* \"contracts/HMOR.sol\":36635:36828  function _asSingletonArray(uint256 element) private pure returns (uint256[] memory) {... */\n    tag_158:\n        /* \"contracts/HMOR.sol\":36701:36717  uint256[] memory */\n      0x60\n        /* \"contracts/HMOR.sol\":36729:36751  uint256[] memory array */\n      0x00\n        /* \"contracts/HMOR.sol\":36768:36769  1 */\n      0x01\n        /* \"contracts/HMOR.sol\":36754:36770  new uint256[](1) */\n      0xffffffffffffffff\n      dup2\n      gt\n      dup1\n      iszero\n      tag_210\n      jumpi\n      0x00\n      dup1\n      revert\n    tag_210:\n      pop\n      mload(0x40)\n      swap1\n      dup1\n      dup3\n      mstore\n      dup1\n      0x20\n      mul\n      0x20\n      add\n      dup3\n      add\n      0x40\n      mstore\n      dup1\n      iszero\n      tag_211\n      jumpi\n      dup2\n      0x20\n      add\n      0x20\n      dup3\n      mul\n      dup1\n      calldatasize\n      dup4\n      calldatacopy\n      dup1\n      dup3\n      add\n      swap2\n      pop\n      pop\n      swap1\n      pop\n    tag_211:\n      pop\n        /* \"contracts/HMOR.sol\":36729:36770  uint256[] memory array = new uint256[](1) */\n      swap1\n      pop\n        /* \"contracts/HMOR.sol\":36791:36798  element */\n      dup3\n        /* \"contracts/HMOR.sol\":36780:36785  array */\n      dup2\n        /* \"contracts/HMOR.sol\":36786:36787  0 */\n      0x00\n        /* \"contracts/HMOR.sol\":36780:36788  array[0] */\n      dup2\n      mload\n      dup2\n      lt\n      tag_212\n      jumpi\n      invalid\n    tag_212:\n      0x20\n      mul\n      0x20\n      add\n      add\n        /* \"contracts/HMOR.sol\":36780:36798  array[0] = element */\n      dup2\n      dup2\n      mstore\n      pop\n      pop\n        /* \"contracts/HMOR.sol\":36816:36821  array */\n      dup1\n        /* \"contracts/HMOR.sol\":36809:36821  return array */\n      swap2\n      pop\n      pop\n        /* \"contracts/HMOR.sol\":36635:36828  function _asSingletonArray(uint256 element) private pure returns (uint256[] memory) {... */\n      swap2\n      swap1\n      pop\n      jump\t// out\n        /* \"contracts/HMOR.sol\":35104:35845  function _doSafeTransferAcceptanceCheck(... */\n    tag_163:\n        /* \"contracts/HMOR.sol\":35323:35338  to.isContract() */\n      tag_214\n        /* \"contracts/HMOR.sol\":35323:35325  to */\n      dup5\n        /* \"contracts/HMOR.sol\":35323:35336  to.isContract */\n      0xffffffffffffffffffffffffffffffffffffffff\n      and\n      tag_89\n        /* \"contracts/HMOR.sol\":35323:35338  to.isContract() */\n      jump\t// in\n    tag_214:\n        /* \"contracts/HMOR.sol\":35319:35839  if (to.isContract()) {... */\n      iszero\n      tag_215\n      jumpi\n        /* \"contracts/HMOR.sol\":35375:35377  to */\n      dup4\n        /* \"contracts/HMOR.sol\":35358:35396  IERC1155Receiver(to).onERC1155Received */\n      0xffffffffffffffffffffffffffffffffffffffff\n      and\n      0xf23a6e61\n        /* \"contracts/HMOR.sol\":35397:35405  operator */\n      dup8\n        /* \"contracts/HMOR.sol\":35407:35411  from */\n      dup8\n        /* \"contracts/HMOR.sol\":35413:35415  id */\n      dup7\n        /* \"contracts/HMOR.sol\":35417:35423  amount */\n      dup7\n        /* \"contracts/HMOR.sol\":35425:35429  data */\n      dup7\n        /* \"contracts/HMOR.sol\":35358:35430  IERC1155Receiver(to).onERC1155Received(operator, from, id, amount, data) */\n      mload(0x40)\n      dup7\n      0xffffffff\n      and\n      0xe0\n      shl\n      dup2\n      mstore\n      0x04\n      add\n      dup1\n      dup7\n      0xffffffffffffffffffffffffffffffffffffffff\n      and\n      dup2\n      mstore\n      0x20\n      add\n      dup6\n      0xffffffffffffffffffffffffffffffffffffffff\n      and\n      dup2\n      mstore\n      0x20\n      add\n      dup5\n      dup2\n      mstore\n      0x20\n      add\n      dup4\n      dup2\n      mstore\n      0x20\n      add\n      dup1\n      0x20\n      add\n      dup3\n      dup2\n      sub\n      dup3\n      mstore\n      dup4\n      dup2\n      dup2\n      mload\n      dup2\n      mstore\n      0x20\n      add\n      swap2\n      pop\n      dup1\n      mload\n      swap1\n      0x20\n      add\n      swap1\n      dup1\n      dup4\n      dup4\n      0x00\n    tag_216:\n      dup4\n      dup2\n      lt\n      iszero\n      tag_218\n      jumpi\n      dup1\n      dup3\n      add\n      mload\n      dup2\n      dup5\n      add\n      mstore\n      0x20\n      dup2\n      add\n      swap1\n      pop\n      jump(tag_216)\n    tag_218:\n      pop\n      pop\n      pop\n      pop\n      swap1\n      pop\n      swap1\n      dup2\n      add\n      swap1\n      0x1f\n      and\n      dup1\n      iszero\n      tag_219\n      jumpi\n      dup1\n      dup3\n      sub\n      dup1\n      mload\n      0x01\n      dup4\n      0x20\n      sub\n      0x0100\n      exp\n      sub\n      not\n      and\n      dup2\n      mstore\n      0x20\n      add\n      swap2\n      pop\n    tag_219:\n      pop\n      swap7\n      pop\n      pop\n      pop\n      pop\n      pop\n      pop\n      pop\n      0x20\n      mload(0x40)\n      dup1\n      dup4\n      sub\n      dup2\n      0x00\n      dup8\n      dup1\n      extcodesize\n      iszero\n      dup1\n      iszero\n      tag_220\n      jumpi\n      0x00\n      dup1\n      revert\n    tag_220:\n      pop\n      gas\n      call\n      swap3\n      pop\n      pop\n      pop\n      dup1\n      iszero\n      tag_221\n      jumpi\n      pop\n      mload(0x40)\n      returndatasize\n      0x20\n      dup2\n      lt\n      iszero\n      tag_222\n      jumpi\n      0x00\n      dup1\n      revert\n    tag_222:\n      dup2\n      add\n      swap1\n      dup1\n      dup1\n      mload\n      swap1\n      0x20\n      add\n      swap1\n      swap3\n      swap2\n      swap1\n      pop\n      pop\n      pop\n      0x01\n    tag_221:\n        /* \"contracts/HMOR.sol\":35354:35829  try IERC1155Receiver(to).onERC1155Received(operator, from, id, amount, data) returns (bytes4 response) {... */\n      tag_223\n      jumpi\n      tag_226\n      tag_201\n      jump\t// in\n    tag_226:\n      dup1\n      tag_227\n      jumpi\n      pop\n      jump(tag_225)\n    tag_227:\n        /* \"contracts/HMOR.sol\":35705:35711  reason */\n      dup1\n        /* \"contracts/HMOR.sol\":35698:35712  revert(reason) */\n      mload(0x40)\n      0x08c379a000000000000000000000000000000000000000000000000000000000\n      dup2\n      mstore\n      0x04\n      add\n      dup1\n      dup1\n      0x20\n      add\n      dup3\n      dup2\n      sub\n      dup3\n      mstore\n      dup4\n      dup2\n      dup2\n      mload\n      dup2\n      mstore\n      0x20\n      add\n      swap2\n      pop\n      dup1\n      mload\n      swap1\n      0x20\n      add\n      swap1\n      dup1\n      dup4\n      dup4\n      0x00\n    tag_228:\n      dup4\n      dup2\n      lt\n      iszero\n      tag_230\n      jumpi\n      dup1\n      dup3\n      add\n      mload\n      dup2\n      dup5\n      add\n      mstore\n      0x20\n      dup2\n      add\n      swap1\n      pop\n      jump(tag_228)\n    tag_230:\n      pop\n      pop\n      pop\n      pop\n      swap1\n      pop\n      swap1\n      dup2\n      add\n      swap1\n      0x1f\n      and\n      dup1\n      iszero\n      tag_231\n      jumpi\n      dup1\n      dup3\n      sub\n      dup1\n      mload\n      0x01\n      dup4\n      0x20\n      sub\n      0x0100\n      exp\n      sub\n      not\n      and\n      dup2\n      mstore\n      0x20\n      add\n      swap2\n      pop\n    tag_231:\n      pop\n      swap3\n      pop\n      pop\n      pop\n      mload(0x40)\n      dup1\n      swap2\n      sub\n      swap1\n      revert\n        /* \"contracts/HMOR.sol\":35354:35829  try IERC1155Receiver(to).onERC1155Received(operator, from, id, amount, data) returns (bytes4 response) {... */\n    tag_225:\n        /* \"contracts/HMOR.sol\":35752:35814  revert(\"ERC1155: transfer to non ERC1155Receiver implementer\") */\n      mload(0x40)\n      0x08c379a000000000000000000000000000000000000000000000000000000000\n      dup2\n      mstore\n      0x04\n      add\n      dup1\n      dup1\n      0x20\n      add\n      dup3\n      dup2\n      sub\n      dup3\n      mstore\n      0x34\n      dup2\n      mstore\n      0x20\n      add\n      dup1\n      data_00aa752fb1526000e5241602affc3d70ef506da48a27ea57140102b439e655ed\n      0x34\n      swap2\n      codecopy\n      0x40\n      add\n      swap2\n      pop\n      pop\n      mload(0x40)\n      dup1\n      swap2\n      sub\n      swap1\n      revert\n        /* \"contracts/HMOR.sol\":35354:35829  try IERC1155Receiver(to).onERC1155Received(operator, from, id, amount, data) returns (bytes4 response) {... */\n    tag_223:\n        /* \"contracts/HMOR.sol\":35491:35538  IERC1155Receiver(to).onERC1155Received.selector */\n      shl(0xe0, 0xf23a6e61)\n        /* \"contracts/HMOR.sol\":35479:35538  response != IERC1155Receiver(to).onERC1155Received.selector */\n      not(0xffffffffffffffffffffffffffffffffffffffffffffffffffffffff)\n      and\n        /* \"contracts/HMOR.sol\":35479:35487  response */\n      dup2\n        /* \"contracts/HMOR.sol\":35479:35538  response != IERC1155Receiver(to).onERC1155Received.selector */\n      not(0xffffffffffffffffffffffffffffffffffffffffffffffffffffffff)\n      and\n      eq\n        /* \"contracts/HMOR.sol\":35475:35631  if (response != IERC1155Receiver(to).onERC1155Received.selector) {... */\n      tag_233\n      jumpi\n        /* \"contracts/HMOR.sol\":35562:35612  revert(\"ERC1155: ERC1155Receiver rejected tokens\") */\n      mload(0x40)\n      0x08c379a000000000000000000000000000000000000000000000000000000000\n      dup2\n      mstore\n      0x04\n      add\n      dup1\n      dup1\n      0x20\n      add\n      dup3\n      dup2\n      sub\n      dup3\n      mstore\n      0x28\n      dup2\n      mstore\n      0x20\n      add\n      dup1\n      data_0587cccad73a80a7f013db13c596f4febc1968dc77e1d3589d5e7a509a3d6503\n      0x28\n      swap2\n      codecopy\n      0x40\n      add\n      swap2\n      pop\n      pop\n      mload(0x40)\n      dup1\n      swap2\n      sub\n      swap1\n      revert\n        /* \"contracts/HMOR.sol\":35475:35631  if (response != IERC1155Receiver(to).onERC1155Received.selector) {... */\n    tag_233:\n        /* \"contracts/HMOR.sol\":35431:35645  returns (bytes4 response) {... */\n      pop\n        /* \"contracts/HMOR.sol\":35319:35839  if (to.isContract()) {... */\n    tag_215:\n        /* \"contracts/HMOR.sol\":35104:35845  function _doSafeTransferAcceptanceCheck(... */\n      pop\n      pop\n      pop\n      pop\n      pop\n      pop\n      jump\t// out\n        /* \"#utility.yul\":7:109   */\n    tag_235:\n      0x00\n        /* \"#utility.yul\":99:101   */\n      0x1f\n        /* \"#utility.yul\":95:102   */\n      not\n        /* \"#utility.yul\":90:92   */\n      0x1f\n        /* \"#utility.yul\":83:88   */\n      dup4\n        /* \"#utility.yul\":79:93   */\n      add\n        /* \"#utility.yul\":75:103   */\n      and\n        /* \"#utility.yul\":65:103   */\n      swap1\n      pop\n        /* \"#utility.yul\":55:109   */\n      swap2\n      swap1\n      pop\n      jump\t// out\n        /* \"#utility.yul\":115:221   */\n    tag_237:\n      0x00\n        /* \"#utility.yul\":208:213   */\n      dup2\n        /* \"#utility.yul\":203:206   */\n      0xe0\n        /* \"#utility.yul\":199:214   */\n      shr\n        /* \"#utility.yul\":178:214   */\n      swap1\n      pop\n        /* \"#utility.yul\":168:221   */\n      swap2\n      swap1\n      pop\n      jump\t// out\n        /* \"#utility.yul\":227:1060   */\n    tag_201:\n      0x00\n        /* \"#utility.yul\":304:308   */\n      0x44\n        /* \"#utility.yul\":286:302   */\n      returndatasize\n        /* \"#utility.yul\":283:309   */\n      lt\n        /* \"#utility.yul\":280:282   */\n      iszero\n      tag_240\n      jumpi\n        /* \"#utility.yul\":312:317   */\n      jump(tag_239)\n        /* \"#utility.yul\":280:282   */\n    tag_240:\n        /* \"#utility.yul\":350:351   */\n      0x04\n        /* \"#utility.yul\":347:348   */\n      0x00\n        /* \"#utility.yul\":344:345   */\n      dup1\n        /* \"#utility.yul\":329:352   */\n      returndatacopy\n        /* \"#utility.yul\":372:406   */\n      tag_241\n        /* \"#utility.yul\":403:404   */\n      0x00\n        /* \"#utility.yul\":397:405   */\n      mload\n        /* \"#utility.yul\":372:406   */\n      tag_237\n      jump\t// in\n    tag_241:\n        /* \"#utility.yul\":433:443   */\n      0x08c379a0\n        /* \"#utility.yul\":428:431   */\n      dup2\n        /* \"#utility.yul\":425:444   */\n      eq\n        /* \"#utility.yul\":415:417   */\n      tag_242\n      jumpi\n        /* \"#utility.yul\":448:453   */\n      pop\n      jump(tag_239)\n        /* \"#utility.yul\":415:417   */\n    tag_242:\n        /* \"#utility.yul\":483:485   */\n      0x40\n        /* \"#utility.yul\":477:486   */\n      mload\n        /* \"#utility.yul\":541:542   */\n      0x04\n        /* \"#utility.yul\":523:539   */\n      returndatasize\n        /* \"#utility.yul\":519:543   */\n      sub\n        /* \"#utility.yul\":516:517   */\n      0x04\n        /* \"#utility.yul\":510:514   */\n      dup3\n        /* \"#utility.yul\":495:544   */\n      returndatacopy\n        /* \"#utility.yul\":574:578   */\n      dup1\n        /* \"#utility.yul\":568:579   */\n      mload\n        /* \"#utility.yul\":673:689   */\n      returndatasize\n        /* \"#utility.yul\":666:670   */\n      0x24\n        /* \"#utility.yul\":658:664   */\n      dup3\n        /* \"#utility.yul\":654:671   */\n      add\n        /* \"#utility.yul\":651:690   */\n      gt\n        /* \"#utility.yul\":618:636   */\n      0xffffffffffffffff\n        /* \"#utility.yul\":610:616   */\n      dup3\n        /* \"#utility.yul\":607:637   */\n      gt\n        /* \"#utility.yul\":591:704   */\n      or\n        /* \"#utility.yul\":588:590   */\n      iszero\n      tag_243\n      jumpi\n        /* \"#utility.yul\":719:724   */\n      pop\n      pop\n      pop\n      jump(tag_239)\n        /* \"#utility.yul\":588:590   */\n    tag_243:\n        /* \"#utility.yul\":765:771   */\n      dup1\n        /* \"#utility.yul\":759:763   */\n      dup3\n        /* \"#utility.yul\":755:772   */\n      add\n        /* \"#utility.yul\":801:804   */\n      dup1\n        /* \"#utility.yul\":795:805   */\n      mload\n        /* \"#utility.yul\":828:846   */\n      0xffffffffffffffff\n        /* \"#utility.yul\":820:826   */\n      dup2\n        /* \"#utility.yul\":817:847   */\n      gt\n        /* \"#utility.yul\":814:816   */\n      iszero\n      tag_244\n      jumpi\n        /* \"#utility.yul\":850:855   */\n      pop\n      pop\n      pop\n      pop\n      pop\n      jump(tag_239)\n        /* \"#utility.yul\":814:816   */\n    tag_244:\n        /* \"#utility.yul\":898:904   */\n      dup1\n        /* \"#utility.yul\":891:895   */\n      0x20\n        /* \"#utility.yul\":886:889   */\n      dup4\n        /* \"#utility.yul\":882:896   */\n      add\n        /* \"#utility.yul\":878:905   */\n      add\n        /* \"#utility.yul\":935:951   */\n      returndatasize\n        /* \"#utility.yul\":929:933   */\n      dup6\n        /* \"#utility.yul\":925:952   */\n      add\n        /* \"#utility.yul\":920:923   */\n      dup2\n        /* \"#utility.yul\":917:953   */\n      gt\n        /* \"#utility.yul\":914:916   */\n      iszero\n      tag_245\n      jumpi\n        /* \"#utility.yul\":956:961   */\n      pop\n      pop\n      pop\n      pop\n      pop\n      pop\n      jump(tag_239)\n        /* \"#utility.yul\":914:916   */\n    tag_245:\n        /* \"#utility.yul\":1004:1033   */\n      tag_246\n        /* \"#utility.yul\":1026:1032   */\n      dup3\n        /* \"#utility.yul\":1004:1033   */\n      tag_235\n      jump\t// in\n    tag_246:\n        /* \"#utility.yul\":997:1001   */\n      0x20\n        /* \"#utility.yul\":992:995   */\n      dup5\n        /* \"#utility.yul\":988:1002   */\n      add\n        /* \"#utility.yul\":984:1034   */\n      add\n        /* \"#utility.yul\":980:982   */\n      0x40\n        /* \"#utility.yul\":973:1035   */\n      mstore\n        /* \"#utility.yul\":1051:1054   */\n      dup3\n        /* \"#utility.yul\":1044:1054   */\n      swap7\n      pop\n        /* \"#utility.yul\":270:1060   */\n      pop\n      pop\n      pop\n      pop\n      pop\n      pop\n    tag_239:\n      swap1\n      jump\t// out\n    stop\n    data_00aa752fb1526000e5241602affc3d70ef506da48a27ea57140102b439e655ed 455243313135353a207472616e7366657220746f206e6f6e2045524331313535526563656976657220696d706c656d656e746572\n    data_0587cccad73a80a7f013db13c596f4febc1968dc77e1d3589d5e7a509a3d6503 455243313135353a204552433131353552656365697665722072656a656374656420746f6b656e73\n    data_1f4de6a436172e7f7b1540476031cb037fc18ede9cc346a56da1697cbd352aa9 455243313135353a2062616c616e636520717565727920666f7220746865207a65726f2061646472657373\n    data_1fbbb69d10332726591dc7ee4a23a94661eda2bec5ce6bf93a68249147dc8d9c 455243313135353a2062617463682062616c616e636520717565727920666f7220746865207a65726f2061646472657373\n    data_245f15ff17f551913a7a18385165551503906a406f905ac1c2437281a7cd0cfe 4f776e61626c653a206e6577206f776e657220697320746865207a65726f2061646472657373\n    data_394ac917f53b95ee25db2a5da5874c5b1f0af95a4fdf34992ff8b19c458f239a 455243313135353a2063616c6c6572206973206e6f74206f776e6572206e6f7220617070726f766564\n    data_6faf1c67f278b07c6771dcf4c315a89c21c0eaed11d9ab3d51774da1cfef545d 455243313135353a207472616e7366657220746f20746865207a65726f2061646472657373\n    data_70a41c66829f5508884cda9ef3d2f72551b34f23e4035be97941681123d2d686 455243313135353a207472616e736665722063616c6c6572206973206e6f74206f776e6572206e6f7220617070726f766564\n    data_8ac7e9556b567c1c94bb4daaa3c3a65be5ac686579615210cb910fb8cb8d65bf 455243313135353a20696e73756666696369656e742062616c616e636520666f72207472616e73666572\n    data_df9806c6dc743de602e49918a67b580590d69ab768bdb59f977c0a884a91a7c2 455243313135353a2073657474696e6720617070726f76616c2073746174757320666f722073656c66\n    data_e155f5d69798c6205436a388a4f3a5fd42f54147b40f4d63a2c8071ff8a9fee5 455243313135353a206163636f756e747320616e6420696473206c656e677468206d69736d61746368\n    data_e909e0c9a8f96b4f9af03b716811ece20beb070be416893ed1d50619b5930807 455243313135353a2069647320616e6420616d6f756e7473206c656e677468206d69736d61746368\n\n    auxdata: 0xa2646970667358221220c92bc262d276840c1c9dd8a511fa1e0ca6f7f15ffe5d12082e59b379b35a928064736f6c63430007060033\n}\n",
				"bytecode": {
					"linkReferences": {},
					"object": "60806040523480156200001157600080fd5b506040518060600160405280603981526020016200323260399139620000446301ffc9a760e01b6200018760201b60201c565b62000055816200029060201b60201c565b6200006d63d9b67a2660e01b6200018760201b60201c565b62000085630e89341c60e01b6200018760201b60201c565b50600062000098620002ac60201b60201c565b905080600460006101000a81548173ffffffffffffffffffffffffffffffffffffffff021916908373ffffffffffffffffffffffffffffffffffffffff1602179055508073ffffffffffffffffffffffffffffffffffffffff16600073ffffffffffffffffffffffffffffffffffffffff167f8be0079c531659141344cd1fd0a4f28419497f9722a3daafe3b4186f6b6457e060405160405180910390a3506200015c336004600260405180602001604052806000815250620002b460201b60201c565b62000181336002600160405180602001604052806000815250620002b460201b60201c565b62000afd565b63ffffffff60e01b817bffffffffffffffffffffffffffffffffffffffffffffffffffffffff1916141562000224576040517f08c379a000000000000000000000000000000000000000000000000000000000815260040180806020018281038252601c8152602001807f4552433136353a20696e76616c696420696e746572666163652069640000000081525060200191505060405180910390fd5b6001600080837bffffffffffffffffffffffffffffffffffffffffffffffffffffffff19167bffffffffffffffffffffffffffffffffffffffffffffffffffffffff1916815260200190815260200160002060006101000a81548160ff02191690831515021790555050565b8060039080519060200190620002a892919062000965565b5050565b600033905090565b600073ffffffffffffffffffffffffffffffffffffffff168473ffffffffffffffffffffffffffffffffffffffff1614156200033c576040517f08c379a00000000000000000000000000000000000000000000000000000000081526004018080602001828103825260218152602001806200326b6021913960400191505060405180910390fd5b60006200034e620002ac60201b60201c565b905062000387816000876200036988620004e860201b60201c565b6200037a88620004e860201b60201c565b876200055c60201b60201c565b620003f1836001600087815260200190815260200160002060008873ffffffffffffffffffffffffffffffffffffffff1673ffffffffffffffffffffffffffffffffffffffff168152602001908152602001600020546200056460201b62001b0d1790919060201c565b6001600086815260200190815260200160002060008773ffffffffffffffffffffffffffffffffffffffff1673ffffffffffffffffffffffffffffffffffffffff168152602001908152602001600020819055508473ffffffffffffffffffffffffffffffffffffffff16600073ffffffffffffffffffffffffffffffffffffffff168273ffffffffffffffffffffffffffffffffffffffff167fc3d58168c5ae7397731d063d5bbf3d657854427343f4c083240f7aacaa2d0f628787604051808381526020018281526020019250505060405180910390a4620004e181600087878787620005ed60201b60201c565b5050505050565b60606000600167ffffffffffffffff811180156200050557600080fd5b50604051908082528060200260200182016040528015620005355781602001602082028036833780820191505090505b50905082816000815181106200054757fe5b60200260200101818152505080915050919050565b505050505050565b600080828401905083811015620005e3576040517f08c379a000000000000000000000000000000000000000000000000000000000815260040180806020018281038252601b8152602001807f536166654d6174683a206164646974696f6e206f766572666c6f77000000000081525060200191505060405180910390fd5b8091505092915050565b620006198473ffffffffffffffffffffffffffffffffffffffff166200091960201b62001b951760201c565b1562000911578373ffffffffffffffffffffffffffffffffffffffff1663f23a6e6187878686866040518663ffffffff1660e01b8152600401808673ffffffffffffffffffffffffffffffffffffffff1681526020018573ffffffffffffffffffffffffffffffffffffffff16815260200184815260200183815260200180602001828103825283818151815260200191508051906020019080838360005b83811015620006d5578082015181840152602081019050620006b8565b50505050905090810190601f168015620007035780820380516001836020036101000a031916815260200191505b509650505050505050602060405180830381600087803b1580156200072757600080fd5b505af19250505080156200075d57506040513d60208110156200074957600080fd5b810190808051906020019092919050505060015b62000870576200076c62000a39565b806200077957506200081e565b806040517f08c379a00000000000000000000000000000000000000000000000000000000081526004018080602001828103825283818151815260200191508051906020019080838360005b83811015620007e2578082015181840152602081019050620007c5565b50505050905090810190601f168015620008105780820380516001836020036101000a031916815260200191505b509250505060405180910390fd5b6040517f08c379a0000000000000000000000000000000000000000000000000000000008152600401808060200182810382526034815260200180620031d66034913960400191505060405180910390fd5b63f23a6e6160e01b7bffffffffffffffffffffffffffffffffffffffffffffffffffffffff1916817bffffffffffffffffffffffffffffffffffffffffffffffffffffffff1916146200090f576040517f08c379a00000000000000000000000000000000000000000000000000000000081526004018080602001828103825260288152602001806200320a6028913960400191505060405180910390fd5b505b505050505050565b60008060007fc5d2460186f7233c927e7db2dcc703c0e500b653ca82273b7bfad8045d85a47060001b9050833f91508082141580156200095c57506000801b8214155b92505050919050565b828054600181600116156101000203166002900490600052602060002090601f0160209004810192826200099d5760008555620009e9565b82601f10620009b857805160ff1916838001178555620009e9565b82800160010185558215620009e9579182015b82811115620009e8578251825591602001919060010190620009cb565b5b509050620009f89190620009fc565b5090565b5b8082111562000a17576000816000905550600101620009fd565b5090565b6000601f19601f8301169050919050565b60008160e01c9050919050565b600060443d101562000a4b5762000afa565b60046000803e62000a5e60005162000a2c565b6308c379a0811462000a71575062000afa565b60405160043d036004823e80513d602482011167ffffffffffffffff8211171562000a9f5750505062000afa565b808201805167ffffffffffffffff81111562000ac057505050505062000afa565b8060208301013d850181111562000add5750505050505062000afa565b62000ae88262000a1b565b60208401016040528296505050505050505b90565b6126c98062000b0d6000396000f3fe608060405234801561001057600080fd5b50600436106100ff5760003560e01c8063715018a611610097578063e3e55f0811610066578063e3e55f081461073a578063e985e9c514610758578063f242432a146107d2578063f2fde38b146108e1576100ff565b8063715018a61461068e5780638da5cb5b14610698578063a22cb465146106cc578063d562e2041461071c576100ff565b80632eb2c2d6116100d35780632eb2c2d61461028e5780633e4bee38146104b15780634e1273f4146104cf5780635b2725ed14610670576100ff565b8062fdd58e1461010457806301ffc9a7146101665780630e89341c146101c957806313dc989f14610270575b600080fd5b6101506004803603604081101561011a57600080fd5b81019080803573ffffffffffffffffffffffffffffffffffffffff16906020019092919080359060200190929190505050610925565b6040518082815260200191505060405180910390f35b6101b16004803603602081101561017c57600080fd5b8101908080357bffffffffffffffffffffffffffffffffffffffffffffffffffffffff19169060200190929190505050610a05565b60405180821515815260200191505060405180910390f35b6101f5600480360360208110156101df57600080fd5b8101908080359060200190929190505050610a6c565b6040518080602001828103825283818151815260200191508051906020019080838360005b8381101561023557808201518184015260208101905061021a565b50505050905090810190601f1680156102625780820380516001836020036101000a031916815260200191505b509250505060405180910390f35b610278610b10565b6040518082815260200191505060405180910390f35b6104af600480360360a08110156102a457600080fd5b81019080803573ffffffffffffffffffffffffffffffffffffffff169060200190929190803573ffffffffffffffffffffffffffffffffffffffff1690602001909291908035906020019064010000000081111561030157600080fd5b82018360208201111561031357600080fd5b8035906020019184602083028401116401000000008311171561033557600080fd5b919080806020026020016040519081016040528093929190818152602001838360200280828437600081840152601f19601f8201169050808301925050505050505091929192908035906020019064010000000081111561039557600080fd5b8201836020820111156103a757600080fd5b803590602001918460208302840111640100000000831117156103c957600080fd5b919080806020026020016040519081016040528093929190818152602001838360200280828437600081840152601f19601f8201169050808301925050505050505091929192908035906020019064010000000081111561042957600080fd5b82018360208201111561043b57600080fd5b8035906020019184600183028401116401000000008311171561045d57600080fd5b91908080601f016020809104026020016040519081016040528093929190818152602001838380828437600081840152601f19601f820116905080830192505050505050509192919290505050610b15565b005b6104b9610fa0565b6040518082815260200191505060405180910390f35b610619600480360360408110156104e557600080fd5b810190808035906020019064010000000081111561050257600080fd5b82018360208201111561051457600080fd5b8035906020019184602083028401116401000000008311171561053657600080fd5b919080806020026020016040519081016040528093929190818152602001838360200280828437600081840152601f19601f8201169050808301925050505050505091929192908035906020019064010000000081111561059657600080fd5b8201836020820111156105a857600080fd5b803590602001918460208302840111640100000000831117156105ca57600080fd5b919080806020026020016040519081016040528093929190818152602001838360200280828437600081840152601f19601f820116905080830192505050505050509192919290505050610fa5565b6040518080602001828103825283818151815260200191508051906020019060200280838360005b8381101561065c578082015181840152602081019050610641565b505050509050019250505060405180910390f35b610678611197565b6040518082815260200191505060405180910390f35b61069661119c565b005b6106a0611327565b604051808273ffffffffffffffffffffffffffffffffffffffff16815260200191505060405180910390f35b61071a600480360360408110156106e257600080fd5b81019080803573ffffffffffffffffffffffffffffffffffffffff169060200190929190803515159060200190929190505050611351565b005b6107246114ea565b6040518082815260200191505060405180910390f35b6107426114ef565b6040518082815260200191505060405180910390f35b6107ba6004803603604081101561076e57600080fd5b81019080803573ffffffffffffffffffffffffffffffffffffffff169060200190929190803573ffffffffffffffffffffffffffffffffffffffff1690602001909291905050506114f4565b60405180821515815260200191505060405180910390f35b6108df600480360360a08110156107e857600080fd5b81019080803573ffffffffffffffffffffffffffffffffffffffff169060200190929190803573ffffffffffffffffffffffffffffffffffffffff16906020019092919080359060200190929190803590602001909291908035906020019064010000000081111561085957600080fd5b82018360208201111561086b57600080fd5b8035906020019184600183028401116401000000008311171561088d57600080fd5b91908080601f016020809104026020016040519081016040528093929190818152602001838380828437600081840152601f19601f820116905080830192505050505050509192919290505050611588565b005b610923600480360360208110156108f757600080fd5b81019080803573ffffffffffffffffffffffffffffffffffffffff1690602001909291905050506118fd565b005b60008073ffffffffffffffffffffffffffffffffffffffff168373ffffffffffffffffffffffffffffffffffffffff1614156109ac576040517f08c379a000000000000000000000000000000000000000000000000000000000815260040180806020018281038252602b8152602001806124ee602b913960400191505060405180910390fd5b6001600083815260200190815260200160002060008473ffffffffffffffffffffffffffffffffffffffff1673ffffffffffffffffffffffffffffffffffffffff16815260200190815260200160002054905092915050565b6000806000837bffffffffffffffffffffffffffffffffffffffffffffffffffffffff19167bffffffffffffffffffffffffffffffffffffffffffffffffffffffff1916815260200190815260200160002060009054906101000a900460ff169050919050565b606060038054600181600116156101000203166002900480601f016020809104026020016040519081016040528092919081815260200182805460018160011615610100020316600290048015610b045780601f10610ad957610100808354040283529160200191610b04565b820191906000526020600020905b815481529060010190602001808311610ae757829003601f168201915b50505050509050919050565b600381565b8151835114610b6f576040517f08c379a000000000000000000000000000000000000000000000000000000000815260040180806020018281038252602881526020018061266c6028913960400191505060405180910390fd5b600073ffffffffffffffffffffffffffffffffffffffff168473ffffffffffffffffffffffffffffffffffffffff161415610bf5576040517f08c379a00000000000000000000000000000000000000000000000000000000081526004018080602001828103825260258152602001806125996025913960400191505060405180910390fd5b610bfd611be0565b73ffffffffffffffffffffffffffffffffffffffff168573ffffffffffffffffffffffffffffffffffffffff161480610c435750610c4285610c3d611be0565b6114f4565b5b610c98576040517f08c379a00000000000000000000000000000000000000000000000000000000081526004018080602001828103825260328152602001806125be6032913960400191505060405180910390fd5b6000610ca2611be0565b9050610cb2818787878787611be8565b60005b8451811015610e83576000858281518110610ccc57fe5b602002602001015190506000858381518110610ce457fe5b60200260200101519050610d6b816040518060600160405280602a81526020016125f0602a91396001600086815260200190815260200160002060008d73ffffffffffffffffffffffffffffffffffffffff1673ffffffffffffffffffffffffffffffffffffffff16815260200190815260200160002054611bf09092919063ffffffff16565b6001600084815260200190815260200160002060008b73ffffffffffffffffffffffffffffffffffffffff1673ffffffffffffffffffffffffffffffffffffffff16815260200190815260200160002081905550610e22816001600085815260200190815260200160002060008b73ffffffffffffffffffffffffffffffffffffffff1673ffffffffffffffffffffffffffffffffffffffff16815260200190815260200160002054611b0d90919063ffffffff16565b6001600084815260200190815260200160002060008a73ffffffffffffffffffffffffffffffffffffffff1673ffffffffffffffffffffffffffffffffffffffff168152602001908152602001600020819055505050806001019050610cb5565b508473ffffffffffffffffffffffffffffffffffffffff168673ffffffffffffffffffffffffffffffffffffffff168273ffffffffffffffffffffffffffffffffffffffff167f4a39dc06d4c0dbc64b70af90fd698a233a518aa5d07e595d983b8c0526c8f7fb8787604051808060200180602001838103835285818151815260200191508051906020019060200280838360005b83811015610f33578082015181840152602081019050610f18565b50505050905001838103825284818151815260200191508051906020019060200280838360005b83811015610f75578082015181840152602081019050610f5a565b5050505090500194505050505060405180910390a4610f98818787878787611cb0565b505050505050565b600081565b60608151835114611001576040517f08c379a00000000000000000000000000000000000000000000000000000000081526004018080602001828103825260298152602001806126436029913960400191505060405180910390fd5b6000835167ffffffffffffffff8111801561101b57600080fd5b5060405190808252806020026020018201604052801561104a5781602001602082028036833780820191505090505b50905060005b845181101561118c57600073ffffffffffffffffffffffffffffffffffffffff1685828151811061107d57fe5b602002602001015173ffffffffffffffffffffffffffffffffffffffff1614156110f2576040517f08c379a00000000000000000000000000000000000000000000000000000000081526004018080602001828103825260318152602001806125196031913960400191505060405180910390fd5b6001600085838151811061110257fe5b60200260200101518152602001908152602001600020600086838151811061112657fe5b602002602001015173ffffffffffffffffffffffffffffffffffffffff1673ffffffffffffffffffffffffffffffffffffffff1681526020019081526020016000205482828151811061117557fe5b602002602001018181525050806001019050611050565b508091505092915050565b600481565b6111a4611be0565b73ffffffffffffffffffffffffffffffffffffffff16600460009054906101000a900473ffffffffffffffffffffffffffffffffffffffff1673ffffffffffffffffffffffffffffffffffffffff1614611266576040517f08c379a00000000000000000000000000000000000000000000000000000000081526004018080602001828103825260208152602001807f4f776e61626c653a2063616c6c6572206973206e6f7420746865206f776e657281525060200191505060405180910390fd5b600073ffffffffffffffffffffffffffffffffffffffff16600460009054906101000a900473ffffffffffffffffffffffffffffffffffffffff1673ffffffffffffffffffffffffffffffffffffffff167f8be0079c531659141344cd1fd0a4f28419497f9722a3daafe3b4186f6b6457e060405160405180910390a36000600460006101000a81548173ffffffffffffffffffffffffffffffffffffffff021916908373ffffffffffffffffffffffffffffffffffffffff160217905550565b6000600460009054906101000a900473ffffffffffffffffffffffffffffffffffffffff16905090565b8173ffffffffffffffffffffffffffffffffffffffff16611370611be0565b73ffffffffffffffffffffffffffffffffffffffff1614156113dd576040517f08c379a000000000000000000000000000000000000000000000000000000000815260040180806020018281038252602981526020018061261a6029913960400191505060405180910390fd5b80600260006113ea611be0565b73ffffffffffffffffffffffffffffffffffffffff1673ffffffffffffffffffffffffffffffffffffffff16815260200190815260200160002060008473ffffffffffffffffffffffffffffffffffffffff1673ffffffffffffffffffffffffffffffffffffffff16815260200190815260200160002060006101000a81548160ff0219169083151502179055508173ffffffffffffffffffffffffffffffffffffffff16611497611be0565b73ffffffffffffffffffffffffffffffffffffffff167f17307eab39ab6107e8899845ad3d59bd9653f200f220920489ca2b5937696c318360405180821515815260200191505060405180910390a35050565b600281565b600181565b6000600260008473ffffffffffffffffffffffffffffffffffffffff1673ffffffffffffffffffffffffffffffffffffffff16815260200190815260200160002060008373ffffffffffffffffffffffffffffffffffffffff1673ffffffffffffffffffffffffffffffffffffffff16815260200190815260200160002060009054906101000a900460ff16905092915050565b600073ffffffffffffffffffffffffffffffffffffffff168473ffffffffffffffffffffffffffffffffffffffff16141561160e576040517f08c379a00000000000000000000000000000000000000000000000000000000081526004018080602001828103825260258152602001806125996025913960400191505060405180910390fd5b611616611be0565b73ffffffffffffffffffffffffffffffffffffffff168573ffffffffffffffffffffffffffffffffffffffff16148061165c575061165b85611656611be0565b6114f4565b5b6116b1576040517f08c379a00000000000000000000000000000000000000000000000000000000081526004018080602001828103825260298152602001806125706029913960400191505060405180910390fd5b60006116bb611be0565b90506116db8187876116cc8861203f565b6116d58861203f565b87611be8565b611758836040518060600160405280602a81526020016125f0602a91396001600088815260200190815260200160002060008a73ffffffffffffffffffffffffffffffffffffffff1673ffffffffffffffffffffffffffffffffffffffff16815260200190815260200160002054611bf09092919063ffffffff16565b6001600086815260200190815260200160002060008873ffffffffffffffffffffffffffffffffffffffff1673ffffffffffffffffffffffffffffffffffffffff1681526020019081526020016000208190555061180f836001600087815260200190815260200160002060008873ffffffffffffffffffffffffffffffffffffffff1673ffffffffffffffffffffffffffffffffffffffff16815260200190815260200160002054611b0d90919063ffffffff16565b6001600086815260200190815260200160002060008773ffffffffffffffffffffffffffffffffffffffff1673ffffffffffffffffffffffffffffffffffffffff168152602001908152602001600020819055508473ffffffffffffffffffffffffffffffffffffffff168673ffffffffffffffffffffffffffffffffffffffff168273ffffffffffffffffffffffffffffffffffffffff167fc3d58168c5ae7397731d063d5bbf3d657854427343f4c083240f7aacaa2d0f628787604051808381526020018281526020019250505060405180910390a46118f58187878787876120b0565b505050505050565b611905611be0565b73ffffffffffffffffffffffffffffffffffffffff16600460009054906101000a900473ffffffffffffffffffffffffffffffffffffffff1673ffffffffffffffffffffffffffffffffffffffff16146119c7576040517f08c379a00000000000000000000000000000000000000000000000000000000081526004018080602001828103825260208152602001807f4f776e61626c653a2063616c6c6572206973206e6f7420746865206f776e657281525060200191505060405180910390fd5b600073ffffffffffffffffffffffffffffffffffffffff168173ffffffffffffffffffffffffffffffffffffffff161415611a4d576040517f08c379a000000000000000000000000000000000000000000000000000000000815260040180806020018281038252602681526020018061254a6026913960400191505060405180910390fd5b8073ffffffffffffffffffffffffffffffffffffffff16600460009054906101000a900473ffffffffffffffffffffffffffffffffffffffff1673ffffffffffffffffffffffffffffffffffffffff167f8be0079c531659141344cd1fd0a4f28419497f9722a3daafe3b4186f6b6457e060405160405180910390a380600460006101000a81548173ffffffffffffffffffffffffffffffffffffffff021916908373ffffffffffffffffffffffffffffffffffffffff16021790555050565b600080828401905083811015611b8b576040517f08c379a000000000000000000000000000000000000000000000000000000000815260040180806020018281038252601b8152602001807f536166654d6174683a206164646974696f6e206f766572666c6f77000000000081525060200191505060405180910390fd5b8091505092915050565b60008060007fc5d2460186f7233c927e7db2dcc703c0e500b653ca82273b7bfad8045d85a47060001b9050833f9150808214158015611bd757506000801b8214155b92505050919050565b600033905090565b505050505050565b6000838311158290611c9d576040517f08c379a00000000000000000000000000000000000000000000000000000000081526004018080602001828103825283818151815260200191508051906020019080838360005b83811015611c62578082015181840152602081019050611c47565b50505050905090810190601f168015611c8f5780820380516001836020036101000a031916815260200191505b509250505060405180910390fd5b5060008385039050809150509392505050565b611ccf8473ffffffffffffffffffffffffffffffffffffffff16611b95565b15612037578373ffffffffffffffffffffffffffffffffffffffff1663bc197c8187878686866040518663ffffffff1660e01b8152600401808673ffffffffffffffffffffffffffffffffffffffff1681526020018573ffffffffffffffffffffffffffffffffffffffff168152602001806020018060200180602001848103845287818151815260200191508051906020019060200280838360005b83811015611d87578082015181840152602081019050611d6c565b50505050905001848103835286818151815260200191508051906020019060200280838360005b83811015611dc9578082015181840152602081019050611dae565b50505050905001848103825285818151815260200191508051906020019080838360005b83811015611e08578082015181840152602081019050611ded565b50505050905090810190601f168015611e355780820380516001836020036101000a031916815260200191505b5098505050505050505050602060405180830381600087803b158015611e5a57600080fd5b505af1925050508015611e8e57506040513d6020811015611e7a57600080fd5b810190808051906020019092919050505060015b611f9857611e9a6123db565b80611ea55750611f47565b806040517f08c379a00000000000000000000000000000000000000000000000000000000081526004018080602001828103825283818151815260200191508051906020019080838360005b83811015611f0c578082015181840152602081019050611ef1565b50505050905090810190601f168015611f395780820380516001836020036101000a031916815260200191505b509250505060405180910390fd5b6040517f08c379a00000000000000000000000000000000000000000000000000000000081526004018080602001828103825260348152602001806124926034913960400191505060405180910390fd5b63bc197c8160e01b7bffffffffffffffffffffffffffffffffffffffffffffffffffffffff1916817bffffffffffffffffffffffffffffffffffffffffffffffffffffffff191614612035576040517f08c379a00000000000000000000000000000000000000000000000000000000081526004018080602001828103825260288152602001806124c66028913960400191505060405180910390fd5b505b505050505050565b60606000600167ffffffffffffffff8111801561205b57600080fd5b5060405190808252806020026020018201604052801561208a5781602001602082028036833780820191505090505b509050828160008151811061209b57fe5b60200260200101818152505080915050919050565b6120cf8473ffffffffffffffffffffffffffffffffffffffff16611b95565b156123b5578373ffffffffffffffffffffffffffffffffffffffff1663f23a6e6187878686866040518663ffffffff1660e01b8152600401808673ffffffffffffffffffffffffffffffffffffffff1681526020018573ffffffffffffffffffffffffffffffffffffffff16815260200184815260200183815260200180602001828103825283818151815260200191508051906020019080838360005b8381101561218857808201518184015260208101905061216d565b50505050905090810190601f1680156121b55780820380516001836020036101000a031916815260200191505b509650505050505050602060405180830381600087803b1580156121d857600080fd5b505af192505050801561220c57506040513d60208110156121f857600080fd5b810190808051906020019092919050505060015b612316576122186123db565b8061222357506122c5565b806040517f08c379a00000000000000000000000000000000000000000000000000000000081526004018080602001828103825283818151815260200191508051906020019080838360005b8381101561228a57808201518184015260208101905061226f565b50505050905090810190601f1680156122b75780820380516001836020036101000a031916815260200191505b509250505060405180910390fd5b6040517f08c379a00000000000000000000000000000000000000000000000000000000081526004018080602001828103825260348152602001806124926034913960400191505060405180910390fd5b63f23a6e6160e01b7bffffffffffffffffffffffffffffffffffffffffffffffffffffffff1916817bffffffffffffffffffffffffffffffffffffffffffffffffffffffff1916146123b3576040517f08c379a00000000000000000000000000000000000000000000000000000000081526004018080602001828103825260288152602001806124c66028913960400191505060405180910390fd5b505b505050505050565b6000601f19601f8301169050919050565b60008160e01c9050919050565b600060443d10156123eb5761248e565b60046000803e6123fc6000516123ce565b6308c379a0811461240d575061248e565b60405160043d036004823e80513d602482011167ffffffffffffffff821117156124395750505061248e565b808201805167ffffffffffffffff81111561245857505050505061248e565b8060208301013d85018111156124735750505050505061248e565b61247c826123bd565b60208401016040528296505050505050505b9056fe455243313135353a207472616e7366657220746f206e6f6e2045524331313535526563656976657220696d706c656d656e746572455243313135353a204552433131353552656365697665722072656a656374656420746f6b656e73455243313135353a2062616c616e636520717565727920666f7220746865207a65726f2061646472657373455243313135353a2062617463682062616c616e636520717565727920666f7220746865207a65726f20616464726573734f776e61626c653a206e6577206f776e657220697320746865207a65726f2061646472657373455243313135353a2063616c6c6572206973206e6f74206f776e6572206e6f7220617070726f766564455243313135353a207472616e7366657220746f20746865207a65726f2061646472657373455243313135353a207472616e736665722063616c6c6572206973206e6f74206f776e6572206e6f7220617070726f766564455243313135353a20696e73756666696369656e742062616c616e636520666f72207472616e73666572455243313135353a2073657474696e6720617070726f76616c2073746174757320666f722073656c66455243313135353a206163636f756e747320616e6420696473206c656e677468206d69736d61746368455243313135353a2069647320616e6420616d6f756e7473206c656e677468206d69736d61746368a2646970667358221220c92bc262d276840c1c9dd8a511fa1e0ca6f7f15ffe5d12082e59b379b35a928064736f6c63430007060033455243313135353a207472616e7366657220746f206e6f6e2045524331313535526563656976657220696d706c656d656e746572455243313135353a204552433131353552656365697665722072656a656374656420746f6b656e7368747470733a2f2f7777772e676f6c647374616e646172646772702e636f6d2f6d657461646174612f6265726c696e2f484d4f522e6a736f6e455243313135353a206d696e7420746f20746865207a65726f2061646472657373",
					"opcodes": "PUSH1 0x80 PUSH1 0x40 MSTORE CALLVALUE DUP1 ISZERO PUSH3 0x11 JUMPI PUSH1 0x0 DUP1 REVERT JUMPDEST POP PUSH1 0x40 MLOAD DUP1 PUSH1 0x60 ADD PUSH1 0x40 MSTORE DUP1 PUSH1 0x39 DUP2 MSTORE PUSH1 0x20 ADD PUSH3 0x3232 PUSH1 0x39 SWAP2 CODECOPY PUSH3 0x44 PUSH4 0x1FFC9A7 PUSH1 0xE0 SHL PUSH3 0x187 PUSH1 0x20 SHL PUSH1 0x20 SHR JUMP JUMPDEST PUSH3 0x55 DUP2 PUSH3 0x290 PUSH1 0x20 SHL PUSH1 0x20 SHR JUMP JUMPDEST PUSH3 0x6D PUSH4 0xD9B67A26 PUSH1 0xE0 SHL PUSH3 0x187 PUSH1 0x20 SHL PUSH1 0x20 SHR JUMP JUMPDEST PUSH3 0x85 PUSH4 0xE89341C PUSH1 0xE0 SHL PUSH3 0x187 PUSH1 0x20 SHL PUSH1 0x20 SHR JUMP JUMPDEST POP PUSH1 0x0 PUSH3 0x98 PUSH3 0x2AC PUSH1 0x20 SHL PUSH1 0x20 SHR JUMP JUMPDEST SWAP1 POP DUP1 PUSH1 0x4 PUSH1 0x0 PUSH2 0x100 EXP DUP2 SLOAD DUP2 PUSH20 0xFFFFFFFFFFFFFFFFFFFFFFFFFFFFFFFFFFFFFFFF MUL NOT AND SWAP1 DUP4 PUSH20 0xFFFFFFFFFFFFFFFFFFFFFFFFFFFFFFFFFFFFFFFF AND MUL OR SWAP1 SSTORE POP DUP1 PUSH20 0xFFFFFFFFFFFFFFFFFFFFFFFFFFFFFFFFFFFFFFFF AND PUSH1 0x0 PUSH20 0xFFFFFFFFFFFFFFFFFFFFFFFFFFFFFFFFFFFFFFFF AND PUSH32 0x8BE0079C531659141344CD1FD0A4F28419497F9722A3DAAFE3B4186F6B6457E0 PUSH1 0x40 MLOAD PUSH1 0x40 MLOAD DUP1 SWAP2 SUB SWAP1 LOG3 POP PUSH3 0x15C CALLER PUSH1 0x4 PUSH1 0x2 PUSH1 0x40 MLOAD DUP1 PUSH1 0x20 ADD PUSH1 0x40 MSTORE DUP1 PUSH1 0x0 DUP2 MSTORE POP PUSH3 0x2B4 PUSH1 0x20 SHL PUSH1 0x20 SHR JUMP JUMPDEST PUSH3 0x181 CALLER PUSH1 0x2 PUSH1 0x1 PUSH1 0x40 MLOAD DUP1 PUSH1 0x20 ADD PUSH1 0x40 MSTORE DUP1 PUSH1 0x0 DUP2 MSTORE POP PUSH3 0x2B4 PUSH1 0x20 SHL PUSH1 0x20 SHR JUMP JUMPDEST PUSH3 0xAFD JUMP JUMPDEST PUSH4 0xFFFFFFFF PUSH1 0xE0 SHL DUP2 PUSH28 0xFFFFFFFFFFFFFFFFFFFFFFFFFFFFFFFFFFFFFFFFFFFFFFFFFFFFFFFF NOT AND EQ ISZERO PUSH3 0x224 JUMPI PUSH1 0x40 MLOAD PUSH32 0x8C379A000000000000000000000000000000000000000000000000000000000 DUP2 MSTORE PUSH1 0x4 ADD DUP1 DUP1 PUSH1 0x20 ADD DUP3 DUP2 SUB DUP3 MSTORE PUSH1 0x1C DUP2 MSTORE PUSH1 0x20 ADD DUP1 PUSH32 0x4552433136353A20696E76616C696420696E7465726661636520696400000000 DUP2 MSTORE POP PUSH1 0x20 ADD SWAP2 POP POP PUSH1 0x40 MLOAD DUP1 SWAP2 SUB SWAP1 REVERT JUMPDEST PUSH1 0x1 PUSH1 0x0 DUP1 DUP4 PUSH28 0xFFFFFFFFFFFFFFFFFFFFFFFFFFFFFFFFFFFFFFFFFFFFFFFFFFFFFFFF NOT AND PUSH28 0xFFFFFFFFFFFFFFFFFFFFFFFFFFFFFFFFFFFFFFFFFFFFFFFFFFFFFFFF NOT AND DUP2 MSTORE PUSH1 0x20 ADD SWAP1 DUP2 MSTORE PUSH1 0x20 ADD PUSH1 0x0 KECCAK256 PUSH1 0x0 PUSH2 0x100 EXP DUP2 SLOAD DUP2 PUSH1 0xFF MUL NOT AND SWAP1 DUP4 ISZERO ISZERO MUL OR SWAP1 SSTORE POP POP JUMP JUMPDEST DUP1 PUSH1 0x3 SWAP1 DUP1 MLOAD SWAP1 PUSH1 0x20 ADD SWAP1 PUSH3 0x2A8 SWAP3 SWAP2 SWAP1 PUSH3 0x965 JUMP JUMPDEST POP POP JUMP JUMPDEST PUSH1 0x0 CALLER SWAP1 POP SWAP1 JUMP JUMPDEST PUSH1 0x0 PUSH20 0xFFFFFFFFFFFFFFFFFFFFFFFFFFFFFFFFFFFFFFFF AND DUP5 PUSH20 0xFFFFFFFFFFFFFFFFFFFFFFFFFFFFFFFFFFFFFFFF AND EQ ISZERO PUSH3 0x33C JUMPI PUSH1 0x40 MLOAD PUSH32 0x8C379A000000000000000000000000000000000000000000000000000000000 DUP2 MSTORE PUSH1 0x4 ADD DUP1 DUP1 PUSH1 0x20 ADD DUP3 DUP2 SUB DUP3 MSTORE PUSH1 0x21 DUP2 MSTORE PUSH1 0x20 ADD DUP1 PUSH3 0x326B PUSH1 0x21 SWAP2 CODECOPY PUSH1 0x40 ADD SWAP2 POP POP PUSH1 0x40 MLOAD DUP1 SWAP2 SUB SWAP1 REVERT JUMPDEST PUSH1 0x0 PUSH3 0x34E PUSH3 0x2AC PUSH1 0x20 SHL PUSH1 0x20 SHR JUMP JUMPDEST SWAP1 POP PUSH3 0x387 DUP2 PUSH1 0x0 DUP8 PUSH3 0x369 DUP9 PUSH3 0x4E8 PUSH1 0x20 SHL PUSH1 0x20 SHR JUMP JUMPDEST PUSH3 0x37A DUP9 PUSH3 0x4E8 PUSH1 0x20 SHL PUSH1 0x20 SHR JUMP JUMPDEST DUP8 PUSH3 0x55C PUSH1 0x20 SHL PUSH1 0x20 SHR JUMP JUMPDEST PUSH3 0x3F1 DUP4 PUSH1 0x1 PUSH1 0x0 DUP8 DUP2 MSTORE PUSH1 0x20 ADD SWAP1 DUP2 MSTORE PUSH1 0x20 ADD PUSH1 0x0 KECCAK256 PUSH1 0x0 DUP9 PUSH20 0xFFFFFFFFFFFFFFFFFFFFFFFFFFFFFFFFFFFFFFFF AND PUSH20 0xFFFFFFFFFFFFFFFFFFFFFFFFFFFFFFFFFFFFFFFF AND DUP2 MSTORE PUSH1 0x20 ADD SWAP1 DUP2 MSTORE PUSH1 0x20 ADD PUSH1 0x0 KECCAK256 SLOAD PUSH3 0x564 PUSH1 0x20 SHL PUSH3 0x1B0D OR SWAP1 SWAP2 SWAP1 PUSH1 0x20 SHR JUMP JUMPDEST PUSH1 0x1 PUSH1 0x0 DUP7 DUP2 MSTORE PUSH1 0x20 ADD SWAP1 DUP2 MSTORE PUSH1 0x20 ADD PUSH1 0x0 KECCAK256 PUSH1 0x0 DUP8 PUSH20 0xFFFFFFFFFFFFFFFFFFFFFFFFFFFFFFFFFFFFFFFF AND PUSH20 0xFFFFFFFFFFFFFFFFFFFFFFFFFFFFFFFFFFFFFFFF AND DUP2 MSTORE PUSH1 0x20 ADD SWAP1 DUP2 MSTORE PUSH1 0x20 ADD PUSH1 0x0 KECCAK256 DUP2 SWAP1 SSTORE POP DUP5 PUSH20 0xFFFFFFFFFFFFFFFFFFFFFFFFFFFFFFFFFFFFFFFF AND PUSH1 0x0 PUSH20 0xFFFFFFFFFFFFFFFFFFFFFFFFFFFFFFFFFFFFFFFF AND DUP3 PUSH20 0xFFFFFFFFFFFFFFFFFFFFFFFFFFFFFFFFFFFFFFFF AND PUSH32 0xC3D58168C5AE7397731D063D5BBF3D657854427343F4C083240F7AACAA2D0F62 DUP8 DUP8 PUSH1 0x40 MLOAD DUP1 DUP4 DUP2 MSTORE PUSH1 0x20 ADD DUP3 DUP2 MSTORE PUSH1 0x20 ADD SWAP3 POP POP POP PUSH1 0x40 MLOAD DUP1 SWAP2 SUB SWAP1 LOG4 PUSH3 0x4E1 DUP2 PUSH1 0x0 DUP8 DUP8 DUP8 DUP8 PUSH3 0x5ED PUSH1 0x20 SHL PUSH1 0x20 SHR JUMP JUMPDEST POP POP POP POP POP JUMP JUMPDEST PUSH1 0x60 PUSH1 0x0 PUSH1 0x1 PUSH8 0xFFFFFFFFFFFFFFFF DUP2 GT DUP1 ISZERO PUSH3 0x505 JUMPI PUSH1 0x0 DUP1 REVERT JUMPDEST POP PUSH1 0x40 MLOAD SWAP1 DUP1 DUP3 MSTORE DUP1 PUSH1 0x20 MUL PUSH1 0x20 ADD DUP3 ADD PUSH1 0x40 MSTORE DUP1 ISZERO PUSH3 0x535 JUMPI DUP2 PUSH1 0x20 ADD PUSH1 0x20 DUP3 MUL DUP1 CALLDATASIZE DUP4 CALLDATACOPY DUP1 DUP3 ADD SWAP2 POP POP SWAP1 POP JUMPDEST POP SWAP1 POP DUP3 DUP2 PUSH1 0x0 DUP2 MLOAD DUP2 LT PUSH3 0x547 JUMPI INVALID JUMPDEST PUSH1 0x20 MUL PUSH1 0x20 ADD ADD DUP2 DUP2 MSTORE POP POP DUP1 SWAP2 POP POP SWAP2 SWAP1 POP JUMP JUMPDEST POP POP POP POP POP POP JUMP JUMPDEST PUSH1 0x0 DUP1 DUP3 DUP5 ADD SWAP1 POP DUP4 DUP2 LT ISZERO PUSH3 0x5E3 JUMPI PUSH1 0x40 MLOAD PUSH32 0x8C379A000000000000000000000000000000000000000000000000000000000 DUP2 MSTORE PUSH1 0x4 ADD DUP1 DUP1 PUSH1 0x20 ADD DUP3 DUP2 SUB DUP3 MSTORE PUSH1 0x1B DUP2 MSTORE PUSH1 0x20 ADD DUP1 PUSH32 0x536166654D6174683A206164646974696F6E206F766572666C6F770000000000 DUP2 MSTORE POP PUSH1 0x20 ADD SWAP2 POP POP PUSH1 0x40 MLOAD DUP1 SWAP2 SUB SWAP1 REVERT JUMPDEST DUP1 SWAP2 POP POP SWAP3 SWAP2 POP POP JUMP JUMPDEST PUSH3 0x619 DUP5 PUSH20 0xFFFFFFFFFFFFFFFFFFFFFFFFFFFFFFFFFFFFFFFF AND PUSH3 0x919 PUSH1 0x20 SHL PUSH3 0x1B95 OR PUSH1 0x20 SHR JUMP JUMPDEST ISZERO PUSH3 0x911 JUMPI DUP4 PUSH20 0xFFFFFFFFFFFFFFFFFFFFFFFFFFFFFFFFFFFFFFFF AND PUSH4 0xF23A6E61 DUP8 DUP8 DUP7 DUP7 DUP7 PUSH1 0x40 MLOAD DUP7 PUSH4 0xFFFFFFFF AND PUSH1 0xE0 SHL DUP2 MSTORE PUSH1 0x4 ADD DUP1 DUP7 PUSH20 0xFFFFFFFFFFFFFFFFFFFFFFFFFFFFFFFFFFFFFFFF AND DUP2 MSTORE PUSH1 0x20 ADD DUP6 PUSH20 0xFFFFFFFFFFFFFFFFFFFFFFFFFFFFFFFFFFFFFFFF AND DUP2 MSTORE PUSH1 0x20 ADD DUP5 DUP2 MSTORE PUSH1 0x20 ADD DUP4 DUP2 MSTORE PUSH1 0x20 ADD DUP1 PUSH1 0x20 ADD DUP3 DUP2 SUB DUP3 MSTORE DUP4 DUP2 DUP2 MLOAD DUP2 MSTORE PUSH1 0x20 ADD SWAP2 POP DUP1 MLOAD SWAP1 PUSH1 0x20 ADD SWAP1 DUP1 DUP4 DUP4 PUSH1 0x0 JUMPDEST DUP4 DUP2 LT ISZERO PUSH3 0x6D5 JUMPI DUP1 DUP3 ADD MLOAD DUP2 DUP5 ADD MSTORE PUSH1 0x20 DUP2 ADD SWAP1 POP PUSH3 0x6B8 JUMP JUMPDEST POP POP POP POP SWAP1 POP SWAP1 DUP2 ADD SWAP1 PUSH1 0x1F AND DUP1 ISZERO PUSH3 0x703 JUMPI DUP1 DUP3 SUB DUP1 MLOAD PUSH1 0x1 DUP4 PUSH1 0x20 SUB PUSH2 0x100 EXP SUB NOT AND DUP2 MSTORE PUSH1 0x20 ADD SWAP2 POP JUMPDEST POP SWAP7 POP POP POP POP POP POP POP PUSH1 0x20 PUSH1 0x40 MLOAD DUP1 DUP4 SUB DUP2 PUSH1 0x0 DUP8 DUP1 EXTCODESIZE ISZERO DUP1 ISZERO PUSH3 0x727 JUMPI PUSH1 0x0 DUP1 REVERT JUMPDEST POP GAS CALL SWAP3 POP POP POP DUP1 ISZERO PUSH3 0x75D JUMPI POP PUSH1 0x40 MLOAD RETURNDATASIZE PUSH1 0x20 DUP2 LT ISZERO PUSH3 0x749 JUMPI PUSH1 0x0 DUP1 REVERT JUMPDEST DUP2 ADD SWAP1 DUP1 DUP1 MLOAD SWAP1 PUSH1 0x20 ADD SWAP1 SWAP3 SWAP2 SWAP1 POP POP POP PUSH1 0x1 JUMPDEST PUSH3 0x870 JUMPI PUSH3 0x76C PUSH3 0xA39 JUMP JUMPDEST DUP1 PUSH3 0x779 JUMPI POP PUSH3 0x81E JUMP JUMPDEST DUP1 PUSH1 0x40 MLOAD PUSH32 0x8C379A000000000000000000000000000000000000000000000000000000000 DUP2 MSTORE PUSH1 0x4 ADD DUP1 DUP1 PUSH1 0x20 ADD DUP3 DUP2 SUB DUP3 MSTORE DUP4 DUP2 DUP2 MLOAD DUP2 MSTORE PUSH1 0x20 ADD SWAP2 POP DUP1 MLOAD SWAP1 PUSH1 0x20 ADD SWAP1 DUP1 DUP4 DUP4 PUSH1 0x0 JUMPDEST DUP4 DUP2 LT ISZERO PUSH3 0x7E2 JUMPI DUP1 DUP3 ADD MLOAD DUP2 DUP5 ADD MSTORE PUSH1 0x20 DUP2 ADD SWAP1 POP PUSH3 0x7C5 JUMP JUMPDEST POP POP POP POP SWAP1 POP SWAP1 DUP2 ADD SWAP1 PUSH1 0x1F AND DUP1 ISZERO PUSH3 0x810 JUMPI DUP1 DUP3 SUB DUP1 MLOAD PUSH1 0x1 DUP4 PUSH1 0x20 SUB PUSH2 0x100 EXP SUB NOT AND DUP2 MSTORE PUSH1 0x20 ADD SWAP2 POP JUMPDEST POP SWAP3 POP POP POP PUSH1 0x40 MLOAD DUP1 SWAP2 SUB SWAP1 REVERT JUMPDEST PUSH1 0x40 MLOAD PUSH32 0x8C379A000000000000000000000000000000000000000000000000000000000 DUP2 MSTORE PUSH1 0x4 ADD DUP1 DUP1 PUSH1 0x20 ADD DUP3 DUP2 SUB DUP3 MSTORE PUSH1 0x34 DUP2 MSTORE PUSH1 0x20 ADD DUP1 PUSH3 0x31D6 PUSH1 0x34 SWAP2 CODECOPY PUSH1 0x40 ADD SWAP2 POP POP PUSH1 0x40 MLOAD DUP1 SWAP2 SUB SWAP1 REVERT JUMPDEST PUSH4 0xF23A6E61 PUSH1 0xE0 SHL PUSH28 0xFFFFFFFFFFFFFFFFFFFFFFFFFFFFFFFFFFFFFFFFFFFFFFFFFFFFFFFF NOT AND DUP2 PUSH28 0xFFFFFFFFFFFFFFFFFFFFFFFFFFFFFFFFFFFFFFFFFFFFFFFFFFFFFFFF NOT AND EQ PUSH3 0x90F JUMPI PUSH1 0x40 MLOAD PUSH32 0x8C379A000000000000000000000000000000000000000000000000000000000 DUP2 MSTORE PUSH1 0x4 ADD DUP1 DUP1 PUSH1 0x20 ADD DUP3 DUP2 SUB DUP3 MSTORE PUSH1 0x28 DUP2 MSTORE PUSH1 0x20 ADD DUP1 PUSH3 0x320A PUSH1 0x28 SWAP2 CODECOPY PUSH1 0x40 ADD SWAP2 POP POP PUSH1 0x40 MLOAD DUP1 SWAP2 SUB SWAP1 REVERT JUMPDEST POP JUMPDEST POP POP POP POP POP POP JUMP JUMPDEST PUSH1 0x0 DUP1 PUSH1 0x0 PUSH32 0xC5D2460186F7233C927E7DB2DCC703C0E500B653CA82273B7BFAD8045D85A470 PUSH1 0x0 SHL SWAP1 POP DUP4 EXTCODEHASH SWAP2 POP DUP1 DUP3 EQ ISZERO DUP1 ISZERO PUSH3 0x95C JUMPI POP PUSH1 0x0 DUP1 SHL DUP3 EQ ISZERO JUMPDEST SWAP3 POP POP POP SWAP2 SWAP1 POP JUMP JUMPDEST DUP3 DUP1 SLOAD PUSH1 0x1 DUP2 PUSH1 0x1 AND ISZERO PUSH2 0x100 MUL SUB AND PUSH1 0x2 SWAP1 DIV SWAP1 PUSH1 0x0 MSTORE PUSH1 0x20 PUSH1 0x0 KECCAK256 SWAP1 PUSH1 0x1F ADD PUSH1 0x20 SWAP1 DIV DUP2 ADD SWAP3 DUP3 PUSH3 0x99D JUMPI PUSH1 0x0 DUP6 SSTORE PUSH3 0x9E9 JUMP JUMPDEST DUP3 PUSH1 0x1F LT PUSH3 0x9B8 JUMPI DUP1 MLOAD PUSH1 0xFF NOT AND DUP4 DUP1 ADD OR DUP6 SSTORE PUSH3 0x9E9 JUMP JUMPDEST DUP3 DUP1 ADD PUSH1 0x1 ADD DUP6 SSTORE DUP3 ISZERO PUSH3 0x9E9 JUMPI SWAP2 DUP3 ADD JUMPDEST DUP3 DUP2 GT ISZERO PUSH3 0x9E8 JUMPI DUP3 MLOAD DUP3 SSTORE SWAP2 PUSH1 0x20 ADD SWAP2 SWAP1 PUSH1 0x1 ADD SWAP1 PUSH3 0x9CB JUMP JUMPDEST JUMPDEST POP SWAP1 POP PUSH3 0x9F8 SWAP2 SWAP1 PUSH3 0x9FC JUMP JUMPDEST POP SWAP1 JUMP JUMPDEST JUMPDEST DUP1 DUP3 GT ISZERO PUSH3 0xA17 JUMPI PUSH1 0x0 DUP2 PUSH1 0x0 SWAP1 SSTORE POP PUSH1 0x1 ADD PUSH3 0x9FD JUMP JUMPDEST POP SWAP1 JUMP JUMPDEST PUSH1 0x0 PUSH1 0x1F NOT PUSH1 0x1F DUP4 ADD AND SWAP1 POP SWAP2 SWAP1 POP JUMP JUMPDEST PUSH1 0x0 DUP2 PUSH1 0xE0 SHR SWAP1 POP SWAP2 SWAP1 POP JUMP JUMPDEST PUSH1 0x0 PUSH1 0x44 RETURNDATASIZE LT ISZERO PUSH3 0xA4B JUMPI PUSH3 0xAFA JUMP JUMPDEST PUSH1 0x4 PUSH1 0x0 DUP1 RETURNDATACOPY PUSH3 0xA5E PUSH1 0x0 MLOAD PUSH3 0xA2C JUMP JUMPDEST PUSH4 0x8C379A0 DUP2 EQ PUSH3 0xA71 JUMPI POP PUSH3 0xAFA JUMP JUMPDEST PUSH1 0x40 MLOAD PUSH1 0x4 RETURNDATASIZE SUB PUSH1 0x4 DUP3 RETURNDATACOPY DUP1 MLOAD RETURNDATASIZE PUSH1 0x24 DUP3 ADD GT PUSH8 0xFFFFFFFFFFFFFFFF DUP3 GT OR ISZERO PUSH3 0xA9F JUMPI POP POP POP PUSH3 0xAFA JUMP JUMPDEST DUP1 DUP3 ADD DUP1 MLOAD PUSH8 0xFFFFFFFFFFFFFFFF DUP2 GT ISZERO PUSH3 0xAC0 JUMPI POP POP POP POP POP PUSH3 0xAFA JUMP JUMPDEST DUP1 PUSH1 0x20 DUP4 ADD ADD RETURNDATASIZE DUP6 ADD DUP2 GT ISZERO PUSH3 0xADD JUMPI POP POP POP POP POP POP PUSH3 0xAFA JUMP JUMPDEST PUSH3 0xAE8 DUP3 PUSH3 0xA1B JUMP JUMPDEST PUSH1 0x20 DUP5 ADD ADD PUSH1 0x40 MSTORE DUP3 SWAP7 POP POP POP POP POP POP POP JUMPDEST SWAP1 JUMP JUMPDEST PUSH2 0x26C9 DUP1 PUSH3 0xB0D PUSH1 0x0 CODECOPY PUSH1 0x0 RETURN INVALID PUSH1 0x80 PUSH1 0x40 MSTORE CALLVALUE DUP1 ISZERO PUSH2 0x10 JUMPI PUSH1 0x0 DUP1 REVERT JUMPDEST POP PUSH1 0x4 CALLDATASIZE LT PUSH2 0xFF JUMPI PUSH1 0x0 CALLDATALOAD PUSH1 0xE0 SHR DUP1 PUSH4 0x715018A6 GT PUSH2 0x97 JUMPI DUP1 PUSH4 0xE3E55F08 GT PUSH2 0x66 JUMPI DUP1 PUSH4 0xE3E55F08 EQ PUSH2 0x73A JUMPI DUP1 PUSH4 0xE985E9C5 EQ PUSH2 0x758 JUMPI DUP1 PUSH4 0xF242432A EQ PUSH2 0x7D2 JUMPI DUP1 PUSH4 0xF2FDE38B EQ PUSH2 0x8E1 JUMPI PUSH2 0xFF JUMP JUMPDEST DUP1 PUSH4 0x715018A6 EQ PUSH2 0x68E JUMPI DUP1 PUSH4 0x8DA5CB5B EQ PUSH2 0x698 JUMPI DUP1 PUSH4 0xA22CB465 EQ PUSH2 0x6CC JUMPI DUP1 PUSH4 0xD562E204 EQ PUSH2 0x71C JUMPI PUSH2 0xFF JUMP JUMPDEST DUP1 PUSH4 0x2EB2C2D6 GT PUSH2 0xD3 JUMPI DUP1 PUSH4 0x2EB2C2D6 EQ PUSH2 0x28E JUMPI DUP1 PUSH4 0x3E4BEE38 EQ PUSH2 0x4B1 JUMPI DUP1 PUSH4 0x4E1273F4 EQ PUSH2 0x4CF JUMPI DUP1 PUSH4 0x5B2725ED EQ PUSH2 0x670 JUMPI PUSH2 0xFF JUMP JUMPDEST DUP1 PUSH3 0xFDD58E EQ PUSH2 0x104 JUMPI DUP1 PUSH4 0x1FFC9A7 EQ PUSH2 0x166 JUMPI DUP1 PUSH4 0xE89341C EQ PUSH2 0x1C9 JUMPI DUP1 PUSH4 0x13DC989F EQ PUSH2 0x270 JUMPI JUMPDEST PUSH1 0x0 DUP1 REVERT JUMPDEST PUSH2 0x150 PUSH1 0x4 DUP1 CALLDATASIZE SUB PUSH1 0x40 DUP2 LT ISZERO PUSH2 0x11A JUMPI PUSH1 0x0 DUP1 REVERT JUMPDEST DUP2 ADD SWAP1 DUP1 DUP1 CALLDATALOAD PUSH20 0xFFFFFFFFFFFFFFFFFFFFFFFFFFFFFFFFFFFFFFFF AND SWAP1 PUSH1 0x20 ADD SWAP1 SWAP3 SWAP2 SWAP1 DUP1 CALLDATALOAD SWAP1 PUSH1 0x20 ADD SWAP1 SWAP3 SWAP2 SWAP1 POP POP POP PUSH2 0x925 JUMP JUMPDEST PUSH1 0x40 MLOAD DUP1 DUP3 DUP2 MSTORE PUSH1 0x20 ADD SWAP2 POP POP PUSH1 0x40 MLOAD DUP1 SWAP2 SUB SWAP1 RETURN JUMPDEST PUSH2 0x1B1 PUSH1 0x4 DUP1 CALLDATASIZE SUB PUSH1 0x20 DUP2 LT ISZERO PUSH2 0x17C JUMPI PUSH1 0x0 DUP1 REVERT JUMPDEST DUP2 ADD SWAP1 DUP1 DUP1 CALLDATALOAD PUSH28 0xFFFFFFFFFFFFFFFFFFFFFFFFFFFFFFFFFFFFFFFFFFFFFFFFFFFFFFFF NOT AND SWAP1 PUSH1 0x20 ADD SWAP1 SWAP3 SWAP2 SWAP1 POP POP POP PUSH2 0xA05 JUMP JUMPDEST PUSH1 0x40 MLOAD DUP1 DUP3 ISZERO ISZERO DUP2 MSTORE PUSH1 0x20 ADD SWAP2 POP POP PUSH1 0x40 MLOAD DUP1 SWAP2 SUB SWAP1 RETURN JUMPDEST PUSH2 0x1F5 PUSH1 0x4 DUP1 CALLDATASIZE SUB PUSH1 0x20 DUP2 LT ISZERO PUSH2 0x1DF JUMPI PUSH1 0x0 DUP1 REVERT JUMPDEST DUP2 ADD SWAP1 DUP1 DUP1 CALLDATALOAD SWAP1 PUSH1 0x20 ADD SWAP1 SWAP3 SWAP2 SWAP1 POP POP POP PUSH2 0xA6C JUMP JUMPDEST PUSH1 0x40 MLOAD DUP1 DUP1 PUSH1 0x20 ADD DUP3 DUP2 SUB DUP3 MSTORE DUP4 DUP2 DUP2 MLOAD DUP2 MSTORE PUSH1 0x20 ADD SWAP2 POP DUP1 MLOAD SWAP1 PUSH1 0x20 ADD SWAP1 DUP1 DUP4 DUP4 PUSH1 0x0 JUMPDEST DUP4 DUP2 LT ISZERO PUSH2 0x235 JUMPI DUP1 DUP3 ADD MLOAD DUP2 DUP5 ADD MSTORE PUSH1 0x20 DUP2 ADD SWAP1 POP PUSH2 0x21A JUMP JUMPDEST POP POP POP POP SWAP1 POP SWAP1 DUP2 ADD SWAP1 PUSH1 0x1F AND DUP1 ISZERO PUSH2 0x262 JUMPI DUP1 DUP3 SUB DUP1 MLOAD PUSH1 0x1 DUP4 PUSH1 0x20 SUB PUSH2 0x100 EXP SUB NOT AND DUP2 MSTORE PUSH1 0x20 ADD SWAP2 POP JUMPDEST POP SWAP3 POP POP POP PUSH1 0x40 MLOAD DUP1 SWAP2 SUB SWAP1 RETURN JUMPDEST PUSH2 0x278 PUSH2 0xB10 JUMP JUMPDEST PUSH1 0x40 MLOAD DUP1 DUP3 DUP2 MSTORE PUSH1 0x20 ADD SWAP2 POP POP PUSH1 0x40 MLOAD DUP1 SWAP2 SUB SWAP1 RETURN JUMPDEST PUSH2 0x4AF PUSH1 0x4 DUP1 CALLDATASIZE SUB PUSH1 0xA0 DUP2 LT ISZERO PUSH2 0x2A4 JUMPI PUSH1 0x0 DUP1 REVERT JUMPDEST DUP2 ADD SWAP1 DUP1 DUP1 CALLDATALOAD PUSH20 0xFFFFFFFFFFFFFFFFFFFFFFFFFFFFFFFFFFFFFFFF AND SWAP1 PUSH1 0x20 ADD SWAP1 SWAP3 SWAP2 SWAP1 DUP1 CALLDATALOAD PUSH20 0xFFFFFFFFFFFFFFFFFFFFFFFFFFFFFFFFFFFFFFFF AND SWAP1 PUSH1 0x20 ADD SWAP1 SWAP3 SWAP2 SWAP1 DUP1 CALLDATALOAD SWAP1 PUSH1 0x20 ADD SWAP1 PUSH5 0x100000000 DUP2 GT ISZERO PUSH2 0x301 JUMPI PUSH1 0x0 DUP1 REVERT JUMPDEST DUP3 ADD DUP4 PUSH1 0x20 DUP3 ADD GT ISZERO PUSH2 0x313 JUMPI PUSH1 0x0 DUP1 REVERT JUMPDEST DUP1 CALLDATALOAD SWAP1 PUSH1 0x20 ADD SWAP2 DUP5 PUSH1 0x20 DUP4 MUL DUP5 ADD GT PUSH5 0x100000000 DUP4 GT OR ISZERO PUSH2 0x335 JUMPI PUSH1 0x0 DUP1 REVERT JUMPDEST SWAP2 SWAP1 DUP1 DUP1 PUSH1 0x20 MUL PUSH1 0x20 ADD PUSH1 0x40 MLOAD SWAP1 DUP2 ADD PUSH1 0x40 MSTORE DUP1 SWAP4 SWAP3 SWAP2 SWAP1 DUP2 DUP2 MSTORE PUSH1 0x20 ADD DUP4 DUP4 PUSH1 0x20 MUL DUP1 DUP3 DUP5 CALLDATACOPY PUSH1 0x0 DUP2 DUP5 ADD MSTORE PUSH1 0x1F NOT PUSH1 0x1F DUP3 ADD AND SWAP1 POP DUP1 DUP4 ADD SWAP3 POP POP POP POP POP POP POP SWAP2 SWAP3 SWAP2 SWAP3 SWAP1 DUP1 CALLDATALOAD SWAP1 PUSH1 0x20 ADD SWAP1 PUSH5 0x100000000 DUP2 GT ISZERO PUSH2 0x395 JUMPI PUSH1 0x0 DUP1 REVERT JUMPDEST DUP3 ADD DUP4 PUSH1 0x20 DUP3 ADD GT ISZERO PUSH2 0x3A7 JUMPI PUSH1 0x0 DUP1 REVERT JUMPDEST DUP1 CALLDATALOAD SWAP1 PUSH1 0x20 ADD SWAP2 DUP5 PUSH1 0x20 DUP4 MUL DUP5 ADD GT PUSH5 0x100000000 DUP4 GT OR ISZERO PUSH2 0x3C9 JUMPI PUSH1 0x0 DUP1 REVERT JUMPDEST SWAP2 SWAP1 DUP1 DUP1 PUSH1 0x20 MUL PUSH1 0x20 ADD PUSH1 0x40 MLOAD SWAP1 DUP2 ADD PUSH1 0x40 MSTORE DUP1 SWAP4 SWAP3 SWAP2 SWAP1 DUP2 DUP2 MSTORE PUSH1 0x20 ADD DUP4 DUP4 PUSH1 0x20 MUL DUP1 DUP3 DUP5 CALLDATACOPY PUSH1 0x0 DUP2 DUP5 ADD MSTORE PUSH1 0x1F NOT PUSH1 0x1F DUP3 ADD AND SWAP1 POP DUP1 DUP4 ADD SWAP3 POP POP POP POP POP POP POP SWAP2 SWAP3 SWAP2 SWAP3 SWAP1 DUP1 CALLDATALOAD SWAP1 PUSH1 0x20 ADD SWAP1 PUSH5 0x100000000 DUP2 GT ISZERO PUSH2 0x429 JUMPI PUSH1 0x0 DUP1 REVERT JUMPDEST DUP3 ADD DUP4 PUSH1 0x20 DUP3 ADD GT ISZERO PUSH2 0x43B JUMPI PUSH1 0x0 DUP1 REVERT JUMPDEST DUP1 CALLDATALOAD SWAP1 PUSH1 0x20 ADD SWAP2 DUP5 PUSH1 0x1 DUP4 MUL DUP5 ADD GT PUSH5 0x100000000 DUP4 GT OR ISZERO PUSH2 0x45D JUMPI PUSH1 0x0 DUP1 REVERT JUMPDEST SWAP2 SWAP1 DUP1 DUP1 PUSH1 0x1F ADD PUSH1 0x20 DUP1 SWAP2 DIV MUL PUSH1 0x20 ADD PUSH1 0x40 MLOAD SWAP1 DUP2 ADD PUSH1 0x40 MSTORE DUP1 SWAP4 SWAP3 SWAP2 SWAP1 DUP2 DUP2 MSTORE PUSH1 0x20 ADD DUP4 DUP4 DUP1 DUP3 DUP5 CALLDATACOPY PUSH1 0x0 DUP2 DUP5 ADD MSTORE PUSH1 0x1F NOT PUSH1 0x1F DUP3 ADD AND SWAP1 POP DUP1 DUP4 ADD SWAP3 POP POP POP POP POP POP POP SWAP2 SWAP3 SWAP2 SWAP3 SWAP1 POP POP POP PUSH2 0xB15 JUMP JUMPDEST STOP JUMPDEST PUSH2 0x4B9 PUSH2 0xFA0 JUMP JUMPDEST PUSH1 0x40 MLOAD DUP1 DUP3 DUP2 MSTORE PUSH1 0x20 ADD SWAP2 POP POP PUSH1 0x40 MLOAD DUP1 SWAP2 SUB SWAP1 RETURN JUMPDEST PUSH2 0x619 PUSH1 0x4 DUP1 CALLDATASIZE SUB PUSH1 0x40 DUP2 LT ISZERO PUSH2 0x4E5 JUMPI PUSH1 0x0 DUP1 REVERT JUMPDEST DUP2 ADD SWAP1 DUP1 DUP1 CALLDATALOAD SWAP1 PUSH1 0x20 ADD SWAP1 PUSH5 0x100000000 DUP2 GT ISZERO PUSH2 0x502 JUMPI PUSH1 0x0 DUP1 REVERT JUMPDEST DUP3 ADD DUP4 PUSH1 0x20 DUP3 ADD GT ISZERO PUSH2 0x514 JUMPI PUSH1 0x0 DUP1 REVERT JUMPDEST DUP1 CALLDATALOAD SWAP1 PUSH1 0x20 ADD SWAP2 DUP5 PUSH1 0x20 DUP4 MUL DUP5 ADD GT PUSH5 0x100000000 DUP4 GT OR ISZERO PUSH2 0x536 JUMPI PUSH1 0x0 DUP1 REVERT JUMPDEST SWAP2 SWAP1 DUP1 DUP1 PUSH1 0x20 MUL PUSH1 0x20 ADD PUSH1 0x40 MLOAD SWAP1 DUP2 ADD PUSH1 0x40 MSTORE DUP1 SWAP4 SWAP3 SWAP2 SWAP1 DUP2 DUP2 MSTORE PUSH1 0x20 ADD DUP4 DUP4 PUSH1 0x20 MUL DUP1 DUP3 DUP5 CALLDATACOPY PUSH1 0x0 DUP2 DUP5 ADD MSTORE PUSH1 0x1F NOT PUSH1 0x1F DUP3 ADD AND SWAP1 POP DUP1 DUP4 ADD SWAP3 POP POP POP POP POP POP POP SWAP2 SWAP3 SWAP2 SWAP3 SWAP1 DUP1 CALLDATALOAD SWAP1 PUSH1 0x20 ADD SWAP1 PUSH5 0x100000000 DUP2 GT ISZERO PUSH2 0x596 JUMPI PUSH1 0x0 DUP1 REVERT JUMPDEST DUP3 ADD DUP4 PUSH1 0x20 DUP3 ADD GT ISZERO PUSH2 0x5A8 JUMPI PUSH1 0x0 DUP1 REVERT JUMPDEST DUP1 CALLDATALOAD SWAP1 PUSH1 0x20 ADD SWAP2 DUP5 PUSH1 0x20 DUP4 MUL DUP5 ADD GT PUSH5 0x100000000 DUP4 GT OR ISZERO PUSH2 0x5CA JUMPI PUSH1 0x0 DUP1 REVERT JUMPDEST SWAP2 SWAP1 DUP1 DUP1 PUSH1 0x20 MUL PUSH1 0x20 ADD PUSH1 0x40 MLOAD SWAP1 DUP2 ADD PUSH1 0x40 MSTORE DUP1 SWAP4 SWAP3 SWAP2 SWAP1 DUP2 DUP2 MSTORE PUSH1 0x20 ADD DUP4 DUP4 PUSH1 0x20 MUL DUP1 DUP3 DUP5 CALLDATACOPY PUSH1 0x0 DUP2 DUP5 ADD MSTORE PUSH1 0x1F NOT PUSH1 0x1F DUP3 ADD AND SWAP1 POP DUP1 DUP4 ADD SWAP3 POP POP POP POP POP POP POP SWAP2 SWAP3 SWAP2 SWAP3 SWAP1 POP POP POP PUSH2 0xFA5 JUMP JUMPDEST PUSH1 0x40 MLOAD DUP1 DUP1 PUSH1 0x20 ADD DUP3 DUP2 SUB DUP3 MSTORE DUP4 DUP2 DUP2 MLOAD DUP2 MSTORE PUSH1 0x20 ADD SWAP2 POP DUP1 MLOAD SWAP1 PUSH1 0x20 ADD SWAP1 PUSH1 0x20 MUL DUP1 DUP4 DUP4 PUSH1 0x0 JUMPDEST DUP4 DUP2 LT ISZERO PUSH2 0x65C JUMPI DUP1 DUP3 ADD MLOAD DUP2 DUP5 ADD MSTORE PUSH1 0x20 DUP2 ADD SWAP1 POP PUSH2 0x641 JUMP JUMPDEST POP POP POP POP SWAP1 POP ADD SWAP3 POP POP POP PUSH1 0x40 MLOAD DUP1 SWAP2 SUB SWAP1 RETURN JUMPDEST PUSH2 0x678 PUSH2 0x1197 JUMP JUMPDEST PUSH1 0x40 MLOAD DUP1 DUP3 DUP2 MSTORE PUSH1 0x20 ADD SWAP2 POP POP PUSH1 0x40 MLOAD DUP1 SWAP2 SUB SWAP1 RETURN JUMPDEST PUSH2 0x696 PUSH2 0x119C JUMP JUMPDEST STOP JUMPDEST PUSH2 0x6A0 PUSH2 0x1327 JUMP JUMPDEST PUSH1 0x40 MLOAD DUP1 DUP3 PUSH20 0xFFFFFFFFFFFFFFFFFFFFFFFFFFFFFFFFFFFFFFFF AND DUP2 MSTORE PUSH1 0x20 ADD SWAP2 POP POP PUSH1 0x40 MLOAD DUP1 SWAP2 SUB SWAP1 RETURN JUMPDEST PUSH2 0x71A PUSH1 0x4 DUP1 CALLDATASIZE SUB PUSH1 0x40 DUP2 LT ISZERO PUSH2 0x6E2 JUMPI PUSH1 0x0 DUP1 REVERT JUMPDEST DUP2 ADD SWAP1 DUP1 DUP1 CALLDATALOAD PUSH20 0xFFFFFFFFFFFFFFFFFFFFFFFFFFFFFFFFFFFFFFFF AND SWAP1 PUSH1 0x20 ADD SWAP1 SWAP3 SWAP2 SWAP1 DUP1 CALLDATALOAD ISZERO ISZERO SWAP1 PUSH1 0x20 ADD SWAP1 SWAP3 SWAP2 SWAP1 POP POP POP PUSH2 0x1351 JUMP JUMPDEST STOP JUMPDEST PUSH2 0x724 PUSH2 0x14EA JUMP JUMPDEST PUSH1 0x40 MLOAD DUP1 DUP3 DUP2 MSTORE PUSH1 0x20 ADD SWAP2 POP POP PUSH1 0x40 MLOAD DUP1 SWAP2 SUB SWAP1 RETURN JUMPDEST PUSH2 0x742 PUSH2 0x14EF JUMP JUMPDEST PUSH1 0x40 MLOAD DUP1 DUP3 DUP2 MSTORE PUSH1 0x20 ADD SWAP2 POP POP PUSH1 0x40 MLOAD DUP1 SWAP2 SUB SWAP1 RETURN JUMPDEST PUSH2 0x7BA PUSH1 0x4 DUP1 CALLDATASIZE SUB PUSH1 0x40 DUP2 LT ISZERO PUSH2 0x76E JUMPI PUSH1 0x0 DUP1 REVERT JUMPDEST DUP2 ADD SWAP1 DUP1 DUP1 CALLDATALOAD PUSH20 0xFFFFFFFFFFFFFFFFFFFFFFFFFFFFFFFFFFFFFFFF AND SWAP1 PUSH1 0x20 ADD SWAP1 SWAP3 SWAP2 SWAP1 DUP1 CALLDATALOAD PUSH20 0xFFFFFFFFFFFFFFFFFFFFFFFFFFFFFFFFFFFFFFFF AND SWAP1 PUSH1 0x20 ADD SWAP1 SWAP3 SWAP2 SWAP1 POP POP POP PUSH2 0x14F4 JUMP JUMPDEST PUSH1 0x40 MLOAD DUP1 DUP3 ISZERO ISZERO DUP2 MSTORE PUSH1 0x20 ADD SWAP2 POP POP PUSH1 0x40 MLOAD DUP1 SWAP2 SUB SWAP1 RETURN JUMPDEST PUSH2 0x8DF PUSH1 0x4 DUP1 CALLDATASIZE SUB PUSH1 0xA0 DUP2 LT ISZERO PUSH2 0x7E8 JUMPI PUSH1 0x0 DUP1 REVERT JUMPDEST DUP2 ADD SWAP1 DUP1 DUP1 CALLDATALOAD PUSH20 0xFFFFFFFFFFFFFFFFFFFFFFFFFFFFFFFFFFFFFFFF AND SWAP1 PUSH1 0x20 ADD SWAP1 SWAP3 SWAP2 SWAP1 DUP1 CALLDATALOAD PUSH20 0xFFFFFFFFFFFFFFFFFFFFFFFFFFFFFFFFFFFFFFFF AND SWAP1 PUSH1 0x20 ADD SWAP1 SWAP3 SWAP2 SWAP1 DUP1 CALLDATALOAD SWAP1 PUSH1 0x20 ADD SWAP1 SWAP3 SWAP2 SWAP1 DUP1 CALLDATALOAD SWAP1 PUSH1 0x20 ADD SWAP1 SWAP3 SWAP2 SWAP1 DUP1 CALLDATALOAD SWAP1 PUSH1 0x20 ADD SWAP1 PUSH5 0x100000000 DUP2 GT ISZERO PUSH2 0x859 JUMPI PUSH1 0x0 DUP1 REVERT JUMPDEST DUP3 ADD DUP4 PUSH1 0x20 DUP3 ADD GT ISZERO PUSH2 0x86B JUMPI PUSH1 0x0 DUP1 REVERT JUMPDEST DUP1 CALLDATALOAD SWAP1 PUSH1 0x20 ADD SWAP2 DUP5 PUSH1 0x1 DUP4 MUL DUP5 ADD GT PUSH5 0x100000000 DUP4 GT OR ISZERO PUSH2 0x88D JUMPI PUSH1 0x0 DUP1 REVERT JUMPDEST SWAP2 SWAP1 DUP1 DUP1 PUSH1 0x1F ADD PUSH1 0x20 DUP1 SWAP2 DIV MUL PUSH1 0x20 ADD PUSH1 0x40 MLOAD SWAP1 DUP2 ADD PUSH1 0x40 MSTORE DUP1 SWAP4 SWAP3 SWAP2 SWAP1 DUP2 DUP2 MSTORE PUSH1 0x20 ADD DUP4 DUP4 DUP1 DUP3 DUP5 CALLDATACOPY PUSH1 0x0 DUP2 DUP5 ADD MSTORE PUSH1 0x1F NOT PUSH1 0x1F DUP3 ADD AND SWAP1 POP DUP1 DUP4 ADD SWAP3 POP POP POP POP POP POP POP SWAP2 SWAP3 SWAP2 SWAP3 SWAP1 POP POP POP PUSH2 0x1588 JUMP JUMPDEST STOP JUMPDEST PUSH2 0x923 PUSH1 0x4 DUP1 CALLDATASIZE SUB PUSH1 0x20 DUP2 LT ISZERO PUSH2 0x8F7 JUMPI PUSH1 0x0 DUP1 REVERT JUMPDEST DUP2 ADD SWAP1 DUP1 DUP1 CALLDATALOAD PUSH20 0xFFFFFFFFFFFFFFFFFFFFFFFFFFFFFFFFFFFFFFFF AND SWAP1 PUSH1 0x20 ADD SWAP1 SWAP3 SWAP2 SWAP1 POP POP POP PUSH2 0x18FD JUMP JUMPDEST STOP JUMPDEST PUSH1 0x0 DUP1 PUSH20 0xFFFFFFFFFFFFFFFFFFFFFFFFFFFFFFFFFFFFFFFF AND DUP4 PUSH20 0xFFFFFFFFFFFFFFFFFFFFFFFFFFFFFFFFFFFFFFFF AND EQ ISZERO PUSH2 0x9AC JUMPI PUSH1 0x40 MLOAD PUSH32 0x8C379A000000000000000000000000000000000000000000000000000000000 DUP2 MSTORE PUSH1 0x4 ADD DUP1 DUP1 PUSH1 0x20 ADD DUP3 DUP2 SUB DUP3 MSTORE PUSH1 0x2B DUP2 MSTORE PUSH1 0x20 ADD DUP1 PUSH2 0x24EE PUSH1 0x2B SWAP2 CODECOPY PUSH1 0x40 ADD SWAP2 POP POP PUSH1 0x40 MLOAD DUP1 SWAP2 SUB SWAP1 REVERT JUMPDEST PUSH1 0x1 PUSH1 0x0 DUP4 DUP2 MSTORE PUSH1 0x20 ADD SWAP1 DUP2 MSTORE PUSH1 0x20 ADD PUSH1 0x0 KECCAK256 PUSH1 0x0 DUP5 PUSH20 0xFFFFFFFFFFFFFFFFFFFFFFFFFFFFFFFFFFFFFFFF AND PUSH20 0xFFFFFFFFFFFFFFFFFFFFFFFFFFFFFFFFFFFFFFFF AND DUP2 MSTORE PUSH1 0x20 ADD SWAP1 DUP2 MSTORE PUSH1 0x20 ADD PUSH1 0x0 KECCAK256 SLOAD SWAP1 POP SWAP3 SWAP2 POP POP JUMP JUMPDEST PUSH1 0x0 DUP1 PUSH1 0x0 DUP4 PUSH28 0xFFFFFFFFFFFFFFFFFFFFFFFFFFFFFFFFFFFFFFFFFFFFFFFFFFFFFFFF NOT AND PUSH28 0xFFFFFFFFFFFFFFFFFFFFFFFFFFFFFFFFFFFFFFFFFFFFFFFFFFFFFFFF NOT AND DUP2 MSTORE PUSH1 0x20 ADD SWAP1 DUP2 MSTORE PUSH1 0x20 ADD PUSH1 0x0 KECCAK256 PUSH1 0x0 SWAP1 SLOAD SWAP1 PUSH2 0x100 EXP SWAP1 DIV PUSH1 0xFF AND SWAP1 POP SWAP2 SWAP1 POP JUMP JUMPDEST PUSH1 0x60 PUSH1 0x3 DUP1 SLOAD PUSH1 0x1 DUP2 PUSH1 0x1 AND ISZERO PUSH2 0x100 MUL SUB AND PUSH1 0x2 SWAP1 DIV DUP1 PUSH1 0x1F ADD PUSH1 0x20 DUP1 SWAP2 DIV MUL PUSH1 0x20 ADD PUSH1 0x40 MLOAD SWAP1 DUP2 ADD PUSH1 0x40 MSTORE DUP1 SWAP3 SWAP2 SWAP1 DUP2 DUP2 MSTORE PUSH1 0x20 ADD DUP3 DUP1 SLOAD PUSH1 0x1 DUP2 PUSH1 0x1 AND ISZERO PUSH2 0x100 MUL SUB AND PUSH1 0x2 SWAP1 DIV DUP1 ISZERO PUSH2 0xB04 JUMPI DUP1 PUSH1 0x1F LT PUSH2 0xAD9 JUMPI PUSH2 0x100 DUP1 DUP4 SLOAD DIV MUL DUP4 MSTORE SWAP2 PUSH1 0x20 ADD SWAP2 PUSH2 0xB04 JUMP JUMPDEST DUP3 ADD SWAP2 SWAP1 PUSH1 0x0 MSTORE PUSH1 0x20 PUSH1 0x0 KECCAK256 SWAP1 JUMPDEST DUP2 SLOAD DUP2 MSTORE SWAP1 PUSH1 0x1 ADD SWAP1 PUSH1 0x20 ADD DUP1 DUP4 GT PUSH2 0xAE7 JUMPI DUP3 SWAP1 SUB PUSH1 0x1F AND DUP3 ADD SWAP2 JUMPDEST POP POP POP POP POP SWAP1 POP SWAP2 SWAP1 POP JUMP JUMPDEST PUSH1 0x3 DUP2 JUMP JUMPDEST DUP2 MLOAD DUP4 MLOAD EQ PUSH2 0xB6F JUMPI PUSH1 0x40 MLOAD PUSH32 0x8C379A000000000000000000000000000000000000000000000000000000000 DUP2 MSTORE PUSH1 0x4 ADD DUP1 DUP1 PUSH1 0x20 ADD DUP3 DUP2 SUB DUP3 MSTORE PUSH1 0x28 DUP2 MSTORE PUSH1 0x20 ADD DUP1 PUSH2 0x266C PUSH1 0x28 SWAP2 CODECOPY PUSH1 0x40 ADD SWAP2 POP POP PUSH1 0x40 MLOAD DUP1 SWAP2 SUB SWAP1 REVERT JUMPDEST PUSH1 0x0 PUSH20 0xFFFFFFFFFFFFFFFFFFFFFFFFFFFFFFFFFFFFFFFF AND DUP5 PUSH20 0xFFFFFFFFFFFFFFFFFFFFFFFFFFFFFFFFFFFFFFFF AND EQ ISZERO PUSH2 0xBF5 JUMPI PUSH1 0x40 MLOAD PUSH32 0x8C379A000000000000000000000000000000000000000000000000000000000 DUP2 MSTORE PUSH1 0x4 ADD DUP1 DUP1 PUSH1 0x20 ADD DUP3 DUP2 SUB DUP3 MSTORE PUSH1 0x25 DUP2 MSTORE PUSH1 0x20 ADD DUP1 PUSH2 0x2599 PUSH1 0x25 SWAP2 CODECOPY PUSH1 0x40 ADD SWAP2 POP POP PUSH1 0x40 MLOAD DUP1 SWAP2 SUB SWAP1 REVERT JUMPDEST PUSH2 0xBFD PUSH2 0x1BE0 JUMP JUMPDEST PUSH20 0xFFFFFFFFFFFFFFFFFFFFFFFFFFFFFFFFFFFFFFFF AND DUP6 PUSH20 0xFFFFFFFFFFFFFFFFFFFFFFFFFFFFFFFFFFFFFFFF AND EQ DUP1 PUSH2 0xC43 JUMPI POP PUSH2 0xC42 DUP6 PUSH2 0xC3D PUSH2 0x1BE0 JUMP JUMPDEST PUSH2 0x14F4 JUMP JUMPDEST JUMPDEST PUSH2 0xC98 JUMPI PUSH1 0x40 MLOAD PUSH32 0x8C379A000000000000000000000000000000000000000000000000000000000 DUP2 MSTORE PUSH1 0x4 ADD DUP1 DUP1 PUSH1 0x20 ADD DUP3 DUP2 SUB DUP3 MSTORE PUSH1 0x32 DUP2 MSTORE PUSH1 0x20 ADD DUP1 PUSH2 0x25BE PUSH1 0x32 SWAP2 CODECOPY PUSH1 0x40 ADD SWAP2 POP POP PUSH1 0x40 MLOAD DUP1 SWAP2 SUB SWAP1 REVERT JUMPDEST PUSH1 0x0 PUSH2 0xCA2 PUSH2 0x1BE0 JUMP JUMPDEST SWAP1 POP PUSH2 0xCB2 DUP2 DUP8 DUP8 DUP8 DUP8 DUP8 PUSH2 0x1BE8 JUMP JUMPDEST PUSH1 0x0 JUMPDEST DUP5 MLOAD DUP2 LT ISZERO PUSH2 0xE83 JUMPI PUSH1 0x0 DUP6 DUP3 DUP2 MLOAD DUP2 LT PUSH2 0xCCC JUMPI INVALID JUMPDEST PUSH1 0x20 MUL PUSH1 0x20 ADD ADD MLOAD SWAP1 POP PUSH1 0x0 DUP6 DUP4 DUP2 MLOAD DUP2 LT PUSH2 0xCE4 JUMPI INVALID JUMPDEST PUSH1 0x20 MUL PUSH1 0x20 ADD ADD MLOAD SWAP1 POP PUSH2 0xD6B DUP2 PUSH1 0x40 MLOAD DUP1 PUSH1 0x60 ADD PUSH1 0x40 MSTORE DUP1 PUSH1 0x2A DUP2 MSTORE PUSH1 0x20 ADD PUSH2 0x25F0 PUSH1 0x2A SWAP2 CODECOPY PUSH1 0x1 PUSH1 0x0 DUP7 DUP2 MSTORE PUSH1 0x20 ADD SWAP1 DUP2 MSTORE PUSH1 0x20 ADD PUSH1 0x0 KECCAK256 PUSH1 0x0 DUP14 PUSH20 0xFFFFFFFFFFFFFFFFFFFFFFFFFFFFFFFFFFFFFFFF AND PUSH20 0xFFFFFFFFFFFFFFFFFFFFFFFFFFFFFFFFFFFFFFFF AND DUP2 MSTORE PUSH1 0x20 ADD SWAP1 DUP2 MSTORE PUSH1 0x20 ADD PUSH1 0x0 KECCAK256 SLOAD PUSH2 0x1BF0 SWAP1 SWAP3 SWAP2 SWAP1 PUSH4 0xFFFFFFFF AND JUMP JUMPDEST PUSH1 0x1 PUSH1 0x0 DUP5 DUP2 MSTORE PUSH1 0x20 ADD SWAP1 DUP2 MSTORE PUSH1 0x20 ADD PUSH1 0x0 KECCAK256 PUSH1 0x0 DUP12 PUSH20 0xFFFFFFFFFFFFFFFFFFFFFFFFFFFFFFFFFFFFFFFF AND PUSH20 0xFFFFFFFFFFFFFFFFFFFFFFFFFFFFFFFFFFFFFFFF AND DUP2 MSTORE PUSH1 0x20 ADD SWAP1 DUP2 MSTORE PUSH1 0x20 ADD PUSH1 0x0 KECCAK256 DUP2 SWAP1 SSTORE POP PUSH2 0xE22 DUP2 PUSH1 0x1 PUSH1 0x0 DUP6 DUP2 MSTORE PUSH1 0x20 ADD SWAP1 DUP2 MSTORE PUSH1 0x20 ADD PUSH1 0x0 KECCAK256 PUSH1 0x0 DUP12 PUSH20 0xFFFFFFFFFFFFFFFFFFFFFFFFFFFFFFFFFFFFFFFF AND PUSH20 0xFFFFFFFFFFFFFFFFFFFFFFFFFFFFFFFFFFFFFFFF AND DUP2 MSTORE PUSH1 0x20 ADD SWAP1 DUP2 MSTORE PUSH1 0x20 ADD PUSH1 0x0 KECCAK256 SLOAD PUSH2 0x1B0D SWAP1 SWAP2 SWAP1 PUSH4 0xFFFFFFFF AND JUMP JUMPDEST PUSH1 0x1 PUSH1 0x0 DUP5 DUP2 MSTORE PUSH1 0x20 ADD SWAP1 DUP2 MSTORE PUSH1 0x20 ADD PUSH1 0x0 KECCAK256 PUSH1 0x0 DUP11 PUSH20 0xFFFFFFFFFFFFFFFFFFFFFFFFFFFFFFFFFFFFFFFF AND PUSH20 0xFFFFFFFFFFFFFFFFFFFFFFFFFFFFFFFFFFFFFFFF AND DUP2 MSTORE PUSH1 0x20 ADD SWAP1 DUP2 MSTORE PUSH1 0x20 ADD PUSH1 0x0 KECCAK256 DUP2 SWAP1 SSTORE POP POP POP DUP1 PUSH1 0x1 ADD SWAP1 POP PUSH2 0xCB5 JUMP JUMPDEST POP DUP5 PUSH20 0xFFFFFFFFFFFFFFFFFFFFFFFFFFFFFFFFFFFFFFFF AND DUP7 PUSH20 0xFFFFFFFFFFFFFFFFFFFFFFFFFFFFFFFFFFFFFFFF AND DUP3 PUSH20 0xFFFFFFFFFFFFFFFFFFFFFFFFFFFFFFFFFFFFFFFF AND PUSH32 0x4A39DC06D4C0DBC64B70AF90FD698A233A518AA5D07E595D983B8C0526C8F7FB DUP8 DUP8 PUSH1 0x40 MLOAD DUP1 DUP1 PUSH1 0x20 ADD DUP1 PUSH1 0x20 ADD DUP4 DUP2 SUB DUP4 MSTORE DUP6 DUP2 DUP2 MLOAD DUP2 MSTORE PUSH1 0x20 ADD SWAP2 POP DUP1 MLOAD SWAP1 PUSH1 0x20 ADD SWAP1 PUSH1 0x20 MUL DUP1 DUP4 DUP4 PUSH1 0x0 JUMPDEST DUP4 DUP2 LT ISZERO PUSH2 0xF33 JUMPI DUP1 DUP3 ADD MLOAD DUP2 DUP5 ADD MSTORE PUSH1 0x20 DUP2 ADD SWAP1 POP PUSH2 0xF18 JUMP JUMPDEST POP POP POP POP SWAP1 POP ADD DUP4 DUP2 SUB DUP3 MSTORE DUP5 DUP2 DUP2 MLOAD DUP2 MSTORE PUSH1 0x20 ADD SWAP2 POP DUP1 MLOAD SWAP1 PUSH1 0x20 ADD SWAP1 PUSH1 0x20 MUL DUP1 DUP4 DUP4 PUSH1 0x0 JUMPDEST DUP4 DUP2 LT ISZERO PUSH2 0xF75 JUMPI DUP1 DUP3 ADD MLOAD DUP2 DUP5 ADD MSTORE PUSH1 0x20 DUP2 ADD SWAP1 POP PUSH2 0xF5A JUMP JUMPDEST POP POP POP POP SWAP1 POP ADD SWAP5 POP POP POP POP POP PUSH1 0x40 MLOAD DUP1 SWAP2 SUB SWAP1 LOG4 PUSH2 0xF98 DUP2 DUP8 DUP8 DUP8 DUP8 DUP8 PUSH2 0x1CB0 JUMP JUMPDEST POP POP POP POP POP POP JUMP JUMPDEST PUSH1 0x0 DUP2 JUMP JUMPDEST PUSH1 0x60 DUP2 MLOAD DUP4 MLOAD EQ PUSH2 0x1001 JUMPI PUSH1 0x40 MLOAD PUSH32 0x8C379A000000000000000000000000000000000000000000000000000000000 DUP2 MSTORE PUSH1 0x4 ADD DUP1 DUP1 PUSH1 0x20 ADD DUP3 DUP2 SUB DUP3 MSTORE PUSH1 0x29 DUP2 MSTORE PUSH1 0x20 ADD DUP1 PUSH2 0x2643 PUSH1 0x29 SWAP2 CODECOPY PUSH1 0x40 ADD SWAP2 POP POP PUSH1 0x40 MLOAD DUP1 SWAP2 SUB SWAP1 REVERT JUMPDEST PUSH1 0x0 DUP4 MLOAD PUSH8 0xFFFFFFFFFFFFFFFF DUP2 GT DUP1 ISZERO PUSH2 0x101B JUMPI PUSH1 0x0 DUP1 REVERT JUMPDEST POP PUSH1 0x40 MLOAD SWAP1 DUP1 DUP3 MSTORE DUP1 PUSH1 0x20 MUL PUSH1 0x20 ADD DUP3 ADD PUSH1 0x40 MSTORE DUP1 ISZERO PUSH2 0x104A JUMPI DUP2 PUSH1 0x20 ADD PUSH1 0x20 DUP3 MUL DUP1 CALLDATASIZE DUP4 CALLDATACOPY DUP1 DUP3 ADD SWAP2 POP POP SWAP1 POP JUMPDEST POP SWAP1 POP PUSH1 0x0 JUMPDEST DUP5 MLOAD DUP2 LT ISZERO PUSH2 0x118C JUMPI PUSH1 0x0 PUSH20 0xFFFFFFFFFFFFFFFFFFFFFFFFFFFFFFFFFFFFFFFF AND DUP6 DUP3 DUP2 MLOAD DUP2 LT PUSH2 0x107D JUMPI INVALID JUMPDEST PUSH1 0x20 MUL PUSH1 0x20 ADD ADD MLOAD PUSH20 0xFFFFFFFFFFFFFFFFFFFFFFFFFFFFFFFFFFFFFFFF AND EQ ISZERO PUSH2 0x10F2 JUMPI PUSH1 0x40 MLOAD PUSH32 0x8C379A000000000000000000000000000000000000000000000000000000000 DUP2 MSTORE PUSH1 0x4 ADD DUP1 DUP1 PUSH1 0x20 ADD DUP3 DUP2 SUB DUP3 MSTORE PUSH1 0x31 DUP2 MSTORE PUSH1 0x20 ADD DUP1 PUSH2 0x2519 PUSH1 0x31 SWAP2 CODECOPY PUSH1 0x40 ADD SWAP2 POP POP PUSH1 0x40 MLOAD DUP1 SWAP2 SUB SWAP1 REVERT JUMPDEST PUSH1 0x1 PUSH1 0x0 DUP6 DUP4 DUP2 MLOAD DUP2 LT PUSH2 0x1102 JUMPI INVALID JUMPDEST PUSH1 0x20 MUL PUSH1 0x20 ADD ADD MLOAD DUP2 MSTORE PUSH1 0x20 ADD SWAP1 DUP2 MSTORE PUSH1 0x20 ADD PUSH1 0x0 KECCAK256 PUSH1 0x0 DUP7 DUP4 DUP2 MLOAD DUP2 LT PUSH2 0x1126 JUMPI INVALID JUMPDEST PUSH1 0x20 MUL PUSH1 0x20 ADD ADD MLOAD PUSH20 0xFFFFFFFFFFFFFFFFFFFFFFFFFFFFFFFFFFFFFFFF AND PUSH20 0xFFFFFFFFFFFFFFFFFFFFFFFFFFFFFFFFFFFFFFFF AND DUP2 MSTORE PUSH1 0x20 ADD SWAP1 DUP2 MSTORE PUSH1 0x20 ADD PUSH1 0x0 KECCAK256 SLOAD DUP3 DUP3 DUP2 MLOAD DUP2 LT PUSH2 0x1175 JUMPI INVALID JUMPDEST PUSH1 0x20 MUL PUSH1 0x20 ADD ADD DUP2 DUP2 MSTORE POP POP DUP1 PUSH1 0x1 ADD SWAP1 POP PUSH2 0x1050 JUMP JUMPDEST POP DUP1 SWAP2 POP POP SWAP3 SWAP2 POP POP JUMP JUMPDEST PUSH1 0x4 DUP2 JUMP JUMPDEST PUSH2 0x11A4 PUSH2 0x1BE0 JUMP JUMPDEST PUSH20 0xFFFFFFFFFFFFFFFFFFFFFFFFFFFFFFFFFFFFFFFF AND PUSH1 0x4 PUSH1 0x0 SWAP1 SLOAD SWAP1 PUSH2 0x100 EXP SWAP1 DIV PUSH20 0xFFFFFFFFFFFFFFFFFFFFFFFFFFFFFFFFFFFFFFFF AND PUSH20 0xFFFFFFFFFFFFFFFFFFFFFFFFFFFFFFFFFFFFFFFF AND EQ PUSH2 0x1266 JUMPI PUSH1 0x40 MLOAD PUSH32 0x8C379A000000000000000000000000000000000000000000000000000000000 DUP2 MSTORE PUSH1 0x4 ADD DUP1 DUP1 PUSH1 0x20 ADD DUP3 DUP2 SUB DUP3 MSTORE PUSH1 0x20 DUP2 MSTORE PUSH1 0x20 ADD DUP1 PUSH32 0x4F776E61626C653A2063616C6C6572206973206E6F7420746865206F776E6572 DUP2 MSTORE POP PUSH1 0x20 ADD SWAP2 POP POP PUSH1 0x40 MLOAD DUP1 SWAP2 SUB SWAP1 REVERT JUMPDEST PUSH1 0x0 PUSH20 0xFFFFFFFFFFFFFFFFFFFFFFFFFFFFFFFFFFFFFFFF AND PUSH1 0x4 PUSH1 0x0 SWAP1 SLOAD SWAP1 PUSH2 0x100 EXP SWAP1 DIV PUSH20 0xFFFFFFFFFFFFFFFFFFFFFFFFFFFFFFFFFFFFFFFF AND PUSH20 0xFFFFFFFFFFFFFFFFFFFFFFFFFFFFFFFFFFFFFFFF AND PUSH32 0x8BE0079C531659141344CD1FD0A4F28419497F9722A3DAAFE3B4186F6B6457E0 PUSH1 0x40 MLOAD PUSH1 0x40 MLOAD DUP1 SWAP2 SUB SWAP1 LOG3 PUSH1 0x0 PUSH1 0x4 PUSH1 0x0 PUSH2 0x100 EXP DUP2 SLOAD DUP2 PUSH20 0xFFFFFFFFFFFFFFFFFFFFFFFFFFFFFFFFFFFFFFFF MUL NOT AND SWAP1 DUP4 PUSH20 0xFFFFFFFFFFFFFFFFFFFFFFFFFFFFFFFFFFFFFFFF AND MUL OR SWAP1 SSTORE POP JUMP JUMPDEST PUSH1 0x0 PUSH1 0x4 PUSH1 0x0 SWAP1 SLOAD SWAP1 PUSH2 0x100 EXP SWAP1 DIV PUSH20 0xFFFFFFFFFFFFFFFFFFFFFFFFFFFFFFFFFFFFFFFF AND SWAP1 POP SWAP1 JUMP JUMPDEST DUP2 PUSH20 0xFFFFFFFFFFFFFFFFFFFFFFFFFFFFFFFFFFFFFFFF AND PUSH2 0x1370 PUSH2 0x1BE0 JUMP JUMPDEST PUSH20 0xFFFFFFFFFFFFFFFFFFFFFFFFFFFFFFFFFFFFFFFF AND EQ ISZERO PUSH2 0x13DD JUMPI PUSH1 0x40 MLOAD PUSH32 0x8C379A000000000000000000000000000000000000000000000000000000000 DUP2 MSTORE PUSH1 0x4 ADD DUP1 DUP1 PUSH1 0x20 ADD DUP3 DUP2 SUB DUP3 MSTORE PUSH1 0x29 DUP2 MSTORE PUSH1 0x20 ADD DUP1 PUSH2 0x261A PUSH1 0x29 SWAP2 CODECOPY PUSH1 0x40 ADD SWAP2 POP POP PUSH1 0x40 MLOAD DUP1 SWAP2 SUB SWAP1 REVERT JUMPDEST DUP1 PUSH1 0x2 PUSH1 0x0 PUSH2 0x13EA PUSH2 0x1BE0 JUMP JUMPDEST PUSH20 0xFFFFFFFFFFFFFFFFFFFFFFFFFFFFFFFFFFFFFFFF AND PUSH20 0xFFFFFFFFFFFFFFFFFFFFFFFFFFFFFFFFFFFFFFFF AND DUP2 MSTORE PUSH1 0x20 ADD SWAP1 DUP2 MSTORE PUSH1 0x20 ADD PUSH1 0x0 KECCAK256 PUSH1 0x0 DUP5 PUSH20 0xFFFFFFFFFFFFFFFFFFFFFFFFFFFFFFFFFFFFFFFF AND PUSH20 0xFFFFFFFFFFFFFFFFFFFFFFFFFFFFFFFFFFFFFFFF AND DUP2 MSTORE PUSH1 0x20 ADD SWAP1 DUP2 MSTORE PUSH1 0x20 ADD PUSH1 0x0 KECCAK256 PUSH1 0x0 PUSH2 0x100 EXP DUP2 SLOAD DUP2 PUSH1 0xFF MUL NOT AND SWAP1 DUP4 ISZERO ISZERO MUL OR SWAP1 SSTORE POP DUP2 PUSH20 0xFFFFFFFFFFFFFFFFFFFFFFFFFFFFFFFFFFFFFFFF AND PUSH2 0x1497 PUSH2 0x1BE0 JUMP JUMPDEST PUSH20 0xFFFFFFFFFFFFFFFFFFFFFFFFFFFFFFFFFFFFFFFF AND PUSH32 0x17307EAB39AB6107E8899845AD3D59BD9653F200F220920489CA2B5937696C31 DUP4 PUSH1 0x40 MLOAD DUP1 DUP3 ISZERO ISZERO DUP2 MSTORE PUSH1 0x20 ADD SWAP2 POP POP PUSH1 0x40 MLOAD DUP1 SWAP2 SUB SWAP1 LOG3 POP POP JUMP JUMPDEST PUSH1 0x2 DUP2 JUMP JUMPDEST PUSH1 0x1 DUP2 JUMP JUMPDEST PUSH1 0x0 PUSH1 0x2 PUSH1 0x0 DUP5 PUSH20 0xFFFFFFFFFFFFFFFFFFFFFFFFFFFFFFFFFFFFFFFF AND PUSH20 0xFFFFFFFFFFFFFFFFFFFFFFFFFFFFFFFFFFFFFFFF AND DUP2 MSTORE PUSH1 0x20 ADD SWAP1 DUP2 MSTORE PUSH1 0x20 ADD PUSH1 0x0 KECCAK256 PUSH1 0x0 DUP4 PUSH20 0xFFFFFFFFFFFFFFFFFFFFFFFFFFFFFFFFFFFFFFFF AND PUSH20 0xFFFFFFFFFFFFFFFFFFFFFFFFFFFFFFFFFFFFFFFF AND DUP2 MSTORE PUSH1 0x20 ADD SWAP1 DUP2 MSTORE PUSH1 0x20 ADD PUSH1 0x0 KECCAK256 PUSH1 0x0 SWAP1 SLOAD SWAP1 PUSH2 0x100 EXP SWAP1 DIV PUSH1 0xFF AND SWAP1 POP SWAP3 SWAP2 POP POP JUMP JUMPDEST PUSH1 0x0 PUSH20 0xFFFFFFFFFFFFFFFFFFFFFFFFFFFFFFFFFFFFFFFF AND DUP5 PUSH20 0xFFFFFFFFFFFFFFFFFFFFFFFFFFFFFFFFFFFFFFFF AND EQ ISZERO PUSH2 0x160E JUMPI PUSH1 0x40 MLOAD PUSH32 0x8C379A000000000000000000000000000000000000000000000000000000000 DUP2 MSTORE PUSH1 0x4 ADD DUP1 DUP1 PUSH1 0x20 ADD DUP3 DUP2 SUB DUP3 MSTORE PUSH1 0x25 DUP2 MSTORE PUSH1 0x20 ADD DUP1 PUSH2 0x2599 PUSH1 0x25 SWAP2 CODECOPY PUSH1 0x40 ADD SWAP2 POP POP PUSH1 0x40 MLOAD DUP1 SWAP2 SUB SWAP1 REVERT JUMPDEST PUSH2 0x1616 PUSH2 0x1BE0 JUMP JUMPDEST PUSH20 0xFFFFFFFFFFFFFFFFFFFFFFFFFFFFFFFFFFFFFFFF AND DUP6 PUSH20 0xFFFFFFFFFFFFFFFFFFFFFFFFFFFFFFFFFFFFFFFF AND EQ DUP1 PUSH2 0x165C JUMPI POP PUSH2 0x165B DUP6 PUSH2 0x1656 PUSH2 0x1BE0 JUMP JUMPDEST PUSH2 0x14F4 JUMP JUMPDEST JUMPDEST PUSH2 0x16B1 JUMPI PUSH1 0x40 MLOAD PUSH32 0x8C379A000000000000000000000000000000000000000000000000000000000 DUP2 MSTORE PUSH1 0x4 ADD DUP1 DUP1 PUSH1 0x20 ADD DUP3 DUP2 SUB DUP3 MSTORE PUSH1 0x29 DUP2 MSTORE PUSH1 0x20 ADD DUP1 PUSH2 0x2570 PUSH1 0x29 SWAP2 CODECOPY PUSH1 0x40 ADD SWAP2 POP POP PUSH1 0x40 MLOAD DUP1 SWAP2 SUB SWAP1 REVERT JUMPDEST PUSH1 0x0 PUSH2 0x16BB PUSH2 0x1BE0 JUMP JUMPDEST SWAP1 POP PUSH2 0x16DB DUP2 DUP8 DUP8 PUSH2 0x16CC DUP9 PUSH2 0x203F JUMP JUMPDEST PUSH2 0x16D5 DUP9 PUSH2 0x203F JUMP JUMPDEST DUP8 PUSH2 0x1BE8 JUMP JUMPDEST PUSH2 0x1758 DUP4 PUSH1 0x40 MLOAD DUP1 PUSH1 0x60 ADD PUSH1 0x40 MSTORE DUP1 PUSH1 0x2A DUP2 MSTORE PUSH1 0x20 ADD PUSH2 0x25F0 PUSH1 0x2A SWAP2 CODECOPY PUSH1 0x1 PUSH1 0x0 DUP9 DUP2 MSTORE PUSH1 0x20 ADD SWAP1 DUP2 MSTORE PUSH1 0x20 ADD PUSH1 0x0 KECCAK256 PUSH1 0x0 DUP11 PUSH20 0xFFFFFFFFFFFFFFFFFFFFFFFFFFFFFFFFFFFFFFFF AND PUSH20 0xFFFFFFFFFFFFFFFFFFFFFFFFFFFFFFFFFFFFFFFF AND DUP2 MSTORE PUSH1 0x20 ADD SWAP1 DUP2 MSTORE PUSH1 0x20 ADD PUSH1 0x0 KECCAK256 SLOAD PUSH2 0x1BF0 SWAP1 SWAP3 SWAP2 SWAP1 PUSH4 0xFFFFFFFF AND JUMP JUMPDEST PUSH1 0x1 PUSH1 0x0 DUP7 DUP2 MSTORE PUSH1 0x20 ADD SWAP1 DUP2 MSTORE PUSH1 0x20 ADD PUSH1 0x0 KECCAK256 PUSH1 0x0 DUP9 PUSH20 0xFFFFFFFFFFFFFFFFFFFFFFFFFFFFFFFFFFFFFFFF AND PUSH20 0xFFFFFFFFFFFFFFFFFFFFFFFFFFFFFFFFFFFFFFFF AND DUP2 MSTORE PUSH1 0x20 ADD SWAP1 DUP2 MSTORE PUSH1 0x20 ADD PUSH1 0x0 KECCAK256 DUP2 SWAP1 SSTORE POP PUSH2 0x180F DUP4 PUSH1 0x1 PUSH1 0x0 DUP8 DUP2 MSTORE PUSH1 0x20 ADD SWAP1 DUP2 MSTORE PUSH1 0x20 ADD PUSH1 0x0 KECCAK256 PUSH1 0x0 DUP9 PUSH20 0xFFFFFFFFFFFFFFFFFFFFFFFFFFFFFFFFFFFFFFFF AND PUSH20 0xFFFFFFFFFFFFFFFFFFFFFFFFFFFFFFFFFFFFFFFF AND DUP2 MSTORE PUSH1 0x20 ADD SWAP1 DUP2 MSTORE PUSH1 0x20 ADD PUSH1 0x0 KECCAK256 SLOAD PUSH2 0x1B0D SWAP1 SWAP2 SWAP1 PUSH4 0xFFFFFFFF AND JUMP JUMPDEST PUSH1 0x1 PUSH1 0x0 DUP7 DUP2 MSTORE PUSH1 0x20 ADD SWAP1 DUP2 MSTORE PUSH1 0x20 ADD PUSH1 0x0 KECCAK256 PUSH1 0x0 DUP8 PUSH20 0xFFFFFFFFFFFFFFFFFFFFFFFFFFFFFFFFFFFFFFFF AND PUSH20 0xFFFFFFFFFFFFFFFFFFFFFFFFFFFFFFFFFFFFFFFF AND DUP2 MSTORE PUSH1 0x20 ADD SWAP1 DUP2 MSTORE PUSH1 0x20 ADD PUSH1 0x0 KECCAK256 DUP2 SWAP1 SSTORE POP DUP5 PUSH20 0xFFFFFFFFFFFFFFFFFFFFFFFFFFFFFFFFFFFFFFFF AND DUP7 PUSH20 0xFFFFFFFFFFFFFFFFFFFFFFFFFFFFFFFFFFFFFFFF AND DUP3 PUSH20 0xFFFFFFFFFFFFFFFFFFFFFFFFFFFFFFFFFFFFFFFF AND PUSH32 0xC3D58168C5AE7397731D063D5BBF3D657854427343F4C083240F7AACAA2D0F62 DUP8 DUP8 PUSH1 0x40 MLOAD DUP1 DUP4 DUP2 MSTORE PUSH1 0x20 ADD DUP3 DUP2 MSTORE PUSH1 0x20 ADD SWAP3 POP POP POP PUSH1 0x40 MLOAD DUP1 SWAP2 SUB SWAP1 LOG4 PUSH2 0x18F5 DUP2 DUP8 DUP8 DUP8 DUP8 DUP8 PUSH2 0x20B0 JUMP JUMPDEST POP POP POP POP POP POP JUMP JUMPDEST PUSH2 0x1905 PUSH2 0x1BE0 JUMP JUMPDEST PUSH20 0xFFFFFFFFFFFFFFFFFFFFFFFFFFFFFFFFFFFFFFFF AND PUSH1 0x4 PUSH1 0x0 SWAP1 SLOAD SWAP1 PUSH2 0x100 EXP SWAP1 DIV PUSH20 0xFFFFFFFFFFFFFFFFFFFFFFFFFFFFFFFFFFFFFFFF AND PUSH20 0xFFFFFFFFFFFFFFFFFFFFFFFFFFFFFFFFFFFFFFFF AND EQ PUSH2 0x19C7 JUMPI PUSH1 0x40 MLOAD PUSH32 0x8C379A000000000000000000000000000000000000000000000000000000000 DUP2 MSTORE PUSH1 0x4 ADD DUP1 DUP1 PUSH1 0x20 ADD DUP3 DUP2 SUB DUP3 MSTORE PUSH1 0x20 DUP2 MSTORE PUSH1 0x20 ADD DUP1 PUSH32 0x4F776E61626C653A2063616C6C6572206973206E6F7420746865206F776E6572 DUP2 MSTORE POP PUSH1 0x20 ADD SWAP2 POP POP PUSH1 0x40 MLOAD DUP1 SWAP2 SUB SWAP1 REVERT JUMPDEST PUSH1 0x0 PUSH20 0xFFFFFFFFFFFFFFFFFFFFFFFFFFFFFFFFFFFFFFFF AND DUP2 PUSH20 0xFFFFFFFFFFFFFFFFFFFFFFFFFFFFFFFFFFFFFFFF AND EQ ISZERO PUSH2 0x1A4D JUMPI PUSH1 0x40 MLOAD PUSH32 0x8C379A000000000000000000000000000000000000000000000000000000000 DUP2 MSTORE PUSH1 0x4 ADD DUP1 DUP1 PUSH1 0x20 ADD DUP3 DUP2 SUB DUP3 MSTORE PUSH1 0x26 DUP2 MSTORE PUSH1 0x20 ADD DUP1 PUSH2 0x254A PUSH1 0x26 SWAP2 CODECOPY PUSH1 0x40 ADD SWAP2 POP POP PUSH1 0x40 MLOAD DUP1 SWAP2 SUB SWAP1 REVERT JUMPDEST DUP1 PUSH20 0xFFFFFFFFFFFFFFFFFFFFFFFFFFFFFFFFFFFFFFFF AND PUSH1 0x4 PUSH1 0x0 SWAP1 SLOAD SWAP1 PUSH2 0x100 EXP SWAP1 DIV PUSH20 0xFFFFFFFFFFFFFFFFFFFFFFFFFFFFFFFFFFFFFFFF AND PUSH20 0xFFFFFFFFFFFFFFFFFFFFFFFFFFFFFFFFFFFFFFFF AND PUSH32 0x8BE0079C531659141344CD1FD0A4F28419497F9722A3DAAFE3B4186F6B6457E0 PUSH1 0x40 MLOAD PUSH1 0x40 MLOAD DUP1 SWAP2 SUB SWAP1 LOG3 DUP1 PUSH1 0x4 PUSH1 0x0 PUSH2 0x100 EXP DUP2 SLOAD DUP2 PUSH20 0xFFFFFFFFFFFFFFFFFFFFFFFFFFFFFFFFFFFFFFFF MUL NOT AND SWAP1 DUP4 PUSH20 0xFFFFFFFFFFFFFFFFFFFFFFFFFFFFFFFFFFFFFFFF AND MUL OR SWAP1 SSTORE POP POP JUMP JUMPDEST PUSH1 0x0 DUP1 DUP3 DUP5 ADD SWAP1 POP DUP4 DUP2 LT ISZERO PUSH2 0x1B8B JUMPI PUSH1 0x40 MLOAD PUSH32 0x8C379A000000000000000000000000000000000000000000000000000000000 DUP2 MSTORE PUSH1 0x4 ADD DUP1 DUP1 PUSH1 0x20 ADD DUP3 DUP2 SUB DUP3 MSTORE PUSH1 0x1B DUP2 MSTORE PUSH1 0x20 ADD DUP1 PUSH32 0x536166654D6174683A206164646974696F6E206F766572666C6F770000000000 DUP2 MSTORE POP PUSH1 0x20 ADD SWAP2 POP POP PUSH1 0x40 MLOAD DUP1 SWAP2 SUB SWAP1 REVERT JUMPDEST DUP1 SWAP2 POP POP SWAP3 SWAP2 POP POP JUMP JUMPDEST PUSH1 0x0 DUP1 PUSH1 0x0 PUSH32 0xC5D2460186F7233C927E7DB2DCC703C0E500B653CA82273B7BFAD8045D85A470 PUSH1 0x0 SHL SWAP1 POP DUP4 EXTCODEHASH SWAP2 POP DUP1 DUP3 EQ ISZERO DUP1 ISZERO PUSH2 0x1BD7 JUMPI POP PUSH1 0x0 DUP1 SHL DUP3 EQ ISZERO JUMPDEST SWAP3 POP POP POP SWAP2 SWAP1 POP JUMP JUMPDEST PUSH1 0x0 CALLER SWAP1 POP SWAP1 JUMP JUMPDEST POP POP POP POP POP POP JUMP JUMPDEST PUSH1 0x0 DUP4 DUP4 GT ISZERO DUP3 SWAP1 PUSH2 0x1C9D JUMPI PUSH1 0x40 MLOAD PUSH32 0x8C379A000000000000000000000000000000000000000000000000000000000 DUP2 MSTORE PUSH1 0x4 ADD DUP1 DUP1 PUSH1 0x20 ADD DUP3 DUP2 SUB DUP3 MSTORE DUP4 DUP2 DUP2 MLOAD DUP2 MSTORE PUSH1 0x20 ADD SWAP2 POP DUP1 MLOAD SWAP1 PUSH1 0x20 ADD SWAP1 DUP1 DUP4 DUP4 PUSH1 0x0 JUMPDEST DUP4 DUP2 LT ISZERO PUSH2 0x1C62 JUMPI DUP1 DUP3 ADD MLOAD DUP2 DUP5 ADD MSTORE PUSH1 0x20 DUP2 ADD SWAP1 POP PUSH2 0x1C47 JUMP JUMPDEST POP POP POP POP SWAP1 POP SWAP1 DUP2 ADD SWAP1 PUSH1 0x1F AND DUP1 ISZERO PUSH2 0x1C8F JUMPI DUP1 DUP3 SUB DUP1 MLOAD PUSH1 0x1 DUP4 PUSH1 0x20 SUB PUSH2 0x100 EXP SUB NOT AND DUP2 MSTORE PUSH1 0x20 ADD SWAP2 POP JUMPDEST POP SWAP3 POP POP POP PUSH1 0x40 MLOAD DUP1 SWAP2 SUB SWAP1 REVERT JUMPDEST POP PUSH1 0x0 DUP4 DUP6 SUB SWAP1 POP DUP1 SWAP2 POP POP SWAP4 SWAP3 POP POP POP JUMP JUMPDEST PUSH2 0x1CCF DUP5 PUSH20 0xFFFFFFFFFFFFFFFFFFFFFFFFFFFFFFFFFFFFFFFF AND PUSH2 0x1B95 JUMP JUMPDEST ISZERO PUSH2 0x2037 JUMPI DUP4 PUSH20 0xFFFFFFFFFFFFFFFFFFFFFFFFFFFFFFFFFFFFFFFF AND PUSH4 0xBC197C81 DUP8 DUP8 DUP7 DUP7 DUP7 PUSH1 0x40 MLOAD DUP7 PUSH4 0xFFFFFFFF AND PUSH1 0xE0 SHL DUP2 MSTORE PUSH1 0x4 ADD DUP1 DUP7 PUSH20 0xFFFFFFFFFFFFFFFFFFFFFFFFFFFFFFFFFFFFFFFF AND DUP2 MSTORE PUSH1 0x20 ADD DUP6 PUSH20 0xFFFFFFFFFFFFFFFFFFFFFFFFFFFFFFFFFFFFFFFF AND DUP2 MSTORE PUSH1 0x20 ADD DUP1 PUSH1 0x20 ADD DUP1 PUSH1 0x20 ADD DUP1 PUSH1 0x20 ADD DUP5 DUP2 SUB DUP5 MSTORE DUP8 DUP2 DUP2 MLOAD DUP2 MSTORE PUSH1 0x20 ADD SWAP2 POP DUP1 MLOAD SWAP1 PUSH1 0x20 ADD SWAP1 PUSH1 0x20 MUL DUP1 DUP4 DUP4 PUSH1 0x0 JUMPDEST DUP4 DUP2 LT ISZERO PUSH2 0x1D87 JUMPI DUP1 DUP3 ADD MLOAD DUP2 DUP5 ADD MSTORE PUSH1 0x20 DUP2 ADD SWAP1 POP PUSH2 0x1D6C JUMP JUMPDEST POP POP POP POP SWAP1 POP ADD DUP5 DUP2 SUB DUP4 MSTORE DUP7 DUP2 DUP2 MLOAD DUP2 MSTORE PUSH1 0x20 ADD SWAP2 POP DUP1 MLOAD SWAP1 PUSH1 0x20 ADD SWAP1 PUSH1 0x20 MUL DUP1 DUP4 DUP4 PUSH1 0x0 JUMPDEST DUP4 DUP2 LT ISZERO PUSH2 0x1DC9 JUMPI DUP1 DUP3 ADD MLOAD DUP2 DUP5 ADD MSTORE PUSH1 0x20 DUP2 ADD SWAP1 POP PUSH2 0x1DAE JUMP JUMPDEST POP POP POP POP SWAP1 POP ADD DUP5 DUP2 SUB DUP3 MSTORE DUP6 DUP2 DUP2 MLOAD DUP2 MSTORE PUSH1 0x20 ADD SWAP2 POP DUP1 MLOAD SWAP1 PUSH1 0x20 ADD SWAP1 DUP1 DUP4 DUP4 PUSH1 0x0 JUMPDEST DUP4 DUP2 LT ISZERO PUSH2 0x1E08 JUMPI DUP1 DUP3 ADD MLOAD DUP2 DUP5 ADD MSTORE PUSH1 0x20 DUP2 ADD SWAP1 POP PUSH2 0x1DED JUMP JUMPDEST POP POP POP POP SWAP1 POP SWAP1 DUP2 ADD SWAP1 PUSH1 0x1F AND DUP1 ISZERO PUSH2 0x1E35 JUMPI DUP1 DUP3 SUB DUP1 MLOAD PUSH1 0x1 DUP4 PUSH1 0x20 SUB PUSH2 0x100 EXP SUB NOT AND DUP2 MSTORE PUSH1 0x20 ADD SWAP2 POP JUMPDEST POP SWAP9 POP POP POP POP POP POP POP POP POP PUSH1 0x20 PUSH1 0x40 MLOAD DUP1 DUP4 SUB DUP2 PUSH1 0x0 DUP8 DUP1 EXTCODESIZE ISZERO DUP1 ISZERO PUSH2 0x1E5A JUMPI PUSH1 0x0 DUP1 REVERT JUMPDEST POP GAS CALL SWAP3 POP POP POP DUP1 ISZERO PUSH2 0x1E8E JUMPI POP PUSH1 0x40 MLOAD RETURNDATASIZE PUSH1 0x20 DUP2 LT ISZERO PUSH2 0x1E7A JUMPI PUSH1 0x0 DUP1 REVERT JUMPDEST DUP2 ADD SWAP1 DUP1 DUP1 MLOAD SWAP1 PUSH1 0x20 ADD SWAP1 SWAP3 SWAP2 SWAP1 POP POP POP PUSH1 0x1 JUMPDEST PUSH2 0x1F98 JUMPI PUSH2 0x1E9A PUSH2 0x23DB JUMP JUMPDEST DUP1 PUSH2 0x1EA5 JUMPI POP PUSH2 0x1F47 JUMP JUMPDEST DUP1 PUSH1 0x40 MLOAD PUSH32 0x8C379A000000000000000000000000000000000000000000000000000000000 DUP2 MSTORE PUSH1 0x4 ADD DUP1 DUP1 PUSH1 0x20 ADD DUP3 DUP2 SUB DUP3 MSTORE DUP4 DUP2 DUP2 MLOAD DUP2 MSTORE PUSH1 0x20 ADD SWAP2 POP DUP1 MLOAD SWAP1 PUSH1 0x20 ADD SWAP1 DUP1 DUP4 DUP4 PUSH1 0x0 JUMPDEST DUP4 DUP2 LT ISZERO PUSH2 0x1F0C JUMPI DUP1 DUP3 ADD MLOAD DUP2 DUP5 ADD MSTORE PUSH1 0x20 DUP2 ADD SWAP1 POP PUSH2 0x1EF1 JUMP JUMPDEST POP POP POP POP SWAP1 POP SWAP1 DUP2 ADD SWAP1 PUSH1 0x1F AND DUP1 ISZERO PUSH2 0x1F39 JUMPI DUP1 DUP3 SUB DUP1 MLOAD PUSH1 0x1 DUP4 PUSH1 0x20 SUB PUSH2 0x100 EXP SUB NOT AND DUP2 MSTORE PUSH1 0x20 ADD SWAP2 POP JUMPDEST POP SWAP3 POP POP POP PUSH1 0x40 MLOAD DUP1 SWAP2 SUB SWAP1 REVERT JUMPDEST PUSH1 0x40 MLOAD PUSH32 0x8C379A000000000000000000000000000000000000000000000000000000000 DUP2 MSTORE PUSH1 0x4 ADD DUP1 DUP1 PUSH1 0x20 ADD DUP3 DUP2 SUB DUP3 MSTORE PUSH1 0x34 DUP2 MSTORE PUSH1 0x20 ADD DUP1 PUSH2 0x2492 PUSH1 0x34 SWAP2 CODECOPY PUSH1 0x40 ADD SWAP2 POP POP PUSH1 0x40 MLOAD DUP1 SWAP2 SUB SWAP1 REVERT JUMPDEST PUSH4 0xBC197C81 PUSH1 0xE0 SHL PUSH28 0xFFFFFFFFFFFFFFFFFFFFFFFFFFFFFFFFFFFFFFFFFFFFFFFFFFFFFFFF NOT AND DUP2 PUSH28 0xFFFFFFFFFFFFFFFFFFFFFFFFFFFFFFFFFFFFFFFFFFFFFFFFFFFFFFFF NOT AND EQ PUSH2 0x2035 JUMPI PUSH1 0x40 MLOAD PUSH32 0x8C379A000000000000000000000000000000000000000000000000000000000 DUP2 MSTORE PUSH1 0x4 ADD DUP1 DUP1 PUSH1 0x20 ADD DUP3 DUP2 SUB DUP3 MSTORE PUSH1 0x28 DUP2 MSTORE PUSH1 0x20 ADD DUP1 PUSH2 0x24C6 PUSH1 0x28 SWAP2 CODECOPY PUSH1 0x40 ADD SWAP2 POP POP PUSH1 0x40 MLOAD DUP1 SWAP2 SUB SWAP1 REVERT JUMPDEST POP JUMPDEST POP POP POP POP POP POP JUMP JUMPDEST PUSH1 0x60 PUSH1 0x0 PUSH1 0x1 PUSH8 0xFFFFFFFFFFFFFFFF DUP2 GT DUP1 ISZERO PUSH2 0x205B JUMPI PUSH1 0x0 DUP1 REVERT JUMPDEST POP PUSH1 0x40 MLOAD SWAP1 DUP1 DUP3 MSTORE DUP1 PUSH1 0x20 MUL PUSH1 0x20 ADD DUP3 ADD PUSH1 0x40 MSTORE DUP1 ISZERO PUSH2 0x208A JUMPI DUP2 PUSH1 0x20 ADD PUSH1 0x20 DUP3 MUL DUP1 CALLDATASIZE DUP4 CALLDATACOPY DUP1 DUP3 ADD SWAP2 POP POP SWAP1 POP JUMPDEST POP SWAP1 POP DUP3 DUP2 PUSH1 0x0 DUP2 MLOAD DUP2 LT PUSH2 0x209B JUMPI INVALID JUMPDEST PUSH1 0x20 MUL PUSH1 0x20 ADD ADD DUP2 DUP2 MSTORE POP POP DUP1 SWAP2 POP POP SWAP2 SWAP1 POP JUMP JUMPDEST PUSH2 0x20CF DUP5 PUSH20 0xFFFFFFFFFFFFFFFFFFFFFFFFFFFFFFFFFFFFFFFF AND PUSH2 0x1B95 JUMP JUMPDEST ISZERO PUSH2 0x23B5 JUMPI DUP4 PUSH20 0xFFFFFFFFFFFFFFFFFFFFFFFFFFFFFFFFFFFFFFFF AND PUSH4 0xF23A6E61 DUP8 DUP8 DUP7 DUP7 DUP7 PUSH1 0x40 MLOAD DUP7 PUSH4 0xFFFFFFFF AND PUSH1 0xE0 SHL DUP2 MSTORE PUSH1 0x4 ADD DUP1 DUP7 PUSH20 0xFFFFFFFFFFFFFFFFFFFFFFFFFFFFFFFFFFFFFFFF AND DUP2 MSTORE PUSH1 0x20 ADD DUP6 PUSH20 0xFFFFFFFFFFFFFFFFFFFFFFFFFFFFFFFFFFFFFFFF AND DUP2 MSTORE PUSH1 0x20 ADD DUP5 DUP2 MSTORE PUSH1 0x20 ADD DUP4 DUP2 MSTORE PUSH1 0x20 ADD DUP1 PUSH1 0x20 ADD DUP3 DUP2 SUB DUP3 MSTORE DUP4 DUP2 DUP2 MLOAD DUP2 MSTORE PUSH1 0x20 ADD SWAP2 POP DUP1 MLOAD SWAP1 PUSH1 0x20 ADD SWAP1 DUP1 DUP4 DUP4 PUSH1 0x0 JUMPDEST DUP4 DUP2 LT ISZERO PUSH2 0x2188 JUMPI DUP1 DUP3 ADD MLOAD DUP2 DUP5 ADD MSTORE PUSH1 0x20 DUP2 ADD SWAP1 POP PUSH2 0x216D JUMP JUMPDEST POP POP POP POP SWAP1 POP SWAP1 DUP2 ADD SWAP1 PUSH1 0x1F AND DUP1 ISZERO PUSH2 0x21B5 JUMPI DUP1 DUP3 SUB DUP1 MLOAD PUSH1 0x1 DUP4 PUSH1 0x20 SUB PUSH2 0x100 EXP SUB NOT AND DUP2 MSTORE PUSH1 0x20 ADD SWAP2 POP JUMPDEST POP SWAP7 POP POP POP POP POP POP POP PUSH1 0x20 PUSH1 0x40 MLOAD DUP1 DUP4 SUB DUP2 PUSH1 0x0 DUP8 DUP1 EXTCODESIZE ISZERO DUP1 ISZERO PUSH2 0x21D8 JUMPI PUSH1 0x0 DUP1 REVERT JUMPDEST POP GAS CALL SWAP3 POP POP POP DUP1 ISZERO PUSH2 0x220C JUMPI POP PUSH1 0x40 MLOAD RETURNDATASIZE PUSH1 0x20 DUP2 LT ISZERO PUSH2 0x21F8 JUMPI PUSH1 0x0 DUP1 REVERT JUMPDEST DUP2 ADD SWAP1 DUP1 DUP1 MLOAD SWAP1 PUSH1 0x20 ADD SWAP1 SWAP3 SWAP2 SWAP1 POP POP POP PUSH1 0x1 JUMPDEST PUSH2 0x2316 JUMPI PUSH2 0x2218 PUSH2 0x23DB JUMP JUMPDEST DUP1 PUSH2 0x2223 JUMPI POP PUSH2 0x22C5 JUMP JUMPDEST DUP1 PUSH1 0x40 MLOAD PUSH32 0x8C379A000000000000000000000000000000000000000000000000000000000 DUP2 MSTORE PUSH1 0x4 ADD DUP1 DUP1 PUSH1 0x20 ADD DUP3 DUP2 SUB DUP3 MSTORE DUP4 DUP2 DUP2 MLOAD DUP2 MSTORE PUSH1 0x20 ADD SWAP2 POP DUP1 MLOAD SWAP1 PUSH1 0x20 ADD SWAP1 DUP1 DUP4 DUP4 PUSH1 0x0 JUMPDEST DUP4 DUP2 LT ISZERO PUSH2 0x228A JUMPI DUP1 DUP3 ADD MLOAD DUP2 DUP5 ADD MSTORE PUSH1 0x20 DUP2 ADD SWAP1 POP PUSH2 0x226F JUMP JUMPDEST POP POP POP POP SWAP1 POP SWAP1 DUP2 ADD SWAP1 PUSH1 0x1F AND DUP1 ISZERO PUSH2 0x22B7 JUMPI DUP1 DUP3 SUB DUP1 MLOAD PUSH1 0x1 DUP4 PUSH1 0x20 SUB PUSH2 0x100 EXP SUB NOT AND DUP2 MSTORE PUSH1 0x20 ADD SWAP2 POP JUMPDEST POP SWAP3 POP POP POP PUSH1 0x40 MLOAD DUP1 SWAP2 SUB SWAP1 REVERT JUMPDEST PUSH1 0x40 MLOAD PUSH32 0x8C379A000000000000000000000000000000000000000000000000000000000 DUP2 MSTORE PUSH1 0x4 ADD DUP1 DUP1 PUSH1 0x20 ADD DUP3 DUP2 SUB DUP3 MSTORE PUSH1 0x34 DUP2 MSTORE PUSH1 0x20 ADD DUP1 PUSH2 0x2492 PUSH1 0x34 SWAP2 CODECOPY PUSH1 0x40 ADD SWAP2 POP POP PUSH1 0x40 MLOAD DUP1 SWAP2 SUB SWAP1 REVERT JUMPDEST PUSH4 0xF23A6E61 PUSH1 0xE0 SHL PUSH28 0xFFFFFFFFFFFFFFFFFFFFFFFFFFFFFFFFFFFFFFFFFFFFFFFFFFFFFFFF NOT AND DUP2 PUSH28 0xFFFFFFFFFFFFFFFFFFFFFFFFFFFFFFFFFFFFFFFFFFFFFFFFFFFFFFFF NOT AND EQ PUSH2 0x23B3 JUMPI PUSH1 0x40 MLOAD PUSH32 0x8C379A000000000000000000000000000000000000000000000000000000000 DUP2 MSTORE PUSH1 0x4 ADD DUP1 DUP1 PUSH1 0x20 ADD DUP3 DUP2 SUB DUP3 MSTORE PUSH1 0x28 DUP2 MSTORE PUSH1 0x20 ADD DUP1 PUSH2 0x24C6 PUSH1 0x28 SWAP2 CODECOPY PUSH1 0x40 ADD SWAP2 POP POP PUSH1 0x40 MLOAD DUP1 SWAP2 SUB SWAP1 REVERT JUMPDEST POP JUMPDEST POP POP POP POP POP POP JUMP JUMPDEST PUSH1 0x0 PUSH1 0x1F NOT PUSH1 0x1F DUP4 ADD AND SWAP1 POP SWAP2 SWAP1 POP JUMP JUMPDEST PUSH1 0x0 DUP2 PUSH1 0xE0 SHR SWAP1 POP SWAP2 SWAP1 POP JUMP JUMPDEST PUSH1 0x0 PUSH1 0x44 RETURNDATASIZE LT ISZERO PUSH2 0x23EB JUMPI PUSH2 0x248E JUMP JUMPDEST PUSH1 0x4 PUSH1 0x0 DUP1 RETURNDATACOPY PUSH2 0x23FC PUSH1 0x0 MLOAD PUSH2 0x23CE JUMP JUMPDEST PUSH4 0x8C379A0 DUP2 EQ PUSH2 0x240D JUMPI POP PUSH2 0x248E JUMP JUMPDEST PUSH1 0x40 MLOAD PUSH1 0x4 RETURNDATASIZE SUB PUSH1 0x4 DUP3 RETURNDATACOPY DUP1 MLOAD RETURNDATASIZE PUSH1 0x24 DUP3 ADD GT PUSH8 0xFFFFFFFFFFFFFFFF DUP3 GT OR ISZERO PUSH2 0x2439 JUMPI POP POP POP PUSH2 0x248E JUMP JUMPDEST DUP1 DUP3 ADD DUP1 MLOAD PUSH8 0xFFFFFFFFFFFFFFFF DUP2 GT ISZERO PUSH2 0x2458 JUMPI POP POP POP POP POP PUSH2 0x248E JUMP JUMPDEST DUP1 PUSH1 0x20 DUP4 ADD ADD RETURNDATASIZE DUP6 ADD DUP2 GT ISZERO PUSH2 0x2473 JUMPI POP POP POP POP POP POP PUSH2 0x248E JUMP JUMPDEST PUSH2 0x247C DUP3 PUSH2 0x23BD JUMP JUMPDEST PUSH1 0x20 DUP5 ADD ADD PUSH1 0x40 MSTORE DUP3 SWAP7 POP POP POP POP POP POP POP JUMPDEST SWAP1 JUMP INVALID GASLIMIT MSTORE NUMBER BALANCE BALANCE CALLDATALOAD CALLDATALOAD GASPRICE KECCAK256 PUSH21 0x72616E7366657220746F206E6F6E20455243313135 CALLDATALOAD MSTORE PUSH6 0x636569766572 KECCAK256 PUSH10 0x6D706C656D656E746572 GASLIMIT MSTORE NUMBER BALANCE BALANCE CALLDATALOAD CALLDATALOAD GASPRICE KECCAK256 GASLIMIT MSTORE NUMBER BALANCE BALANCE CALLDATALOAD CALLDATALOAD MSTORE PUSH6 0x636569766572 KECCAK256 PUSH19 0x656A656374656420746F6B656E734552433131 CALLDATALOAD CALLDATALOAD GASPRICE KECCAK256 PUSH3 0x616C61 PUSH15 0x636520717565727920666F72207468 PUSH6 0x207A65726F20 PUSH2 0x6464 PUSH19 0x657373455243313135353A2062617463682062 PUSH2 0x6C61 PUSH15 0x636520717565727920666F72207468 PUSH6 0x207A65726F20 PUSH2 0x6464 PUSH19 0x6573734F776E61626C653A206E6577206F776E PUSH6 0x722069732074 PUSH9 0x65207A65726F206164 PUSH5 0x7265737345 MSTORE NUMBER BALANCE BALANCE CALLDATALOAD CALLDATALOAD GASPRICE KECCAK256 PUSH4 0x616C6C65 PUSH19 0x206973206E6F74206F776E6572206E6F722061 PUSH17 0x70726F766564455243313135353A207472 PUSH2 0x6E73 PUSH7 0x657220746F2074 PUSH9 0x65207A65726F206164 PUSH5 0x7265737345 MSTORE NUMBER BALANCE BALANCE CALLDATALOAD CALLDATALOAD GASPRICE KECCAK256 PUSH21 0x72616E736665722063616C6C6572206973206E6F74 KECCAK256 PUSH16 0x776E6572206E6F7220617070726F7665 PUSH5 0x4552433131 CALLDATALOAD CALLDATALOAD GASPRICE KECCAK256 PUSH10 0x6E73756666696369656E PUSH21 0x2062616C616E636520666F72207472616E73666572 GASLIMIT MSTORE NUMBER BALANCE BALANCE CALLDATALOAD CALLDATALOAD GASPRICE KECCAK256 PUSH20 0x657474696E6720617070726F76616C2073746174 PUSH22 0x7320666F722073656C66455243313135353A20616363 PUSH16 0x756E747320616E6420696473206C656E PUSH8 0x7468206D69736D61 PUSH21 0x6368455243313135353A2069647320616E6420616D PUSH16 0x756E7473206C656E677468206D69736D PUSH2 0x7463 PUSH9 0xA26469706673582212 KECCAK256 0xC9 0x2B 0xC2 PUSH3 0xD27684 0xC SHR SWAP14 0xD8 0xA5 GT STATICCALL 0x1E 0xC 0xA6 0xF7 CALL 0x5F INVALID 0x5D SLT ADDMOD 0x2E MSIZE 0xB3 PUSH26 0xB35A928064736F6C63430007060033455243313135353A207472 PUSH2 0x6E73 PUSH7 0x657220746F206E PUSH16 0x6E204552433131353552656365697665 PUSH19 0x20696D706C656D656E74657245524331313535 GASPRICE KECCAK256 GASLIMIT MSTORE NUMBER BALANCE BALANCE CALLDATALOAD CALLDATALOAD MSTORE PUSH6 0x636569766572 KECCAK256 PUSH19 0x656A656374656420746F6B656E736874747073 GASPRICE 0x2F 0x2F PUSH24 0x77772E676F6C647374616E646172646772702E636F6D2F6D PUSH6 0x746164617461 0x2F PUSH3 0x65726C PUSH10 0x6E2F484D4F522E6A736F PUSH15 0x455243313135353A206D696E742074 PUSH16 0x20746865207A65726F20616464726573 PUSH20 0x0 "
				},
				"gasEstimates": {
					"creation": {
						"codeDepositCost": "1985800",
						"executionCost": "infinite",
						"totalCost": "infinite"
					},
					"external": {
						"GOLD()": "250",
						"SHIELD()": "294",
						"SILVER()": "227",
						"SWORD()": "295",
						"THORS_HAMMER()": "294",
						"balanceOf(address,uint256)": "infinite",
						"balanceOfBatch(address[],uint256[])": "infinite",
						"isApprovedForAll(address,address)": "1407",
						"owner()": "1100",
						"renounceOwnership()": "24320",
						"safeBatchTransferFrom(address,address,uint256[],uint256[],bytes)": "infinite",
						"safeTransferFrom(address,address,uint256,uint256,bytes)": "infinite",
						"setApprovalForAll(address,bool)": "infinite",
						"supportsInterface(bytes4)": "1293",
						"transferOwnership(address)": "infinite",
						"uri(uint256)": "infinite"
					}
				},
				"methodIdentifiers": {
					"GOLD()": "3e4bee38",
					"SHIELD()": "5b2725ed",
					"SILVER()": "e3e55f08",
					"SWORD()": "13dc989f",
					"THORS_HAMMER()": "d562e204",
					"balanceOf(address,uint256)": "00fdd58e",
					"balanceOfBatch(address[],uint256[])": "4e1273f4",
					"isApprovedForAll(address,address)": "e985e9c5",
					"owner()": "8da5cb5b",
					"renounceOwnership()": "715018a6",
					"safeBatchTransferFrom(address,address,uint256[],uint256[],bytes)": "2eb2c2d6",
					"safeTransferFrom(address,address,uint256,uint256,bytes)": "f242432a",
					"setApprovalForAll(address,bool)": "a22cb465",
					"supportsInterface(bytes4)": "01ffc9a7",
					"transferOwnership(address)": "f2fde38b",
					"uri(uint256)": "0e89341c"
				}
			},
			"storageLayout": {
				"storage": [
					{
						"astId": 141,
						"contract": "contracts/HMOR.sol:HMOB",
						"label": "_supportedInterfaces",
						"offset": 0,
						"slot": "0",
						"type": "t_mapping(t_bytes4,t_bool)"
					},
					{
						"astId": 801,
						"contract": "contracts/HMOR.sol:HMOB",
						"label": "_balances",
						"offset": 0,
						"slot": "1",
						"type": "t_mapping(t_uint256,t_mapping(t_address,t_uint256))"
					},
					{
						"astId": 807,
						"contract": "contracts/HMOR.sol:HMOB",
						"label": "_operatorApprovals",
						"offset": 0,
						"slot": "2",
						"type": "t_mapping(t_address,t_mapping(t_address,t_bool))"
					},
					{
						"astId": 809,
						"contract": "contracts/HMOR.sol:HMOB",
						"label": "_uri",
						"offset": 0,
						"slot": "3",
						"type": "t_string_storage"
					},
					{
						"astId": 679,
						"contract": "contracts/HMOR.sol:HMOB",
						"label": "_owner",
						"offset": 0,
						"slot": "4",
						"type": "t_address"
					}
				],
				"types": {
					"t_address": {
						"encoding": "inplace",
						"label": "address",
						"numberOfBytes": "20"
					},
					"t_bool": {
						"encoding": "inplace",
						"label": "bool",
						"numberOfBytes": "1"
					},
					"t_bytes4": {
						"encoding": "inplace",
						"label": "bytes4",
						"numberOfBytes": "4"
					},
					"t_mapping(t_address,t_bool)": {
						"encoding": "mapping",
						"key": "t_address",
						"label": "mapping(address => bool)",
						"numberOfBytes": "32",
						"value": "t_bool"
					},
					"t_mapping(t_address,t_mapping(t_address,t_bool))": {
						"encoding": "mapping",
						"key": "t_address",
						"label": "mapping(address => mapping(address => bool))",
						"numberOfBytes": "32",
						"value": "t_mapping(t_address,t_bool)"
					},
					"t_mapping(t_address,t_uint256)": {
						"encoding": "mapping",
						"key": "t_address",
						"label": "mapping(address => uint256)",
						"numberOfBytes": "32",
						"value": "t_uint256"
					},
					"t_mapping(t_bytes4,t_bool)": {
						"encoding": "mapping",
						"key": "t_bytes4",
						"label": "mapping(bytes4 => bool)",
						"numberOfBytes": "32",
						"value": "t_bool"
					},
					"t_mapping(t_uint256,t_mapping(t_address,t_uint256))": {
						"encoding": "mapping",
						"key": "t_uint256",
						"label": "mapping(uint256 => mapping(address => uint256))",
						"numberOfBytes": "32",
						"value": "t_mapping(t_address,t_uint256)"
					},
					"t_string_storage": {
						"encoding": "bytes",
						"label": "string",
						"numberOfBytes": "32"
					},
					"t_uint256": {
						"encoding": "inplace",
						"label": "uint256",
						"numberOfBytes": "32"
					}
				}
			},
			"userdoc": {
				"kind": "user",
				"methods": {},
				"version": 1
			}
		}
	}
}